:02000002B0004C
:1040000000400B00DC940B00000006000C000502D1
:084010000401A60F00000000EE
:0440180064840B00B1
:1040200009480A49884208B505D0094A824202D0A7
:10403000121A04F053F90748074A0021121A04F033
:104040005BF9014808BD00BFACE00320D88F0B002E
:1040500088E5032088E50320EDE7032070B5074ECF
:10406000074C02F02FFDA41BA4080025AC4200D190
:1040700070BD56F8043B98470135F7E7848F0B0075
:10408000AC8F0B0000F08EB908B500F0A3FCBDE8C2
:10409000084002F0CFBC02F051B902F04FB902F073
:1040A00055B9000008B5034A03490C2002F0A2F8F4
:1040B000FEE700BFD55E0B0078840B000078B0FAF5
:1040C00080F04009704701230370704770B50C1EE3
:1040D000064615460BDA0A2A09D12D2102F0DAFB31
:1040E0006142EAB23046BDE8704002F0ECBB2146C6
:1040F000F7E70EB403B503AB002153F8042B01938B
:1041000002F0FFFB02B05DF804EB03B07047000063
:1041100038B584690A4B036005467CB16368013B8E
:1041200063605BB9236820469B689847A368013B9E
:10413000A3601BB923682046DB689847284638BD32
:104140003C8D0B0010B50446FFF7E2FF20461C2112
:10415000FFF7A5FF204610BD2DE9F0418CB00546C4
:104160000F4668467749DDF8488014461E4602F03F
:10417000C4FADFF828E27449DEF800307348744A64
:10418000DFF81CC2AB4219D10B68BB4216D10368E1
:10419000A34213D11368B34210D1DCF80030434579
:1041A0000CD102F0B1FD6B49FFF7A3FF0024684674
:1041B00002F058FA20460CB0BDE8F081CEF800506D
:1041C0000F6004601660CCF80080002F00F0B5800E
:1041D0006149684602F0BFFA694608A802F0B0FAE1
:1041E0000A22414604A802F0C8FA04A908A802F06D
:1041F000FBFA5A4902F004FB0146684602F091FAC4
:1042000004A802F02FFA08A802F02CFA694608A8C0
:1042100002F096FA0A22314604A802F0AEFA04A986
:1042200008A802F0E1FA4E4902F0EAFA01466846AF
:1042300002F077FA04A802F015FA08A802F012FAC0
:10424000694608A802F07CFA0A22214604A802F076
:1042500094FA04A908A802F0C7FA424902F0D0FA79
:104260000146684602F05DFA04A802F0FBF908A8CE
:1042700002F0F8F93C493D480023502202F0D2FEFA
:104280000446002893D002F03FFD394902F011FBAB
:1042900002F03AFD009902F00CFB3649334802F077
:1042A000F5FA3549314802F0F1FA34492F4802F065
:1042B000EDFA0A222D482946FFF708FF30492B481E
:1042C00002F0F7FA2F49294802F0F3FA2E4927485D
:1042D00002F0DCFA2449254802F0EBFA2B49234886
:1042E00002F0D4FA0A220299204802F0ECFA1F48A0
:1042F00002F0D3FA26491D4802F0DBFA1B4802F00F
:10430000CCFA0099194802F0D4FA02F0FDFC2149D8
:1043100002F0CFFA02F0F8FC1449044608A802F0B3
:1043200037FB0899204602F0C4FA08A802F09AF96F
:104330000E4803F02DF8012439E71749684602F0CA
:104340000AFA97E7A8840B00F4E50320FCE50320B4
:10435000ECE503208D840B00A9840B00BB840B00CB
:10436000C3840B00D6840B0050860B0088E5032025
:10437000D8840B00EF840B000B860B00F9840B0034
:1043800002850B0012850B001D850B0024850B0098
:1043900035850B005C850B00CB840B00F0E503201A
:1043A000F8E5032038B50821264801F014FD25481A
:1043B00001F022FB3C220221234800F0A9FE224802
:1043C00000F0BEFD204800F033FE02F09DFC4FF4EB
:1043D000165102F089FC002001F094FD42F21075A4
:1043E0000446002001F08EFD001B61F10001A8428F
:1043F00071F1000307D202F087FC02F079FC10B9DA
:1044000001F08CFFEDE702F07FFC02F071FC00216F
:10441000132003F049F90021122003F045F900218F
:10442000112003F041F90121082003F03DF9012199
:10443000072003F039F9BDE838400121062003F0D8
:1044400033B900BF74E6032034E603202DE9F843B6
:10445000DFF8D0802D4C2E4DDFF8CCC0D8F800907E
:104460002C4E002323602B60CCF800300427194623
:104470009E4618461A46B7EE007AF0EE006A013FF3
:104480001BD0B1460422013A12D0F9EC017AF4EEC5
:10449000477AF1EE10FA03D101304FF0010EF2E746
:1044A000F4EE667AF1EE10FAEDD101310123EAE77C
:1044B0000C3601224FF00309E1E70AB1C8F8009079
:1044C000BEF1000F00D0206003B1296012B10323B8
:1044D000CCF8003022682B689A4207DDD31AC3F16A
:1044E00003030D4A13600D4A136001E009DB0BD092
:1044F00002F00AFC2B6822680949FFF7FAFDBDE8C3
:10450000F8839B1A0333ECE70323EAE7B0E60320C2
:1045100024E603208CE603202CE6032028E6032073
:1045200065850B0068E603206CE6032038B52A4D4C
:104530002C68BCB90121082003F0B6F821460720F9
:1045400003F0B2F82146062003F0AEF8012108205E
:1045500003F0BBF82146072003F0B7F821460620F8
:1045600003F0B3F82C68012C17D10021082003F0C8
:104570009BF82146072003F097F80021062003F05E
:1045800093F80021082003F0A0F82146072003F04B
:104590009CF80021062003F098F82B68022B19D113
:1045A0000021082003F080F80021072003F07CF8A8
:1045B0000121062003F078F80021082003F085F897
:1045C0000021072003F081F8BDE8384001210620D2
:1045D00003F07BB838BD00BF30E6032000000000C8
:1045E0002DE9F047DFF89081DFF87C9160A7D7E9EB
:1045F0000067002386B0C8F80030D8F80030564C69
:10460000022B56DC554A1360FFF790FF002323600E
:104610002068022847DC113080B203F06FF803F005
:104620008BFB32463B4603F01BFD03F001FE256881
:10463000D8F800A04A4907EE900A05EB4502B7EE0C
:10464000007A5244F4EEC77A09EB8200F1EE10FAD8
:1046500001EB82024FEA4503C0ED007AC2ED007A19
:10466000F0EE006A09DDF4EEE67AF1EE10FA04D518
:1046700080ED007A01352560CAE7F4EEE67A2B4436
:104680005344F1EE10FA09EB830302DDC3ED006A37
:10469000F0E7D3ED007AF4EEC77AF1EE10FA44BFFA
:1046A00000221A60E6E7D8F800300133C8F800307D
:1046B000A3E702232A4F2B4E23604FF00C0802F091
:1046C00023FB256808FB05758146286803F046FB37
:1046D00002460B46A868CDE9042303F03FFBCDE971
:1046E0000201686803F03AFBDDE90423CDE900012B
:1046F00031464846FFF7FDFC2368013B002B236051
:10470000DDDA0223184F194E23604FF00C0802F037
:10471000FBFA256808FB05758146286803F01EFB37
:1047200002460B46A868CDE9042303F017FBCDE948
:104730000201686803F012FBDDE90423CDE9000102
:1047400031464846FFF7D5FC2368013B002B236028
:10475000DDDA06B0BDE8F08768E6032030E6032026
:1047600000E603207F850B008CE60320A4850B0068
:1047700000000000007888406CE603207FB53B4CC9
:1047800020460125392600F0DBFB0623CDE9006534
:104790001A461946204600F093FDCDE900653346E0
:1047A00031462046062200F08BFD0621009133465B
:1047B0000A462046019500F083FDCDE900653346A9
:1047C000324620461026062100F07AFD3346204668
:1047D000019500960722182100F020FE334620465E
:1047E000CDE900651822072100F018FE3346204667
:1047F000CDE900651822292100F010FE3346292258
:104800002046CDE90065182100F008FE2946204623
:1048100001F09EF82946204601F095F832462046E0
:10482000442101F08DF812492046FFF762FC2B224B
:104830002046442101F084F80E492046FFF759FC38
:104840002046009504231222762100F0BEFE31237B
:104850007A22CDE901230093039572232922762140
:10486000204600F0D8FE04B070BD00BF34E603203F
:10487000D8850B00E0850B002DE9F0433F4EDFF8B3
:104880001481002785B037603D4D3E4CDFF808911C
:1048900000232B60236022683368022A66DC02EB67
:1048A00042021A4408EB820292ED007AF7EE007A97
:1048B000B4EE677AF1EE10FA87F0010714D1296897
:1048C0003148062253434A1C1A441944BBB239F9F1
:1048D000211039F922200093042300F076FE02F023
:1048E00013FA2A49FFF705FC2368326803EB4303F8
:1048F000134408EB830393ED007AF0EE007AB4EEF4
:10490000677AF1EE10FA21D12868062353431A186A
:104910000130034459F8221039F8232088B2A0F15D
:10492000040C131D04301BB200B2043ACDE9003070
:1049300009B2CDE9023714480FFA8CF312B200F035
:104940006AFE02F0E1F91149FFF7D3FB02F0DCF94E
:10495000336800932A6823680D49FFF7CAFB2B6868
:1049600002332B6023680133236094E70133022B69
:10497000336089DD05B0BDE8F08300BF6CE603203D
:1049800070E6032068E6032034E60320E8850B0088
:10499000F5850B008CE60320C4E00320F8B50B4D31
:1049A0000B4E28600C4617462968A1420BDA3A469E
:1049B00089B2304601F0CCF9304601F01DF82B6881
:1049C00001332B60F0E72046F8BD00BF88E60320E6
:1049D00074E6032037B53E4CFFF702FEFFF736FDC5
:1049E000FFF7CCFEFFF748FF3A4800F021FB94EDBB
:1049F000007AF0EE007AB4EE677AF1EE10FA0DD09C
:104A000094ED017AB4EE677AF1EE10FA06D094EDE7
:104A1000027AB4EE677AF1EE10FA14D12E4B2F4AD7
:104A20001968FF2552F821200095642300210320F6
:104A3000FFF792FB2A460C210020FFF7AFFF41F25F
:104A4000883001F0CBFF94ED067AF7EE007AB4EEF1
:104A5000677AF1EE10FA0DD094ED077AB4EE677A2A
:104A6000F1EE10FA06D094ED087AB4EE677AF1EE22
:104A700010FA15D1FF23009345F2ED326423012192
:104A80000320FFF769FB4FF47F020C210020FFF7A2
:104A900085FF41F2883003B0BDE8304001F09EBF91
:104AA0000D4C0E4A2168FF2352F82120009301216A
:104AB00064230320FFF750FB2268094B53F82220A0
:104AC0000C21002003B0BDE83040FFF767BF00BFF6
:104AD0008CE6032034E603202CE6032034860B000A
:104AE0005C860B0008B51B4B0022C3E90022A2F52F
:104AF00080329A60022001F08DFB1749174801F0BF
:104B0000FCFD174A174B12681A60174A17481268BB
:104B10005A60174A12689A60164A1268DA60164A92
:104B200012681A61154A12685A61154A12689A6128
:104B300002F078FC134802F075FC02230C211248A5
:104B40000F2200F047FFBDE808401048022100F0A6
:104B5000E1B900BFC4E50320A8840B0058E6032098
:104B6000C0E50320A4E50320B8E0032088E5032086
:104B7000C0E00320B0E00320ACE00320B4E0032059
:104B8000BCE00320D0E5032074E6032034E60320D4
:104B9000F0B5457EBDF81440022D69D0032D00F01C
:104BA0009980012D6CD10589D2432A4412B2002A82
:104BB0005DDBB0F90850954259DD0029BEBF5B1896
:104BC0001BB20021B0F90A00CD188542C4BF431AB8
:104BD0001BB2002B4BDDC1F3C400DFF820C102EB98
:104BE000C01211F00701DBB20CEB02001AD0C1F1C8
:104BF0000805404EEDB2AB42775D3FBFA5EB030E1B
:104C0000FF2646FA0EF637401CF80260012C0CBF56
:104C10003E43BE43AB420CF8026028D308390B4434
:104C2000DBB28030072B19D9012C4FF0FF3518BFAC
:104C30000025EDB200F180011A46083AD2B2072AE7
:104C400001F8805C01F18001F7D8A3F10802C2F3FA
:104C5000C402013200EBC21003F007033BB1264A45
:104C6000D25C0378012C0CBF134393430370F0BD57
:104C70004589D2432A44CD180189491B12B209B291
:104C8000002AF4DBB0F90A509542F0DD0029BEBFDE
:104C90005B181BB20021B0F90870CE18BE42C4BF29
:104CA0006B1A1BB2002BE2DDD010802510FB051122
:104CB0001248014402F0070001228240012CD2B2C6
:104CC0000B440CD18B42D2D011F8010B104301F8E8
:104CD000010CF7E7CD184189491B09B267E7D243B8
:104CE000D2B28B42C3D011F8010B104001F8010C75
:104CF000F7E700BF14E103200CE103201CE10320CF
:104D0000F0B5457EBDF81440022D34D0032D00F0DF
:104D10009B80012D37D1D5180289521B12B2002970
:104D2000C0F29180B0F90A508D4240F38C80002A85
:104D3000BEBF9B181BB20022B0F90870D618BE4245
:104D4000C4BFAB1A1BB2002B7DDDC810802510FB41
:104D500005224548024401F0070001218140012C51
:104D6000C9B2134475D19A426DD012F8010B0843B1
:104D700002F8010CF7E70589C9432944D51842898F
:104D8000521B09B212B200295DDBB0F908508D4206
:104D900059DD002ABEBF9B181BB20022B0F90A00E1
:104DA000D5188542C4BF831A1BB2002B4BDDC2F35A
:104DB000C400DFF8B4C001EBC01112F00702DBB28F
:104DC0000CEB01001AD0C2F10805284EEDB2AB423F
:104DD000775D3FBFA5EB030EFF2646FA0EF6374080
:104DE0001CF80160012C0CBF3E43BE43AB420CF8E3
:104DF000016028D3083A1344DBB28030072B19D95D
:104E0000012C4FF0FF3518BF0025EDB200F18001F5
:104E10001A46083AD2B2072A01F8805C01F18001F3
:104E2000F7D8A3F10802C2F3C402013200EBC210AA
:104E300003F007033BB10E4AD25C0378012C0CBF90
:104E4000134393430370F0BD4589C943294409B214
:104E500065E7C943C9B29A42F5D012F8010B084080
:104E600002F8010CF7E700BF1CE1032014E1032066
:104E70000CE1032070470000F8B50D1E06461446ED
:104E80001F462DDB00F069FDA84229DD002C27DB41
:104E9000304600F065FDA04222DD304600F05BFDAB
:104EA00002281ED0032825D0012804D13389E243EB
:104EB0001A442C4615B2002C2246B8BFE21DD2106F
:104EC000802112FB01550E49012204F007044B57C3
:104ED00002FA04F464B297420CBF2343A3434B5538
:104EE000F8BD318972890139E4434D1B14442DB258
:104EF00024B2E0E77389013B5B1B25461CB2DAE76D
:104F00001CE1032010B524210446FFF7C8F8204611
:104F100010BD000038B5402204460D46802100F047
:104F2000A7FA064B2360FF2384F8213063774FF6FE
:104F3000FF73E38384F82050204638BD80860B0041
:104F400002484FF48062002103F0D6B91CE103202F
:104F500013B50B4C2178BFF35B8F11F001010BD11E
:104F600020460191FFF7AAF8019928B1054801F000
:104F700061FA2046FFF7A7F8024802B010BD00BF53
:104F8000B4E60320B8E6032007B590F8223043B119
:104F90000191FFF7DDFF019903B05DF804EB01F02B
:104FA000FDBA0B46817F407F012203B05DF804EB20
:104FB00002F0BBBB38B590F91D30013304460D46F5
:104FC0001DD090F92100012180B202F07EFB94F9FE
:104FD0001F00002180B202F078FB94F9210000212B
:104FE00080B202F072FB29462046FFF7CDFF94F90C
:104FF00021000121BDE8384080B202F066BB02F01A
:1050000011FC94F91B1001F04BFF02F00BFC03683C
:1050100000219B68984702F005FC036829469B68BD
:10502000984702F0FFFBBDE8384001F040BF0000A8
:10503000F8B521210446FFF7BDFF00212046FFF708
:10504000B9FF7F212046FFF7B5FF22212046FFF759
:10505000B1FF00212046FFF7ADFF07212046FFF7F3
:10506000A9FF94F91D30294F01332AD094F921006A
:10507000012180B202F029FB94F91F00012180B2C6
:1050800002F023FB94F92100002180B202F01DFB05
:10509000012000F01FFF4FF48065013D17F8011B50
:1050A0002046ADB2FFF770FF002DF6D1012000F0D1
:1050B00011FF94F921000121BDE8F84080B202F00F
:1050C00004BB002502F0AEFB94F91B1001F0E8FED2
:1050D00002F0A8FB036840219B68984705F1100681
:1050E000B6B202F09FFB0368795D9B6898476B1C22
:1050F0009DB2AE42F5D102F095FB01F0D8FEB6F5B7
:10510000806F00D1F8BD3546DCE700BF1CE103200D
:1051100038B590F91D300177013304460D46C2764B
:1051200000F0C98090F91F00012180B202F0BCFAA2
:1051300094F92100012180B202F0B6FA94F82230ED
:10514000002B00F0A68094F92100012180B202F02A
:10515000BCFAFFF7FDFE012101F08AF9FFF7F8FE26
:10516000102101F0F5F9FFF7F3FE002101F094F9A9
:10517000FFF7EEFE01F068F994F92000012180B2FA
:1051800002F092FA94F92000012180B202F09DFA17
:10519000012001F023FC94F92000002180B202F0EC
:1051A00094FA0A2001F01AFC94F92000012180B23F
:1051B00002F08BFA2046AE21FFF7FCFE2046D521F7
:1051C000FFF7F8FE20468021FFF7F4FE2046A821D5
:1051D000FFF7F0FE20463F21FFF7ECFE2046D321EB
:1051E000FFF7E8FE20460021FFF7E4FE20464021BD
:1051F000FFF7E0FE8D212046FFF7DCFE012D0CBFFE
:10520000102114212046FFF7D5FE20462021FFF76C
:10521000D1FE20460021FFF7CDFE2046A121FFF759
:10522000C9FE2046C821FFF7C5FE2046DA21FFF758
:10523000C1FE20461221FFF7BDFE81212046FFF767
:10524000B9FE012D0CBF9F21CF212046FFF7B2FEF2
:10525000D9212046FFF7AEFE012D0CBF2221F121FE
:105260002046FFF7A7FE2046DB21FFF7A3FE2046DE
:105270004021FFF79FFE2046A421FFF79BFE20461A
:10528000A621FFF797FE2046AF21BDE83840FFF783
:1052900091BE94F91D00012180B202F005FA94F943
:1052A0001E00012180B202F0FFF994F82230002B99
:1052B0003FF462AF47E702F0B5FA01F0E7FD5BE7C4
:1052C0002DE9F04F85B01F46BDF93880BDF83C3060
:1052D000A8EB0209A7EB010AB9F1000FB8BFC9F1A9
:1052E0000009BAF1000FB8BFCAF1000AD1458346E0
:1052F0000C46154604DD3A462C4647460D46904678
:10530000BC4205DD2A464546904622463C461746A5
:105310003E1BB2B20092A8EB050282EAE271A1EB59
:10532000E271C6F3C03202FA86F64545B4BF0122E7
:105330004FF0FF32019176100292BC421CDCDBF888
:1053400000200393D145D2F81080C7BF29462246DA
:105350002A4621465846C047019A039BB61AB1B265
:1053600036B2002E05DA029A1544009A56182DB26C
:1053700036B2013424B2E0E705B0BDE8F08F2DE984
:10538000F347BDF82C800768BDF92890CDF8008060
:105390000446FF6916468A461D46B8472368CDF87D
:1053A000008009F1FF323244DF6951462B46204626
:1053B00012B2B8472368CDF800809F6932464B4649
:1053C00051462046B8476B1E03EB0A012368CDF80F
:1053D00028809D6932464B4609B22046AC4602B051
:1053E000BDE8F047604737B5013B13440468BDF89A
:1053F000185001951BB2009364690B46A04703B097
:1054000030BD37B5BDF818500468CDE90025013B23
:105410000B4464691BB2A04703B030BD2DE9F347CC
:10542000BDF92890BDF82C80054692460C46CE1852
:10543000B4420BDA2B68CDF800809F6921464B46B9
:10544000524628460134B84724B2F1E702B0BDE81D
:10545000F08713B502680191B0F90E100091546AFB
:10546000B0F90C3000221146A04702B010BD7047C1
:1054700030B54281C2814FF0FF320024054D4261B8
:10548000012244600560018181810461028382768A
:1054900030BD00BFB48B0B002DE9F04F8DB01C4622
:1054A0009DF858300993BDF95C300A93BDF860301F
:1054B0000493A3B2C3F10105C3EBC3335B001BB27A
:1054C000079300230693099B089203F001032AB275
:1054D0000B938BB28346039203270593069BA3424B
:1054E00070DA039B002B0ADB079B02331AB2079288
:1054F000039A12FA83F5013C2BB224B20393069B64
:1055000001331FFA83FA1BB20693039B3B441BB281
:1055100003930B9B3BB30498BDF828800090DBF805
:105520000000BDF8209005998069A6B208F101033A
:1055300003EB4603A9EB0602514405461BB212B227
:1055400009B25846A8470599049800903144DBF801
:10555000006008EB0703A9EB0A02B6691BB212B29E
:1055600009B25846B047099B9B0728D50498BDF857
:1055700028900090DBF80000BDF820800599806934
:10558000A6B209F1010303EB4603A8EB0602A1EB67
:105590000A0105461BB212B209B25846A84705993E
:1055A00004980090891BDBF8006009EB0703A8EB67
:1055B0000A02B6691BB212B209B25846B0470237A6
:1055C000BFB28BE70DB0BDE8F08F2DE9F04385B099
:1055D0001546BDF83080CDF800809AB21E465300C3
:1055E00003F1010C0368AA1AD3F8189012B20FFA4B
:1055F0008CF304460F46C84703230022CDE900324E
:10560000CDF8088033462A4639462046FFF744FF46
:1056100005B0BDE8F0832DE9F04F8DB01446BDF91B
:105620005860BDF86420BDF960700492B4420D4624
:105630008346BDF95C1058DDBC425EDC2246344630
:1056400016462A461D461346BC425ED19D42C2BF45
:105650002A461D4613468D4204DC8B42B8BF0B46DA
:105660001BB22946DBF8002004981690D569013357
:105670005B1A1BB222465846AC460DB0BDE8F04F4F
:105680006047059B961B141B16FB03F614FB09F4DD
:1056900036B224B2BA4200F396800A9B029896FB77
:1056A000F3F1039B06921944079B94FBF3F3034425
:1056B00009B21BB299420598C8BF8C460644C8BFC0
:1056C000194604980090C8BF6346DBF80000013318
:1056D0005B1AD0F81C801BB25846C047069A4C444F
:1056E000013236B224B212B2D4E7BE42ACDD224659
:1056F000344616462A461D4613462246B7423C46C5
:1057000017462A460D46114698DA9BB20393ABB270
:105710000293DDE902239B1A9BB21FFA84FC0893D3
:10572000B3B2A3EB0C0212B20992029A89B2A1EBB6
:105730000209BAB2A2EB0C0C0FFA8CF00790039896
:10574000B742A2EB0302A1EB000118BF03F1FF3344
:1057500012B289B218BF1BB24FF000080A921FFAAA
:1057600089F9059114BF069306972246C246069B07
:105770009A4286DC099B02989AFBF3F1029B0B92FA
:105780001944079B98FBF3F30344089809B21BB232
:105790009942824404980090C8BF8C46DBF8000010
:1057A000C4BF19466346C06901335B1A05461BB284
:1057B0005846A8470B9AC84401320FFA8AFA0FFAE2
:1057C00088F812B2D3E70DB0BDE8F08F2DE9F04FA5
:1057D0002DED028B8DB007460491BDF86010059148
:1057E000BDF864100691B0F90C1004989DF868504B
:1057F000814252DDB7F90E1091424EDD062111FBB8
:105800000504002C49DD02EBC504002C45DD03EB4B
:1058100083030B9393B2079308339BB20891002440
:105820000993052C1CBF2C4B0B9A079E16BF1B1906
:1058300000239B5C0393049AABB20A9304FB05F329
:1058400013FA82F31BB204EB020A08EE103AB046D8
:105850000FFA85F90FFA8AFA039BDB072FD5012D82
:105860003B681FD1D3F810B0059B32B25146384681
:10587000D847039B5B0803930A9B01369844099B16
:10588000B6B2B3421FFA88F8E6D1089B013B013457
:1058900013F0FF0364B20893C3D10DB0BDEC028BCB
:1058A000BDE8F08F059ACDE9009218EE101AD3F8F2
:1058B00024B00FFA88F24B463846D847D9E7DDE9DD
:1058C00005239342D5D0012D3B6803D1D3F810B006
:1058D000069BCAE7069AE6E7B0860B0030B50A29B0
:1058E00085B0044607D1027E638A03EBC20363825C
:1058F0000023238221E00D291FD0037E0293C38A57
:105900000193838A0093B0F912200B46B0F910106E
:10591000FFF75CFF207E238A00EB400103EB41038D
:10592000A17E1BB20246238239B1B4F90C106FF08C
:10593000050505FB00118B42D6DC012005B030BD0A
:10594000018242827047012938BF012101767047E8
:10595000C18281827047407E7047B0F90C00704769
:10596000B0F90E00704738B50446C0680D4608B15E
:1059700000F0ECFCA379062B0CBF0420032010FBE5
:1059800005F080B2A08000F0D9FCE06028B1A288C8
:10599000002102F0B1FC658038BDA0806080FBE78B
:1059A00037B5037805460C461BB1C079002101F0DC
:1059B0007BFE2B78EC715BB1A0B20121019001F06C
:1059C00073FE0198002103B0BDE8304001F07DBEB8
:1059D00003B030BD70B50025044616468371C0E99A
:1059E000035505700572FFF7BEFF20463146FFF7ED
:1059F000D7FF204670BD0000C368002B00F0A481D3
:105A00002DE9F04F8379023BDBB2042B9CBFBF4AE8
:105A100052F8234085B0054688BF322400F062FA70
:105A20002B69C01AA042F9D3B94CAE88D4F800351E
:105A30001BB9D4F86035002B7EDBB64CD4F80035AA
:105A400023B9D4F86035002BC0F26E81B24CD4F883
:105A50000035002B00F04481EB79B04AB04C12685D
:105A6000190102EB0313575CAE495B78D1F8FC20B7
:105A700042F08072C1F8FC20226803F01F0343EA61
:105A8000471301273A432260A988D5F80C80D4F83F
:105A900004909F40002944D04FF0000E72464FF012
:105AA000A04118F801CB0820802663689B1A462B7A
:105AB000FBD96268D1F808351CEA060F43EA0703F0
:105AC000C1F808352FD063689B1A282BFBD9D1F871
:105AD0000C35013843EA07034FEA5606C1F80C3586
:105AE000E3D1AB880EF1010E1FFA8EFE7345D8D8B4
:105AF0004FF4307103FB01F163689B1A462BFBD90D
:105B00006368A3EB09098945C0F0E4804FF49670FF
:105B100000F0E0F9A988D5F80C80D4F804900029A9
:105B2000BAD10A46E8E763689B1A112BCFD863689D
:105B30009B1A112BF7D9CAE7D4F86435002BBFF6AE
:105B40007CAFD4F86835002BBFF677AFD4F86C354E
:105B5000002BBFF672AF3601331D1846009300F0DC
:105B6000EDFB00283FF478AFAB88002B00F0ED8010
:105B7000EA68013B12FA83F702F1FF3E002348F284
:105B8000060248F20D011EF801CF1CF0800F0CBF79
:105B900093468B461CF0400F0CBF16460E461CF079
:105BA000200F0CBF9046884603F10109CDF808800C
:105BB000019603F102081FFA89F9019E20F813B03B
:105BC0001FFA88F820F81960029E20F8186003F187
:105BD00003081CF0100F1FFA88F80CBF93468B4681
:105BE00020F818B003F104081CF0080F1FFA88F819
:105BF0000CBF93468B4620F818B003F105081CF043
:105C0000040F1FFA88F80CBF93468B4620F818B093
:105C100003F1080A03F1060807339BB21CF0020FD8
:105C20001FFA88F80CBF93468B46CDF80CA01CF0E9
:105C3000010F20F818B015BF20F8131020F813201A
:105C40001FFA8AF3BDF80C3077459CD1591C0233FA
:105C500089B29BB249005B004FF400474752009A5B
:105C6000C7522E4B56081F6800221423C4F804257F
:105C7000C4F80C25C4F80835C4F81425C4F8102558
:105C8000C4F82005C4F82465C4F82825C4F82C25D8
:105C9000EB7907EB031C1B010121FE5C9CF8013032
:105CA00003F01F0343EA4613C4F86035C4F8001537
:105CB000C4F81021A160D4F81031002BFBD00023D0
:105CC0004FF0FF32C4F81031C4F80035C4F8602535
:105CD00000F03CFB00F006F9286105B0BDE8F08F4C
:105CE000D4F86035002BBFF6B7AED4F86435002B7E
:105CF000BFF6B2AED4F86835002BBFF6ADAED4F81F
:105D00006C35002BBFF6A8AE25E700BFE48B0B0077
:105D100000C001400010024000200240C0E6032005
:105D2000001000E000ED00E0D4F86435002BBFF671
:105D30008DAED4F86835002BBFF688AED4F86C353C
:105D4000002BBFF683AE06E770470423022183E7EA
:105D500043888B42F0B52DD9067AC2F30743C2F3CC
:105D60000724D5B23EB1734374437543C3F307238D
:105D7000C4F307242D0A90F806C0C768BCF1060FCB
:105D80000CBF042603264E43ACF1020CB919BCF13A
:105D9000060F1DD8DFE80CF0041C08040F040400F3
:105DA000BC554B708D7005E0FE2B28BFFE23BB5504
:105DB0004D708C70F0BDBB554C708D70037A120E17
:105DC00013B9D2B2CA70F5E75A43C2F30722F9E712
:105DD000BB554C70E6E7037A4A1CD2B2934270B5C9
:105DE0001FD0013B13F0FF03C4680CD0FF291FBF75
:105DF000110201F1FF31B1FBF3F39BB204BF4FF687
:105E0000FF71B1FBF3F325468688291B89B28E42C8
:105E100006D929785943C1F3072105F8011BF3E797
:105E2000027270BD08B500F015F8014B186008BD8E
:105E3000C0E6032008B5024B1B689B68019308BDB0
:105E40006802030008B5024B1B68DB68019308BDBC
:105E50006802030008B5024B1B681B68019308BD6C
:105E60002C02030008B5024B1B685B68019308BD58
:105E70002C02030008B5024B1B689B68019308BD08
:105E80002C02030008B5024B1B68DB68019308BDB8
:105E90002C02030008B5024B1B681B69019308BD67
:105EA0002C02030008B5024B1B681B6B019308BD55
:105EB0002C02030008B5024B1B685B69019308BD07
:105EC0006C02030008B5024B1B685B68019308BDB8
:105ED0001802030008B5024B1B68DB68019308BD7C
:105EE0001802030008B5024B1B681B69019308BD2B
:105EF0001802030008B5024B1B685B69019308BDDB
:105F00001802030008B5024B1B68DB6D019308BD46
:105F10001802030008B5024B1B685B6C019308BDB7
:105F20004802030008B5024B1B685B69019308BD7A
:105F30006402030008B5024B1B681B6A019308BD8D
:105F40006402030008B5024B1B689B6A019308BDFD
:105F50006402030008B5024B1B68DB68019308BDAF
:105F60003C02030008B5024B1B681B69019308BD86
:105F70003C02030008B5024B1B685B69019308BD36
:105F80003C02030008B5024B1B689B69019308BDE6
:105F90003C02030008B5024B1B68DB69019308BD96
:105FA0003C02030008B5024B1B681B6A019308BD45
:105FB0003C02030008B5024B1B689B6A019308BDB5
:105FC0003C02030008B5024B1B681B6C019308BD23
:105FD0003C02030008B5024B1B68DB68019308BD57
:105FE0002802030008B5024B1B689B69019308BD9A
:105FF0002802030008B5024B1B68DB69019308BD4A
:106000002802030008B5024B1B681B6A019308BDF8
:106010002802030008B5024B1B685B6A019308BDA8
:106020002802030008B5024B1B689B6A019308BD58
:106030002802030008B5024B1B68DB6A019308BD08
:106040002802030008B5024B1B681B6B019308BDB7
:106050002802030008B5024B1B685B6B019308BD67
:106060002802030008B5024B1B681B6C019308BD96
:106070002802030008B5024B1B689B69019308BD09
:106080003802030008B5024B1B68DB69019308BDA9
:106090003802030008B5024B1B681B6A019308BD58
:1060A0003802030008B5024B1B689B6A019308BDC8
:1060B0003802030008B5024B1B681B6B019308BD37
:1060C0003802030008B5024B1B689B6B019308BDA7
:1060D0003802030008B5024B1B681B68019308BD1A
:1060E0003002030008B5024B1B689B68019308BD92
:1060F0003002030008B5024B1B68DB68019308BD42
:106100003002030008B5024B1B681B69019308BDF0
:106110003002030008B5024B1B685B69019308BDA0
:106120003002030008B5024B1B68DB69019308BD10
:106130003002030008B5024B1B681B6A019308BDBF
:106140003002030008B5024B1B685B6A019308BD6F
:106150003002030008B5024B1B681B6C019308BD9D
:106160003002030008B5024B1B685B6C019308BD4D
:106170003002030008B5024B1B681B68019308BD81
:106180004C02030008B5024B1B685B68019308BD15
:106190004C02030008B5024B1B681B69019308BD44
:1061A0004C02030008B5024B1B685B69019308BDF4
:1061B0004C02030008B5024B1B689B69019308BDA4
:1061C0004C02030008B5024B1B68DB69019308BD54
:1061D0004C02030008B5024B1B681B6A019308BD03
:1061E0004C02030008B5024B1B689B6A019308BD73
:1061F0004C02030008B5024B1B685B6B019308BDA2
:106200006002030008B5024B1B681B6D019308BDBB
:106210006002030008B5024B1B685B68019308BD70
:106220002002030008B5024B1B685B69019308BD9F
:106230002002030008B5034B1B68D3F88830019394
:1062400008BD00002002030008B5034B1B68D3F80B
:106250009430019308BD00002002030008B5024BF2
:106260001B685B68019308BD4002030008B5024B40
:106270001B689B68019308BD4002030008B5024BF0
:106280001B68DB68019308BD4002030008B5024BA0
:106290001B681B69019308BD4002030008B5024B4F
:1062A0001B685B69019308BD4002030008B5024BFF
:1062B0001B689B69019308BD4002030008B5024BAF
:1062C0001B68DB69019308BD4002030008B5024B5F
:1062D0001B681B6A019308BD4002030008B5024B0E
:1062E0001B681B6B019308BD4002030008B5024BFD
:1062F0001B685B6B019308BD4002030008B5024BAD
:106300001B681B6C019308BD4002030008B5024BDB
:106310001B685B6C019308BD4002030008B5024B8B
:106320001B689B68019308BD4402030008B5024B3B
:106330001B68DB6B019308BD4402030008B5024BE8
:106340001B681B68019308BD1C02030008B5024BC3
:106350001B685B68019308BD1C02030008B5024B73
:106360001B689B68019308BD1C02030008B5024B23
:106370001B685B6A019308BD1C02030008B5024B51
:106380001B68DB6B019308BD1C02030008B5024BC0
:106390001B681B6C019308BD1C02030008B5024B6F
:1063A0001B685B6C019308BD1C020300002240685F
:1063B0001146FFF78BBF002240681146FFF796BFDA
:1063C00040680022FFF78ABF4068002281F0010187
:1063D000FFF774BF002340681A461946FFF766BFEF
:1063E000002340681A461946FFF758BF002240684C
:1063F0001146FFF74BBF002240681146FFF736BF3A
:10640000406800220221FFF739BF002340681A4686
:10641000FFF724BF024B03225A60024A1A607047FA
:10642000C4E60320008C0B000021FFF79BBE002177
:10643000FFF790BE10B5044608462170FFF772FEC4
:1064400000236360204610BD13B504460078FFF7B3
:10645000EEFF58B9207801904FF6FF71FFF73AFE32
:10646000019802B0BDE81040FFF7DEBF02B010BDDA
:1064700013B5044600780191FFF7D9FF019948B997
:1064800020780190FFF72EFE019802B0BDE8104081
:10649000FFF7CABF02B010BD13B5044600780191E2
:1064A000FFF7C5FF019948B920780190FFF722FE58
:1064B000019802B0BDE81040FFF7B6BF02B010BDB2
:1064C000400830B51860002418688842E5B206D943
:1064D0000134082C02D040081860F5E70725024B6C
:1064E0005B5D137030BD00BF348C0B002DE9F041B3
:1064F00088B000230446007802930E461746FFF743
:1065000096FF054600BB94F800800146142203A8BC
:1065100001F0F2FE0B232A4603A94046ADF80C30E9
:10652000FFF710FE04988DF8075002AB0DF107023B
:1065300007FB06F1FFF7C4FF20789DF80710FFF76F
:10654000E1FD2078FFF770FF029808B0BDE8F08108
:1065500038B5044600780D46FFF769FF0346D0B909
:10656000616899B10C4A12F8010B854202D00133DF
:10657000082BF8D10133DBB20122D9402046FFF7C6
:10658000B5FF2078BDE83840FFF74EBF2078294698
:10659000FFF7B8FDF5E738BD348C0B0008B500787F
:1065A000FFF7B8FDC0B208BD054B02221A60054BCB
:1065B000054A9A600020C3E90000FFF72BBE00BF28
:1065C000D8E60320CCE603200000FFFF10B5044608
:1065D00001F0DAFE013823182046834206D90278FA
:1065E000197800F8011B03F80129F6E710BD70B512
:1065F0000C46911E22291DD8254630B9234430224D
:106600009D4210D205F8012BFAE7B0FBF2F602FB2F
:106610001600C1B2092894BF30315731C9B205F80C
:10662000011B3046E9E7002320462B70FFF7CEFF21
:10663000204670BD0020FCE738B5031E0C46154609
:106640000EDAB3F1004F4FF02D0214BF5842184636
:1066500001230A702A461944FFF7C9FF204638BDB6
:106660000123F9E710B504460068FFF76FFE2046E6
:1066700010BD10B50446006808B1FFF767FE00239F
:10668000C4E90133236010BD38B504460D460068E7
:106690000131FFF763FE10B1C4E90005012038BDE8
:1066A00010B50368044623B143688B4201D301202F
:1066B00010BD2046FFF7E8FF0028F9D0A368002BA3
:1066C000F5D122681370F2E737B50D4611460192F5
:1066D0000446FFF7E5FF019A28B92046FFF7C9FFF6
:1066E000204603B030BDA2602946206801F0F6FDC7
:1066F0002268A3680021D154F2E7002313B5C0E952
:10670000003304468360037341B10846019101F0F0
:106710003BFE019902462046FFF7D6FF204602B015
:1067200010BD884210B5044605D00B682BB18A68AD
:106730001946FFF7C9FF204610BDFFF79AFFFAE799
:1067400010B500230446C0E9003383600373FFF7EC
:10675000E8FF204610BD13B5044659B10846019123
:1067600001F012FE019902462046FFF7ADFF2046D8
:1067700002B010BDFFF77DFFF9E710B504468AB0FF
:106780000023C4E90033A3602373084601A9FFF77F
:1067900053FF01A92046FFF7DEFF20460AB010BDD7
:1067A00070B505460E4609B9002070BD6AB184680F
:1067B00014442146FFF774FF0028F5D02868AB6821
:1067C0003146184401F0D8FDAC600120EDE707B573
:1067D00000238DF80410012201A98DF80530FFF780
:1067E000DFFF03B05DF804FB10B58A680968044652
:1067F000FFF7D6FF10B92046FFF73BFF204610BD3C
:1068000013B5044629B92046FFF733FF204602B0EE
:1068100010BD0846019101F0B7FD019902462046DE
:10682000FFF7BEFF0028EED0F0E70000024800238B
:106830000360FFF76FBB00BFDCE60320F8B5064638
:106840000D468F180024BD420CD0336815F8011B8B
:106850009B6830469847031E01DB1C44F3E7002C7D
:1068600008BF1C462046F8BD13B50446084659B17A
:10687000019101F089FD23680199DB6802462046F9
:1068800002B0BDE81040184702B010BD08B5FFF7D0
:10689000EBFF08BD03689B68184738B50D21054616
:1068A000FFF7F8FF0A2104462846FFF7F3FF2044CC
:1068B00038BD38B50546FFF7D7FF04462846FFF731
:1068C000ECFF204438BD30B58BB00023012A8DF891
:1068D000243098BF0A2209AC0D46B1FBF2F101FB4E
:1068E000125303F0FF03092B94BF30333733DBB26D
:1068F000AA4204F8013DEFD92146FFF7B5FF0BB0DE
:1069000030BD2DE9F04186B000AF05460E46381D7A
:10691000142114463B60FFF729FD13280ED8391DBA
:106920002846FFF7A1FF04461EB12846FFF7B5FF32
:10693000044420461837BD46BDE8F08100F1080345
:1069400023F00703E846ADEB030D2246411C3B68EC
:106950006846FFF70BFD69462846FFF785FF0446AA
:10696000C546E1E710B50446FFF7C4FAE0602368C6
:1069700020465B699847002808DAFFF7BBFAE3680E
:10698000C01AA3689842F2D34FF0FF3010BD000048
:1069900038B50D4607490446FFF7AFFE2846FFF716
:1069A000E1FF002804DBC1B22046FFF710FFF5E746
:1069B000204638BDA8840B00014B024A1A6070477C
:1069C000E0E60320448C0B00024B1A68024B1A606D
:1069D000704700BF1CE50320E4E603200021FFF719
:1069E00021BC0000014B00229A607047E8E60320BA
:1069F000014B1860704700BF20E5032008B50B4B22
:106A000043B100F081F903681B699847002801DD54
:106A1000AFF30080064B43B100F0C4FE03681B696E
:106A20009847002801DDAFF3008008BD000000009A
:106A30000000000008B5FFF7E1FFFFF75BFA014B2C
:106A4000186008BD40E703200548064A064908B516
:106A5000121A01F043FC054B054A1A6008BD00BF3D
:106A600000F4032004F40320D48F0B0000F403206F
:106A70001E1C279A07B5002300931A466FF0770172
:106A8000FFF7E2FB03B05DF804FB000007B54388A5
:106A90000A2B08D0502B0BD1094B1B684BB103B00C
:106AA0005DF804EB1847FFF7E5FF03B05DF804FB62
:106AB000002300931A466FF07701FFF7C5FBF4E758
:106AC000FCE6032010B512480021FFF767FC114BCC
:106AD0001A68114B9A42114B0CBF012200221A7006
:106AE00001D0FFF7B1FFFFF7EDF9044601F00CFC10
:106AF0000B4B13B12046AFF3008000210848FFF78D
:106B000015FCBDE8104007480021FFF793BB00BF0C
:106B1000F1690B0000F403201E1C279AF8E60320FD
:106B2000000000008D6A0B00704710B51821044664
:106B3000FDF7B5FA204610BDF0B5037D062B8DB0EC
:106B40000E4600F104074FF0000412D000F10805D2
:106B500015F8011D0A223046FFF7B5FEAF42044486
:106B600019D0002CF4D02E213046FFF793FE0444B8
:106B7000EEE72F236A4639460A208DF80040FFF7DA
:106B8000D1F9684601F000FC33680246DB686946CB
:106B900030469847044620460DB0F0BD10B5054B71
:106BA0000446112240F8043B002101F0A5FB2046D9
:106BB00010BD00BF6C8C0B000346074A10B543F8AC
:106BC000042B01F1100251F8044B43F8044B91429D
:106BD000F9D10A781A7010BD6C8C0B00037D042B60
:106BE00004D14068003818BF01207047062B07D138
:106BF00043683BB983682BB9C3681BB90069F1E7E7
:106C0000002070470120704710B59DF8084044EA05
:106C1000032343EA024242EA01610423416003750F
:106C200010BD000007B5064B0360CB7800938B784E
:106C30004A780978FFF7E8FF03B05DF804FB00BF6E
:106C40006C8C0B00417470477047704708B5002189
:106C5000007CFFF7AFFA40EAE07008BD08B50121FB
:106C6000007CFFF7A7FA40EAE07008BD08B5007C99
:106C7000FFF798FA20EAE07008BD08B5007CFFF73E
:106C800089FA20EAE07008BD13B50446007C019142
:106C9000FFF788FA0028019901DC607C20B1207C94
:106CA000FFF790FA20EAE07002B010BD007CFFF719
:106CB00091BA10B514210446FDF7F1F9204610BD34
:106CC00010B54FF47A73044608460021C4E9011355
:106CD000044B23600123207463741146FFF74AFAC2
:106CE000204610BD808C0B00007C0022FFF74ABAC2
:106CF000007CFFF777BA10B514220446002101F09A
:106D0000FBFA204610BD000010B50F4C88B003A858
:106D1000FFF7F1FF2178BFF35B8F11F001010FD175
:106D200020460191FDF7CAF9019948B103AA074825
:106D3000FFF7C6FF2046FDF7C6F9054801F0C8FA7F
:106D4000024808B010BD00BF00E7032004E703209D
:106D5000496C0B0070474174704708B5007CFFF721
:106D600029F920EAE07008BD08B5007CFFF7FAF8C1
:106D700020EAE07008BD08B5007CFFF703F940EA9F
:106D8000E07008BD08B5007CFFF7F4F840EAE07059
:106D900008BD007CFFF7FEB837B5457C04462DB131
:106DA000207C03B0BDE83040FFF7D4B8007C0191EF
:106DB000FFF700F900280199F2DC284603B030BD46
:106DC00010B514210446FDF76AF9204610BD0000F5
:106DD00010B54FF47A730446084611460022C4E900
:106DE0000123044B2360012320746374FFF7EAF846
:106DF000204610BDB08C0B007047F8B5064615460E
:106E00000C468F18BC4206D0336814F8011B9B68EF
:106E100030469847F6E72846F8BD007C0022FFF789
:106E2000F1B8007C0021FFF7F5B8007C0021FFF7E6
:106E3000F9B8007C0021FFF7FDB8007C0021FFF7C6
:106E400001B910B514210446FDF729F9204610BDFB
:106E500038B5044615464FF47A730022C4E901237D
:106E6000094B2174084623602946FFF7FBF8BF3021
:106E700008D16B69DB0705D56868FFF767FAE86832
:106E8000FFF764FA204638BDE08C0B000023007C3D
:106E90001A461946FFF79EB8007C0022FFF7A2B8F9
:106EA000C9B2FFF7F9BF007C0022FFF7A3B80121A8
:106EB000FFF7F9BF13B503688DF80710DC6B0122EB
:106EC0004FF0FF330DF10701A04702B010BD10B421
:106ED0000368DC6B4FF0FF33A4465DF8044B60475A
:106EE00013B5134602688DF80710D46B0DF1070136
:106EF0000122A04702B010BD10B54369B3F8862047
:106F0000B3F884309A42044608D06369B3F8842009
:106F1000511CA3F884101344187910BD03681B6931
:106F200098470028F1D14FF0FF30F6E770474369EA
:106F30001868C043C00F704770470000064B994265
:106F400010B500F10C0405D0084600F091FC0028B3
:106F500008BF0024204610BD3C8C0B0010B5AC21AE
:106F60000446FDF79CF8204610BDAC21FDF797B80C
:106F70002DE9F0414FF0000886B01C46C0F80480AF
:106F800005460E4617464146102202A801F0B4F904
:106F9000631C09D04FF47A73B4FBF3F203FB124481
:106FA000CDE902285C4304946869102300930068CB
:106FB00002AB41F2050240F6FF71FFF75BF80028D3
:106FC00007DAFFF7DBF903686B60002006B0BDE865
:106FD000F0816869002300683A463146FFF76AF895
:106FE000031EEEDB1846F1E730B587B0044601AD6D
:106FF0006846FFF717FE0FCD04340FC42B682370CB
:1070000007B030BD70B54D69054B04468C3544F86A
:10701000043B06460FCD0FC42B682370304670BD6D
:107020006C8C0B002DE9F0439846036893B00D4635
:107030000024DB6A06461746984728466B462246D8
:1070400021460094FEF7FEFE0546002863D1009B12
:10705000002B4BD05B69002B48D006A8FFF79EFDA4
:10706000009B5C696378022B04D1211D06A8FFF701
:10707000BBFF26E00A2B24D11122294601A801F0EA
:107080003BF9A368002B38D004F108030DF1040C80
:10709000183418685968624603C20833A3429446FC
:1070A000F7D1062301A90CA88DF81430FFF784FD51
:1070B0000DF1340CBCE80F0007AC0FC4DCF8003055
:1070C000237006A8FFF78AFD80B1336807ADD3F8B7
:1070D0002090124B0C930FCD0DAC0FC42B68237076
:1070E0003A4643460CA93046C84705460098FEF785
:1070F000A1FE284613B0BDE8F083E368002BC3D19E
:107100004FF6FF70D4F81090FEF714FF8145BBD105
:1071100004F11401AAE72546E8E700BF6C8C0B00D8
:1071200038B543691A68002A054610DAB3F8862094
:10713000B3F884309A420AD103681B699847044621
:1071400028B92B682846DB6A9847204638BD0120BD
:10715000FCE710B54369B3F88620B3F884309A424F
:10716000044605D06369B3F884201344187910BD30
:1071700003681B6998470028F4D14FF0FF30F6E709
:10718000F8B543691746B3F88620B3F884309A42BD
:1071900005460E4616D06969B1F88430B1F88640CC
:1071A000E41ABC4228BF3C46043322461944304608
:1071B00001F094F86A69B2F884302344A2F884306C
:1071C0002046F8BD03681B6998470028E3D14FF0BB
:1071D000FF34F5E742690023A2F884304269A2F83F
:1071E000863070472DE9F0411F4603680C46DB6A84
:1071F0008AB0054616469847237DD5F81480042B9F
:107200000CBF02200A2006220121FEF75BFFC8F80E
:1072100000006B691B68002B08DA2B682846DB6AC4
:107220000024984720460AB0BDE8F0812846FFF7C1
:10723000D1FFB7B1002303A9F8B20393ADF8103022
:10724000FEF738FE0028E8D168690623009300683D
:1072500003AB41F20B0240F6FF71FEF70BFF002873
:10726000DBD11C22002103A801F046F8237D042B6A
:107270001DD14FF407733046ADF80C30FEF762FEB7
:10728000ADF80E006068FEF755FE04906B691C2295
:10729000186803A9FEF7FEFE0028BED104340FCC07
:1072A0006D698C350FC523682B700124BAE740F651
:1072B0001C233046ADF80C30FEF744FE05AEADF8A9
:1072C0000E00231D04F1140718685968324603C2E2
:1072D0000833BB421646F7D1D8E7000030B5426903
:1072E000B2F886308BB004462BB1B2F884209A42B3
:1072F00001D1FFF76FFF61690868002818DBB1F85A
:1073000086507F2D14D804310823C5F1800229440A
:10731000FEF7C8FE002813DD6369B3F886200AB9BA
:10732000A3F884206369B3F886201044A3F886008C
:107330006369B3F88600B3F88430C01A0BB030BD6F
:10734000FFF71CF803680B2BF2D0FFF717F8036860
:107350000B2BEDD020230025CDE90235FFF70EF8E9
:1073600003680193084B0949009302AA2B46322077
:10737000FEF748FF63691868FEF784FE63694FF003
:10738000FF321A60D4E700BF078D0B00008D0B00A1
:1073900010B5436904461868002801DBFEF772FE49
:1073A00063694FF0FF321A606069112200218C304E
:1073B00000F0A2FF2046BDE81040FFF70BBF10B55C
:1073C000002304460160C0F884308830FFF7E6FBF4
:1073D000204610BD73B500234FF47A72C0E9013224
:1073E0000E4A0361026043610446AC200191FCF740
:1073F00052FE051E05F10C0608D00123C5E9013334
:10740000074B01992B603046FFF7D9FF2046C4E9AE
:107410000565FFF7DFFE02B070BD00BF3C8D0B00BD
:10742000208D0B0010B54FF0FF310446FFF7D2FF5F
:10743000204610BD10B504460068002801DBFEF7A9
:1074400021FE204610BD0C30FFF7F4BF002240683B
:107450001146FEF71BBF002240681146FEF736BFFB
:10746000002240681146FEF741BF40680022FEF747
:1074700035BF4068002281F00101FEF71FBF0023E5
:1074800040681A461946FEF711BF002340681A46A5
:107490001946FEF703BF002240681146FEF7E6BE1C
:1074A000406800220221FEF7E9BE002340681A4628
:1074B000FEF7D4BE024B04225A60024A1A6070479B
:1074C00018E70320888D0B00002340681A46FEF75A
:1074D000C5BE406800220221FEF7D0BE00224068EF
:1074E0001146FEF7C3BE002240681146FEF7CEBE2D
:1074F000002340681A461946FEF7D0BE00234068B4
:107500001A461946FEF7D2BE40680021FEF7F6BEC5
:1075100040680021FEF7FABE4068002281F00101B8
:10752000FEF7CCBE40680022FEF7D8BE00224068BD
:107530001146FEF7DBBE002240681146FEF7C6BECC
:107540002DE9F04395B014460D460746FFF726FB9C
:1075500000211C220DA8009100F0CEFE40230C93C8
:1075600020466B460CAA0021FEF76CFC044600285E
:107570004BD1024601216868FEF788FE0221804651
:1075800022466868FEF782FE009E81462146002E54
:107590003BD0002939D17368022B03D00A2B11D0BC
:1075A000F669F4E7B8F1000FFAD0716906A8043162
:1075B00007ADFFF737FB0FCD3C1D0FC42B682370C1
:1075C0004146EDE7B9F1000FEAD07469102201A835
:1075D00000F092FE06238DF8143001AD04F108038B
:1075E0001834186859682A4603C20833A34215465E
:1075F000F7D101A906A807ADFFF7DEFA0FCD3C1DB4
:107600000FC42B6823704946CAE70098FEF712FCA6
:10761000384615B0BDE8F083024B034A1A600022D9
:107620005A60704720E70320C48D0B00232813B550
:1076300002D9002002B010BDA0F10B03022B1AD812
:10764000174C2178BFF35B8F11F001010BD120465D
:107650000191FCF733FD019928B11248FEF7EAFECB
:107660002046FCF730FD0F4B1878FEF763FD00282D
:10767000DFD10120DEE7012809D800F0D3F800218E
:10768000007CFEF7E7FC80F00100C0B2D2E70938C9
:107690000128EED800F086F8007CFEF783FCF2E7C4
:1076A000B4E60320B8E60320232838B504460D4687
:1076B0000AD8FF2908D0FFF7B9FF28B1294620468C
:1076C000BDE83840FEF7D6BB38BD38B504460D4698
:1076D000FEF7D8FBFF2810D0062804D84D2323FA44
:1076E00000F0C30709D42046FFF7A0FF28B12946C0
:1076F0002046BDE83840FEF7CDBB38BD0D2810B59B
:1077000004469CBF0E34A4B22046FFF78FFF50B151
:1077100003212046FEF7A6FB032804D12046BDE83E
:107720001040FEF7BFBB002010BD2DE9F041904690
:107730001F46072406460D46C4F10701B8F1000FA5
:1077400012D147FA01F101F001013046FFF7BDFF08
:1077500001212846FFF7B9FF00212846FFF7B5FFB2
:10776000013CE9D2BDE8F08147FA04F1EBE770474C
:1077700038B5044614252A46002100F0BDFD2580B9
:107780004025074925812846258200F06FF80449E5
:107790006060284600F06AF8E060204638BD00BF0F
:1077A000F88D0B0030B50E4D2978BFF35B8F11F0CB
:1077B000010487B011D12846FCF780FC68B101A80C
:1077C000FFF7D6FF01AA21460648FFF701FB28462E
:1077D000FCF779FC044800F07BFD024807B030BD9F
:1077E00028E703202CE703206F770B007047000089
:1077F00038B50A4B03600123044643610849202041
:1078000000F034F8202560600549A560284600F0A6
:107810002DF8C4E90305204638BD00BF180001005B
:10782000F88D0B0030B50E4D2978BFF35B8F11F04A
:10783000010487B011D12846FCF740FC68B16846C6
:10784000FFF7D6FF6A4621460648FFF701FB2846A8
:10785000FCF739FC044800F03BFD024807B030BD9E
:1078600044E7032048E70320ED770B00FCF715BC45
:10787000014900F0F9B800BF148E0B007FB5002459
:107880001023CDE90234036815469E6912686B46E1
:10789000CDE90044B0479DF8043003F00603062B01
:1078A00003BF009B2B600120204604B070BD0098F0
:1078B000904214BF012006207047000010B5034B12
:1078C0000360044600F0CDF8204610BD548E0B0036
:1078D00010B50446FFF7F2FF20460821FCF7DFFB56
:1078E000204610BD2DE9F0411F46DDE90834DDF8E2
:1078F000188098450646154607D1079900F0B4F858
:1079000018B165710020BDE8F0813946304600F0BD
:10791000ABF80028F6D00123C4F800802571A371CC
:10792000F0E738B515461C4600F09EF820B1082354
:10793000E36006232560237138BD73B505460C4608
:1079400001921E4600F090F850B9032E08D8236823
:10795000019A5B692946204602B0BDE8704018478D
:1079600002B070BD10B5034B03600446FFF7A6FFDD
:10797000204610BDB48E0B0010B50446FFF7F2FF91
:1079800020460C21FCF78BFB204610BDF7B5089F65
:10799000974205460E4614460AD0A8680268089722
:1079A000156A31462246AC4603B0BDE8F040604758
:1079B0001946019300F058F8019B0028EDD00620ED
:1079C00003B0F0BD2DE9F14F0D461946DDE90A4B34
:1079D000DDE90CA681461746984600F045F890B1BF
:1079E000002D3460377109DB61198A450CBF06210F
:1079F0000121B171002001B0BDE8F08F0235F9D14D
:107A00000123B371F6E7544506D15946484600F0C4
:107A10002BF808B17771EDE7D9F808000368CDE9D4
:107A20000CA6CDE90A4BDC693A4643462946A446F2
:107A300001B0BDE8F04F60472DE9F04107460C4624
:107A400015461E46FFF76DFF48B9B86803689F6981
:107A50002A4633462146BC46BDE8F0416047BDE8B2
:107A6000F081704700207047814208B50ED0406811
:107A700003782A2B0CD049680B782A2B08BF0131D8
:107A800000F070FCB0FA80F0400908BD0120FCE76E
:107A90000020FAE781F0004102E000BF83F00043DC
:107AA00030B54FEA41044FEA430594EA050F08BF99
:107AB00090EA020F1FBF54EA000C55EA020C7FEA5D
:107AC000645C7FEA655C00F0E2804FEA5454D4EBDA
:107AD0005555B8BF6D420CDD2C4480EA020281EAA4
:107AE000030382EA000083EA010180EA020281EADC
:107AF0000303362D88BF30BD11F0004F4FEA01312E
:107B00004FF4801C4CEA113102D0404261EB41013C
:107B100013F0004F4FEA03334CEA133302D05242C2
:107B200063EB430394EA050F00F0A780A4F101047E
:107B3000D5F1200E0DDB02FA0EFC22FA05F28018B8
:107B400041F1000103FA0EF2801843FA05F359419E
:107B50000EE0A5F120050EF1200E012A03FA0EFC1D
:107B600028BF4CF0020C43FA05F3C01851EBE37147
:107B700001F0004507D54FF0000EDCF1000C7EEB64
:107B800000006EEB0101B1F5801F1BD3B1F5001FA2
:107B90000CD349085FEA30004FEA3C0C04F10104C1
:107BA0004FEA445212F5800F80F09A80BCF1004FEA
:107BB00008BF5FEA500C50F1000041EB045141EA6C
:107BC000050130BD5FEA4C0C404141EB0101013C35
:107BD00028BFB1F5801FE9D291F0000F04BF014624
:107BE0000020B1FA81F308BF2033A3F10B03B3F1F6
:107BF00020020CDA0C3208DD02F1140CC2F10C0286
:107C000001FA0CF021FA02F10CE002F11402D8BFE3
:107C1000C2F1200C01FA02F120FA0CFCDCBF41EAAF
:107C20000C019040E41AA2BF01EB0451294330BD7E
:107C30006FEA04041F3C1CDA0C340EDC04F114045B
:107C4000C4F1200220FA04F001FA02F340EA030032
:107C500021FA04F345EA030130BDC4F10C04C4F178
:107C6000200220FA02F001FA04F340EA0300294658
:107C700030BD21FA04F0294630BD94F0000F83F4A2
:107C8000801306BF81F480110134013D4EE77FEA85
:107C9000645C18BF7FEA655C29D094EA050F08BFD1
:107CA00090EA020F05D054EA000C04BF19461046B2
:107CB00030BD91EA030F1EBF0021002030BD5FEAF6
:107CC000545C05D14000494128BF41F0004130BD1E
:107CD00014F580043CBF01F5801130BD01F0004572
:107CE00045F0FE4141F470014FF0000030BD7FEAE5
:107CF000645C1ABF194610467FEA655C1CBF0B46E0
:107D0000024650EA013406BF52EA033591EA030FF6
:107D100041F4002130BD00BF90F0000F04BF0021EE
:107D2000704730B54FF4806404F132044FF0000521
:107D30004FF0000150E700BF90F0000F04BF00219A
:107D4000704730B54FF4806404F1320410F0004500
:107D500048BF40424FF000013EE700BF42004FEAFB
:107D6000E2014FEA31014FEA02701FBF12F07F4378
:107D700093F07F4F81F06051704732F07F4208BF2F
:107D8000704793F07F4F04BF41F40021704730B536
:107D90004FF4607401F0004521F000411CE700BF82
:107DA00050EA010208BF704730B54FF000050AE005
:107DB00050EA010208BF704730B511F0004502D506
:107DC000404261EB41014FF4806404F132045FEA08
:107DD000915C3FF4D8AE4FF003025FEADC0C18BFB1
:107DE00003325FEADC0C18BF033202EBDC02C2F1A3
:107DF000200300FA03FC20FA02F001FA03FE40EA35
:107E00000E0021FA02F11444BDE600BF70B54FF038
:107E1000FF0C4CF4E06C1CEA11541DBF1CEA135516
:107E200094EA0C0F95EA0C0F00F0DEF82C4481EA7E
:107E3000030621EA4C5123EA4C5350EA013518BF9E
:107E400052EA033541F4801143F4801338D0A0FB8B
:107E500002CE4FF00005E1FB02E506F00042E0FB38
:107E600003E54FF00006E1FB03569CF0000F18BF3E
:107E70004EF0010EA4F1FF04B6F5007F64F54074E6
:107E800004D25FEA4E0E6D4146EB060642EAC62179
:107E900041EA55514FEAC52040EA5E504FEACE2EE6
:107EA000B4F1FD0C88BFBCF5E06F1ED8BEF1004FE9
:107EB00008BF5FEA500E50F1000041EB045170BD65
:107EC00006F0004646EA010140EA020081EA0301A9
:107ED000B4EB5C04C2BFD4EB0C0541EA045170BDA5
:107EE00041F480114FF0000E013C00F3AB8014F11F
:107EF000360FDEBF002001F0004170BDC4F1000468
:107F0000203C35DA0C341BDC04F11404C4F12005E8
:107F100000FA05F320FA04F001FA05F240EA020043
:107F200001F0004221F0004110EBD37021FA04F679
:107F300042EB06015EEA430E08BF20EAD37070BD33
:107F4000C4F10C04C4F1200500FA04F320FA05F092
:107F500001FA04F240EA020001F0004110EBD37094
:107F600041F100015EEA430E08BF20EAD37070BD04
:107F7000C4F1200500FA05F24EEA020E20FA04F3DD
:107F800001FA05F243EA020321FA04F001F000418C
:107F900021FA04F220EA020000EBD3705EEA430EFD
:107FA00008BF20EAD37070BD94F0000F0FD101F02C
:107FB0000046400041EB010111F4801F08BF013C65
:107FC000F7D041EA060195F0000F18BF704703F0A3
:107FD0000046520043EB030313F4801F08BF013D2A
:107FE000F7D043EA0603704794EA0C0F0CEA1355E6
:107FF00018BF95EA0C0F0CD050EA410618BF52EAA0
:108000004306D1D181EA030101F000414FF00000A5
:1080100070BD50EA410606BF1046194652EA4306B3
:1080200019D094EA0C0F02D150EA013613D195EA27
:108030000C0F05D152EA03361CBF104619460AD16F
:1080400081EA030101F0004141F0FE4141F4700179
:108050004FF0000070BD41F0FE4141F4780170BD69
:1080600070B54FF0FF0C4CF4E06C1CEA11541DBFCE
:108070001CEA135594EA0C0F95EA0C0F00F0A7F8D0
:10808000A4EB050481EA030E52EA03354FEA0131FD
:1080900000F088804FEA03334FF0805545EA131310
:1080A00043EA12634FEA022245EA111545EA1065D8
:1080B0004FEA00260EF000419D4208BF964244F16F
:1080C000FD0404F5407402D25B084FEA3202B61A8E
:1080D00065EB03055B084FEA32024FF480104FF462
:1080E000002CB6EB020E75EB030E22BFB61A7546D6
:1080F00040EA0C005B084FEA3202B6EB020E75EB69
:10810000030E22BFB61A754640EA5C005B084FEAD0
:108110003202B6EB020E75EB030E22BFB61A75469D
:1081200040EA9C005B084FEA3202B6EB020E75EBA8
:10813000030E22BFB61A754640EADC0055EA060E69
:1081400018D04FEA051545EA16754FEA06164FEAAC
:10815000C30343EA52734FEAC2025FEA1C1CC0D158
:1081600011F4801F0BD141EA00014FF000004FF0E5
:10817000004CB6E711F4801F04BF01430020B4F1A6
:10818000FD0C88BFBCF5E06F3FF6AFAEB5EB030C5E
:1081900004BFB6EB020C5FEA500C50F1000041EB5B
:1081A000045170BD0EF0004E4EEA113114EB5C0428
:1081B000C2BFD4EB0C0541EA045170BD41F48011FB
:1081C0004FF0000E013C90E645EA060E8DE60CEA03
:1081D000135594EA0C0F08BF95EA0C0F3FF43BAF20
:1081E00094EA0C0F0AD150EA01347FF434AF95EAD7
:1081F0000C0F7FF425AF104619462CE795EA0C0FBB
:1082000006D152EA03353FF4FDAE1046194622E787
:1082100050EA410618BF52EA43067FF4C5AE50EA61
:1082200041047FF40DAF52EA43057FF4EBAE12E751
:108230004FEA4102B2F1E04324BFB3F5001CDCF188
:10824000FE5C0DD901F0004C4FEAC0024CEA5070C0
:10825000B2F1004F40EB830008BF20F001007047EF
:1082600011F0804F21D113F13872BCBF01F00040F2
:10827000704741F480114FEA5252C2F11802C2F124
:10828000200C10FA0CF320FA02F018BF40F00100A5
:108290004FEAC1234FEAD32303FA0CFC40EA0C0057
:1082A00023FA02F34FEA4303CCE77FEA625307D194
:1082B00050EA01331EBF4FF0FE4040F440007047CB
:1082C00001F0004040F0FE4040F40000704700BF65
:1082D000002301461A46184600F05EB80A4491424F
:1082E00000F1FF3300D1704710B511F8014B03F8CE
:1082F000014F9142F9D110BD02440346934200D18F
:10830000704703F8011BF9E738B5104B1D68AB6BDC
:108310000446B3B91820FEF711F80246A86320B945
:108320000B4B0C484221FEF731F80B490B4BC0E9CF
:1083300000130B4B83600B23838100210120C2E9D2
:108340000401AB6B00221C615A6138BD20E503209B
:10835000ED8E0B00048F0B000E33CDAB34126DE6A7
:10836000ECDE050010F8012B11F8013B012A28BFB3
:108370009A42F7D0D01A7047034611F8012B03F840
:10838000012B002AF9D17047034613F8012B002A6C
:10839000FBD1181A013870472DE9F843DFF8B8808F
:1083A0000646D8F800001F460D46914600F056F8E4
:1083B000254B1C6834B9254C1C60254B13B11B6838
:1083C000C4F8883063681F2B07DDD8F8000000F080
:1083D00047F84FF0FF30BDE8F8834EB3D4F888007B
:1083E00088B91C4B23B9D8F8000000F038F8F0E742
:1083F0004FF48470FDF7A2FF0028F4D00023C0E9F9
:108400004033C4F88800636840F8239001229A4002
:1084100000EB8301D0F800311343C0F80031022E85
:10842000C1F8807002BFD0F804311343C0F80431A2
:108430006368D8F800005A1C0233626044F8235085
:1084400000F00EF80020C6E7E8E703205CE7032011
:10845000000000003D630B0084E503207047704777
:108460007047000021400B005D400B0085400B0071
:1084700089400B000000000043616C6C206F6E208F
:1084800070757265207669727475616C004E6F202C
:108490004368616E6765202D2043616E63656C6C77
:1084A000696E6720434D440A007B226F6E223A7446
:1084B0007275652C22736174223A002C22627269F3
:1084C000223A002C22687565223A007B226F6E22C8
:1084D0003A66616C73657D0053656E64696E6720F2
:1084E000436F6D6D616E6420746F20487565005038
:1084F0005554202F6170692F002F6C696768747361
:108500002F002F737461746520485454502F312EFE
:1085100031006B6565702D616C69766500486F731D
:10852000743A2000436F6E74656E742D4C656E67EF
:1085300074683A2000436F6E74656E742D547970C0
:10854000653A20746578742F706C61696E3B63685E
:1085500061727365743D5554462D380046726F6DD7
:1085600020487565000A4E756D526564203D2025D2
:1085700069204E756D426C7565203D202569000AA5
:10858000636F6C31203D20252E326620636F6C3284
:10859000203D20252E326620636F6C33203D202540
:1085A0002E3266000A506965636553696465203D33
:1085B00020252E3266205069656365536964652005
:1085C0003D20252E326620506965636553696465D8
:1085D000203D20252E32660072656420203D20005B
:1085E000626C7565203D20002070696563652066BA
:1085F0006F756E64000A6B203D2025692069203D5F
:10860000202569206A203D202569004D516C5A7A49
:1086100069524F30576169354D734D486C6C3878ED
:10862000415541517177383551727238744D333735
:10863000463354000000000065F30000CEE6000061
:10864000D2D10000D7BC000040B00000DBA7000082
:108650003139322E3136382E312E35000000FF00F0
:108660002B00D5005500AA0080008000AA0055000C
:10867000D5002B00FF0000000000000000000000FB
:10868000754E0B00054F0B00DD580B003D680B00CD
:10869000794E0B00C1520B00014D0B00914B0B00AA
:1086A0007F530B001D540B0053540B006F540B00F1
:1086B00000000000003E5B4F5B3E3E6B4F6B3E1C7C
:1086C0003E7C3E1C183C7E3C181C577D571C1C5E93
:1086D0007F5E1C00183C1800FFE7C3E7FF0018246A
:1086E0001800FFE7DBE7FF30483A060E2629792914
:1086F00026407F050507407F05253F5A3CE73C5A49
:108700007F3E1C1C08081C1C3E7F14227F22145F25
:108710005F005F5F06097F017F006689956A606080
:1087200060606094A2FFA29408047E040810207E7A
:10873000201008082A1C08081C2A08081E101010FF
:10874000100C1E0C1E0C30383E3830060E3E0E0645
:10875000000000000000005F000000070007001498
:108760007F147F14242A7F2A122313086462364957
:108770005620500008070300001C2241000041223F
:108780001C002A1C7F1C2A08083E08080080703044
:1087900000080808080800006060002010080402B3
:1087A0003E5149453E00427F4000724949494621B9
:1087B00041494D331814127F1027454545393C4A2D
:1087C0004949314121110907364949493646494944
:1087D000291E00001400000040340000000814228C
:1087E00041141414141400412214080201590906FA
:1087F0003E415D594E7C1211127C7F494949363EFB
:10880000414141227F4141413E7F494949417F09E0
:108810000909013E414151737F0808087F00417FEB
:1088200041002040413F017F081422417F404040E9
:10883000407F021C027F7F0408107F3E4141413E81
:108840007F090909063E4151215E7F091929462603
:108850004949493203017F01033F4040403F1F2007
:1088600040201F3F4038403F6314081463030478DE
:1088700004036159494D43007F41414102040810FE
:1088800020004141417F0402010204404040404039
:10889000000307080020545478407F2844443838A7
:1088A00044444428384444287F3854545418000819
:1088B0007E090218A4A49C787F0804047800447DF3
:1088C00040002040403D007F1028440000417F4090
:1088D000007C047804787C080404783844444438E4
:1088E000FC1824241818242418FC7C0804040848C4
:1088F0005454542404043F44243C4040207C1C2015
:1089000040201C3C4030403C44281028444C90906F
:10891000907C4464544C44000836410000007700C9
:1089200000004136080002010204023C2623263CD6
:108930001EA1A161123A4040207A38545455592161
:10894000555579412154547841215554784020544B
:108950005579400C1E527212395555555939545497
:10896000545939555454580000457C410002457D06
:10897000420001457C40F0292429F0F0282528F008
:108980007C545545002054547C547C0A097F49325C
:10899000494949323248484832324A4848303A41D7
:1089A00041217A3A42402078009DA0A07D3944447C
:1089B00044393D4040403D3C24FF2424487E494307
:1089C000662B2FFC2F2BFF0929F620C0887E090378
:1089D00020545479410000447D413048484A32389F
:1089E0004040227A007A0A0A727D0D19317D2629CB
:1089F000292F28262929292630484D4020380808C3
:108A0000080808080808382F10C8ACBA2F102834F6
:108A1000FA00007B000008142A142222142A1408E9
:108A2000AA005500AAAA55AA55AA000000FF0010E6
:108A30001010FF00141414FF001010FF00FF10109E
:108A4000F010F0141414FC001414F700FF0000FFE1
:108A500000FF1414F404FC141417101F10101F103E
:108A60001F1414141F00101010F0000000001F103D
:108A70001010101F10101010F010000000FF101048
:108A800010101010101010FF10000000FF14000054
:108A9000FF00FF00001F10170000FC04F41414175F
:108AA00010171414F404F40000FF00F71414141445
:108AB000141414F700F7141414171410101F101FB7
:108AC000141414F4141010F010F000001F101F0004
:108AD00000001F14000000FC140000F010F0101043
:108AE000FF10FF141414FF141010101F00000000DA
:108AF000F010FFFFFFFFFFF0F0F0F0F0FFFFFF00CE
:108B000000000000FFFF0F0F0F0F0F3844443844E0
:108B10007C2A2A3E147E02020606027E027E026340
:108B2000554941633844443C04407E201E200602DF
:108B30007E020299A5E7A5991C2A492A1C4C7201BC
:108B4000724C304A4D4D303048784830BC625A46FD
:108B50003D3E494949007E0101017E2A2A2A2A2AEE
:108B600044445F444440514A444040444A514000D8
:108B700000FF0103E080FF000008086B6B0836125D
:108B8000362436060F090F060000181800000010E2
:108B900010003040FF0101001F01011E00191D17C8
:108BA00012003C3C3C3C00000000000000000000C3
:108BB000000000000000000000000000DD580B0075
:108BC0003D680B00A5400B00C1520B00E7530B00A2
:108BD00003540B007F530B001D540B0053540B0028
:108BE0006F540B002C01000018000000F40100007D
:108BF0002C010000500000000000000000000000F8
:108C00000B640B0001640B00F7630B00ED630B00BA
:108C1000E1630B00D5630B0009750B0011750B00A8
:108C2000C9630B00C1630B00B7630B00AD630B009E
:108C300041750B0000081018202830380000000093
:108C4000000000006170700025592D256D2D2564F0
:108C50005425483A254D3A2553257A0061736374AB
:108C6000696D65000000000000000000396B0B001A
:108C7000296B0B002B6B0B000000000000000000B4
:108C80004B6C0B00B36C0B00896C0B003D680B0048
:108C90007B6C0B004D6C0B005D6C0B00AD6C0B0026
:108CA0006D6C0B00456C0B00000000000000000024
:108CB000556D0B00C16D0B00996D0B003D680B00ED
:108CC000696D0B00856D0B00776D0B00936D0B00CC
:108CD000576D0B005B6D0B000000000000000000F2
:108CE000F96D0B00436E0B001B6E0B00FB6D0B0050
:108CF000236E0B002B6E0B00336E0B003B6E0B00D4
:108D0000776972696E670072656376206572726F4B
:108D100072203D20256400000000000000000000DB
:108D2000396F0B005D6F0B0047740B006B6F0B000E
:108D30003D6F0B00000000000000000011410B001F
:108D400045410B00B56E0B00CF6E0B00DD720B00C2
:108D5000F96E0B0053710B002D6F0B00E5710B00CA
:108D600025700B0081710B0091730B0021710B00BA
:108D70002F6F0B00E16E0B00716F0B0005700B0085
:108D80000000000000000000AB740B00A1740B0099
:108D900097740B004D740B008B740B007F740B00E9
:108DA00009750B0011750B0073740B006B740B00CD
:108DB00061740B0057740B0041750B00000000003C
:108DC00000000000C9740B00D3740B00DD740B00AD
:108DD000E7740B00F1740B00FD740B0009750B00B8
:108DE00011750B0019750B0025750B002D750B0007
:108DF00037750B0041750B0000537431395F5370A8
:108E00005F6D616B655F7368617265645F746167F4
:108E100000000000548E0B00F98D0B00B48E0B0087
:108E2000288E0B00D88E0B004E31305F5F63787850
:108E3000616269763131375F5F636C6173735F7450
:108E40007970655F696E666F450000000000000084
:108E50001C8E0B00BD780B00D1780B00657A0B00DF
:108E6000657A0B003B790B007D780B0023790B00B2
:108E7000E5780B00AF780B00B48E0B00848E0B00EE
:108E80001C8E0B004E31305F5F63787861626976CB
:108E90003132305F5F73695F636C6173735F7479E4
:108EA00070655F696E666F4500000000000000009D
:108EB000788E0B0065790B0079790B00657A0B00D1
:108EC000657A0B003B790B007D780B00397A0B003B
:108ED000C5790B008D790B00548E0B00E08E0B00D2
:108EE000537439747970655F696E666F00524545D9
:108EF0004E54206D616C6C6F6320737563636565A0
:108F0000646564002F6D6E742F776F726B73706180
:108F100063652F776F726B73706163652F4743438F
:108F20002D31302D706970656C696E652F6A656EC4
:108F30006B696E732D4743432D31302D7069706519
:108F40006C696E652D34385F3230323031313234F5
:108F50005F313630363138303634312F7372632F0B
:108F60006E65776C69622F6E65776C69622F6C69CC
:108F700062632F7374646C69622F72616E642E6316
:108F800000000000E54A0B00255E0B0015640B0095
:108F9000A9650B002D680B00B9690B00C9690B00AE
:108FA000E5690B00B5740B0019760B00000000009A
:108FB000040000001400000003000000474E5500AC
:108FC0005BDD4FEB0B4A1DC0C013502569957454EF
:048FD0004B9819CFD2
:048FD4000000000099
:108FD800C8AF0000E45700008CB9000088130000F7
:108FE80050C30000102700000F00000030000000F0
:108FF8000F0000001F0000000F0000000F0000001D
:109008001F000000300000001F0000001F000000CB
:109018001F0000000F0000003000000030000000BA
:10902800300000001F000000300000000F000000AA
:10903800000103070F1F3F7F0080C0E0F0F8FCFE2F
:109048000000000000000000000000000000000018
:109058000000000000000000000000000000000008
:1090680000000000000000000000000000000000F8
:109078000000000000000000000000000000008068
:1090880080800000000000000000000000000000D8
:10909800008080C0C0000000000000000000000048
:1090A80000000000000000000000000000000000B8
:1090B80000000000000000000000000000000000A8
:1090C8000000000000000000000000000000000098
:1090D8000000000080C0E0F0F8FCF8E000000000AC
:1090E80000000000000000000000000000808080F8
:1090F800808000808000000000808080808000FFE9
:10910800FFFF000000008080808000008080000059
:1091180080FFFF80800080800080808080008080C9
:109128000000000000808000008C8E84000080F821
:10913800F8F88000000000000000000000000000B7
:10914800F0F0F0F0F0F0F0F0F0F0F0F0E0E0C080D7
:1091580000E0FCFEFFFFFF7FFFFFFFFFFF000000B6
:109168000000000000000000000000FEFFC7010131
:10917800010183FFFF00007CFEC70101010183FF9D
:10918800FFFF0038FEC78301010183C7FFFF00000E
:1091980001FFFF010100FFFF0701010100007FFF40
:1091A80080000000FFFF7F0000FFFFFF000001FFBD
:1091B800FFFF0100000000000000000000000000A8
:1091C800030F3F7F7FFFFFFFFFFFFFFFE7C7C78F4B
:1091D8008F9FBFFFFFC3C0F0FFFFFFFFFFFCFCFC3A
:1091E800FCFCFCFCFCF8F8F0F0E0C0000103030311
:1091F800030301030300000000010303030301014B
:10920800030100000001030303030101030300003D
:109218000003030000000303000000000000000139
:10922800030303030301000000010301000000031E
:109238000301000000000000000000000000000022
:1092480000000080C0E0F0F9FFFFFFFFFF3F1F0FA5
:1092580087C7F7FFFF1F1F3DFCF8F8F8F87C7DFF74
:10926800FFFFFFFFFFFFFF7F3F0F070030300000C9
:1092780000000000000000000000000000000000E6
:1092880000000000FEFEFC000000000000000000DE
:1092980000000000000000000000000000E0C00026
:1092A8000000000000000000000030300000000056
:1092B80000000000000000000000000000000000A6
:1092C80000C0FEFFFFFFFFFFFFFFFFFF7F7F3F1F85
:1092D8000F071F7FFFFFF8F8FFFFFFFFFFFEF8E013
:1092E800000000010000000000000000FEFE000079
:1092F80000FCFEFC0C06060EFCF80000F0F81C0E44
:109308000606060CFFFFFF0000FEFE00000000FC42
:10931800FEFC00183C7E66E6CE84000006FFFF06D1
:1093280006FCFEFC0C0606060000FEFE0000C0F867
:10933800FC4E4646464E7C7840183C76E6CECC80BD
:109348000000000000000000000000000000000015
:109358000000000001070F1F1F3F3F3F3F1F0F0383
:109368000000000000000000000000000F0F0000D7
:10937800000F0F0F000000000F0F000003070E0C76
:1093880018180C060F0F0F0000010F0E0C180C0F09
:10939800070100040E0C180C0F070000000F0F0047
:1093A800000F0F0F0000000000000F0F0000000763
:1093B800070C0C181C0C060600040E0C180C0F07E2
:1093C8000000000000000000000000000000000095
:1093D8000000000000000000000000000000000085
:1093E8000000000000000000000000000000000075
:1093F8000000000000000000000000000000000065
:109408000000000000000000000000000000000054
:109418000000000000000000000000000000000044
:109428000000000000000000000000000000000034
:109438000000000000000000000000000000000024
:109448005C8C0B0024E503200000000000000000F5
:109458000000000000000000000000000000000004
:1094680000000000000000000000000000000000F4
:1094780000000000000000000000000000000000E4
:1094880000000000000000000000000000000000D4
:1094980000000000000000000000000000000000C4
:0C94A8000000000000000000ECE70320C2
:1094B400FFFFFFFF00000102030405060708090A75
:1094C4000B0C0D0E0F101112131415161718191A70
:0894D4001B1C1D1E1F202800B7
:0494DC007856341278
:04000003B0004020E9
:00000001FF
