:02000002B0004C
:1040000000400B00B0720B00000006000C0005021F
:084010000401A60F00000000EE
:04401800786C0B00B5
:1040200009480A49884208B505D0094A824202D0A7
:10403000121A02F05DFD0748074A0021121A02F029
:1040400065FD014808BD00BF30E50320E8710B00A5
:10405000D0E50320D0E50320EDE7032070B5074E3F
:10406000074C01F06FF9A41BA4080025AC4200D155
:1040700070BD56F8043B98470135F7E79C710B007B
:10408000C0710B0000F080B908B500F067FBBDE817
:10409000084001F00FB900F047BE00F045BE00F047
:1040A0004BBE0078B0FA80F04009704701230370DE
:1040B000704770B50C1E064615460BDA0A2A09D160
:1040C0002D2101F027F86142EAB23046BDE8704088
:1040D00001F039B82146F7E70EB403B503AB002170
:1040E00053F8042B019301F04CF802B05DF804EB97
:1040F00003B0704738B584690A4B036005467CB14C
:104100006368013B63605BB9236820469B689847FE
:10411000A368013BA3601BB923682046DB6898476E
:10412000284638BD546F0B0010B50446FFF7E2FF78
:1041300020461C21FFF7B3FF204610BD2DE9F041BA
:104140008CB005460F4668467749DDF8488014462E
:104150001E4600F012FFDFF828E27449DEF8003056
:104160007348744ADFF81CC2AB4219D10B68BB42DA
:1041700016D10368A34213D11368B34210D1DCF8FF
:10418000003043450CD101F0FFF96B49FFF7A4FF64
:104190000024684600F0A6FE20460CB0BDE8F08181
:1041A000CEF800500F6004601660CCF80080002F3D
:1041B00000F0B5806149684600F00DFF694608A827
:1041C00000F0FEFE0A22414604A800F016FF04A9F2
:1041D00008A800F049FF5A4900F052FF014668461E
:1041E00000F0DFFE04A800F07DFE08A800F07AFED3
:1041F000694608A800F0E4FE0A22314604A800F04F
:10420000FCFE04A908A800F02FFF4E4900F038FF7B
:104210000146684600F0C5FE04A800F063FE08A849
:1042200000F060FE694608A800F0CAFE0A22214696
:1042300004A800F0E2FE04A908A800F015FF424916
:1042400000F01EFF0146684600F0ABFE04A800F037
:1042500049FE08A800F046FE3C493D480023502294
:1042600001F00CFB0446002893D001F08DF9394988
:1042700000F05FFF01F088F9009900F05AFF36491D
:10428000334800F043FF3549314800F03FFF3449DF
:104290002F4800F03BFF0A222D482946FFF709FF6F
:1042A00030492B4800F045FF2F49294800F041FFD5
:1042B0002E49274800F02AFF2449254800F039FFFD
:1042C0002B49234800F022FF0A220299204800F0DF
:1042D0003AFF1F4800F021FF26491D4800F029FF42
:1042E0001B4800F01AFF0099194800F022FF01F066
:1042F0004BF9214900F01DFF01F046F9144904462D
:1043000008A800F085FF0899204600F012FF08A8D1
:1043100000F0E8FD0E4801F067FC012439E7174979
:10432000684600F058FE97E7A76C0B003CE60320B8
:1043300044E6032034E603208C6C0B00A86C0B00D1
:10434000BA6C0B00C26C0B00D56C0B000B6E0B0033
:10435000D0E50320D76C0B00EE6C0B00E26D0B0078
:10436000F86C0B00016D0B00116D0B001C6D0B0048
:10437000236D0B00346D0B005B6D0B00CA6C0B00E2
:1043800038E6032040E6032030B5344D002395B0D5
:104390001A461946686800F06FFC3822002106A80A
:1043A00002F0B4FB4C2301932D4B02930A2200230D
:1043B000CDE90323194601AA6868059300F07CFC47
:1043C000002368681A46194600F036FC0022686827
:1043D000114600F039FC044618B1012000F03EFF00
:1043E000F4E701F0D1F84FF4165101F0BDF8214681
:1043F000132001F085FD2146122001F081FD2146A8
:10440000112001F07DFD0121082001F079FD01213D
:10441000072001F075FD0121062001F071FD204605
:1044200000F0BEFA42F210750446002000F0B8FA1F
:10443000001B61F10001A84271F1000307D201F0F5
:10444000A3F801F095F810B900F05EFCEDE701F07B
:104450009BF815B0BDE8304001F08AB80CE70320A6
:10446000646D0B002DE9F043DFF89080DFF890C019
:104470001F4F204ED8F800901F4C0023CCF800307E
:104480003B603360042519469E4618461A46B7EE2F
:10449000007AF0EE006A013D1BD0A1460422013AE9
:1044A00012D0F9EC017AF4EE477AF1EE10FA03D16A
:1044B00001304FF0010EF2E7F4EE667AF1EE10FAF9
:1044C000EDD101310123EAE70C3401224FF0030959
:1044D000E1E70AB1C8F80090BEF1000F01D0CCF8B6
:1044E000000003B139600AB103233360BDE8F083F3
:1044F00048E603208CE6032094E6032088E60320A8
:1045000090E6032038B52A4D2C68BCB9012108205B
:1045100001F0F6FC2146072001F0F2FC21460620BE
:1045200001F0EEFC0121082001F0FBFC21460720F0
:1045300001F0F7FC2146062001F0F3FC2C68012C69
:1045400017D10021082001F0DBFC2146072001F0F3
:10455000D7FC0021062001F0D3FC0021082001F047
:10456000E0FC2146072001F0DCFC0021062001F0E0
:10457000D8FC2B68022B19D10021082001F0C0FCC7
:104580000021072001F0BCFC0121062001F0B8FC4D
:104590000021082001F0C5FC0021072001F0C1FC2A
:1045A000BDE838400121062001F0BBBC38BD00BF8A
:1045B00050E60320000000002DE9F047DFF8988165
:1045C000DFF8849162A7D7E90067002386B0C8F8B6
:1045D0000030D8F80030584C022B5ADC574A136090
:1045E000FFF790FF4FF47A7000F038FE002323604D
:1045F0002068022847DC113080B201F0ABFC01F0EA
:10460000A5FF32463B4602F035F902F01BFA256859
:10461000D8F800A04A4907EE900A05EB4502B7EE2C
:10462000007A5244F4EEC77A09EB8200F1EE10FAF8
:1046300001EB82024FEA4503C0ED007AC2ED007A39
:10464000F0EE006A09DDF4EEE67AF1EE10FA04D538
:1046500080ED007A01352560CAE7F4EEE67A2B4456
:104660005344F1EE10FA09EB830302DDC3ED006A57
:10467000F0E7D3ED007AF4EEC77AF1EE10FA44BF1A
:1046800000221A60E6E7D8F800300133C8F800309D
:104690009FE702232A4F2B4E23604FF00C0800F0B7
:1046A00073FF256808FB05758146286801F060FFE7
:1046B00002460B46A868CDE9042301F059FFCDE975
:1046C0000201686801F054FFDDE90423CDE900012F
:1046D00031464846FFF700FD2368013B002B23606D
:1046E000DDDA0223184F194E23604FF00C0800F05A
:1046F0004BFF256808FB05758146286801F038FFE7
:1047000002460B46A868CDE9042301F031FFCDE94C
:104710000201686801F02CFFDDE90423CDE9000106
:1047200031464846FFF7D8FC2368013B002B236045
:10473000DDDA06B0BDE8F08788E6032050E6032006
:1047400054E603206F6D0B0094E60320946D0B007C
:104750000000000000388C408CE60320F7B53E4D89
:104760003E4E3F4CFFF728FFFFF77CFE2A68336878
:104770009A4204DDD31AC3F10303236001E059DB3D
:104780005BD0384F97ED007AF0EE007AB4EE677A9E
:10479000F1EE10FA0DD097ED017AB4EE677AF1EEF2
:1047A00010FA06D097ED027AB4EE677AF1EE10FABD
:1047B0000ED121682C4AFF23009352F82120642354
:1047C00000210320FFF7BAFC41F2883000F046FDDB
:1047D00097ED067AF7EE007AB4EE677AF1EE10FA0A
:1047E0000DD097ED077AB4EE677AF1EE10FA06D0A5
:1047F00097ED087AB4EE677AF1EE10FA1FD1FF2335
:10480000009345F2ED32642301210320FFF796FC6B
:1048100041F2883000F022FD00F0B6FE33682A68CD
:104820001249FFF759FC2368062BC4BF00232360FD
:1048300003B0F0BD9B1A03339FE703239DE7216874
:10484000094AFF23009352F8212064230121032009
:10485000FFF774FCE0E700BF90E6032048E6032082
:104860004CE6032094E6032048E50320C86D0B00C6
:1048700008B5164B0022C3E90022A2F580329A60E7
:10488000032000F0B5F91249124800F076FB124AF5
:10489000124B12681A60124A124812685A60124A81
:1048A00012689A60114A1268DA60114A12681A6135
:1048B000104A12685A61104A12689A6101F0DEF9D2
:1048C000BDE808400D4801F0D9B900BF0CE603204F
:1048D000A76C0B0078E6032008E60320ECE5032034
:1048E0003CE50320D0E5032044E5032034E5032024
:1048F00030E5032038E5032040E5032018E60320D7
:1049000008B5024B1B689B68019308BD6802030051
:1049100008B5024B1B68DB68019308BD6802030001
:1049200008B5024B1B685B68019308BD2C020300AD
:1049300008B5024B1B689B68019308BD2C0203005D
:1049400008B5024B1B68DB68019308BD2C0203000D
:1049500008B5024B1B681B69019308BD2C020300BC
:1049600008B5024B1B681B6B019308BD2C020300AA
:1049700008B5024B1B685B69019308BD6C0203001C
:1049800008B5024B1B685B68019308BD1802030061
:1049900008B5024B1B685B69019308BD1802030050
:1049A00008B5024B1B68DB6D019308BD18020300BC
:1049B00008B5024B1B685B6C019308BD48020300FD
:1049C00008B5024B1B685B69019308BD64020300D4
:1049D00008B5024B1B681B6A019308BD6402030003
:1049E00008B5024B1B689B6A019308BD6402030073
:1049F00008B5024B1B68DB68019308BD3C0203004D
:104A000008B5024B1B681B69019308BD3C020300FB
:104A100008B5024B1B685B69019308BD3C020300AB
:104A200008B5024B1B689B69019308BD3C0203005B
:104A300008B5024B1B68DB69019308BD3C0203000B
:104A400008B5024B1B681B6A019308BD3C020300BA
:104A500008B5024B1B689B6A019308BD3C0203002A
:104A600008B5024B1B681B6C019308BD3C02030098
:104A700008B5024B1B681B6A019308BD280203009E
:104A800008B5024B1B685B6A019308BD280203004E
:104A900008B5024B1B689B6A019308BD28020300FE
:104AA00008B5024B1B68DB6A019308BD28020300AE
:104AB00008B5024B1B681B6B019308BD280203005D
:104AC00008B5024B1B685B6B019308BD280203000D
:104AD00008B5024B1B681B6C019308BD280203003C
:104AE00008B5024B1B689B69019308BD380203009F
:104AF00008B5024B1B68DB69019308BD380203004F
:104B000008B5024B1B681B6A019308BD38020300FD
:104B100008B5024B1B689B6A019308BD380203006D
:104B200008B5024B1B681B6B019308BD38020300DC
:104B300008B5024B1B689B6B019308BD380203004C
:104B400008B5024B1B68DB69019308BD3002030006
:104B500008B5024B1B681B6A019308BD30020300B5
:104B600008B5024B1B681B68019308BD4C0203008B
:104B700008B5024B1B685B68019308BD4C0203003B
:104B800008B5024B1B681B69019308BD4C0203006A
:104B900008B5024B1B685B69019308BD4C0203001A
:104BA00008B5024B1B689B69019308BD4C020300CA
:104BB00008B5024B1B68DB69019308BD4C0203007A
:104BC00008B5024B1B681B6A019308BD4C02030029
:104BD00008B5024B1B689B6A019308BD4C02030099
:104BE00008B5024B1B681B6D019308BD60020300F2
:104BF00008B5024B1B685B68019308BD20020300E7
:104C000008B5024B1B685B69019308BD20020300D5
:104C100008B5034B1B68D3F88830019308BD00002A
:104C20002002030008B5034B1B68D3F894300193AE
:104C300008BD00002002030008B5024B1B685B683A
:104C4000019308BD4002030008B5024B1B689B6836
:104C5000019308BD4002030008B5024B1B68DB68E6
:104C6000019308BD4002030008B5024B1B681B6995
:104C7000019308BD4002030008B5024B1B685B6945
:104C8000019308BD4002030008B5024B1B689B69F5
:104C9000019308BD4002030008B5024B1B68DB69A5
:104CA000019308BD4002030008B5024B1B681B6A54
:104CB000019308BD4002030008B5024B1B689B6AC4
:104CC000019308BD4002030008B5024B1B681B6B33
:104CD000019308BD4002030008B5024B1B685B6BE3
:104CE000019308BD4002030008B5024B1B681B6C12
:104CF000019308BD4002030008B5024B1B685B6CC2
:104D0000019308BD4002030008B5024B1B689B6875
:104D1000019308BD4402030008B5024B1B68DB6B1E
:104D2000019308BD4402030008B5024B1B681B68D1
:104D3000019308BD1C02030008B5024B1B685B68A9
:104D4000019308BD1C02030008B5024B1B689B6859
:104D5000019308BD1C02030008B5024B1B685B6A87
:104D6000019308BD1C02030008B5024B1B68DB6BF6
:104D7000019308BD1C02030008B5024B1B681B6CA5
:104D8000019308BD1C02030008B5024B1B685B6C55
:104D9000019308BD1C020300002240681146FFF782
:104DA00083BF002240681146FFF796BF406800228B
:104DB000FFF78ABF4068002281F00101FFF76CBF56
:104DC000002340681A461946FFF75EBF002340687B
:104DD0001A461946FFF750BF002240681146FFF7F8
:104DE00043BF002240681146FFF72EBF40680022F3
:104DF0000221FFF731BF002340681A46FFF71CBFAE
:104E0000024B03225A60024A1A607047B8E6032038
:104E1000206E0B0010B5044608462170FFF790FE87
:104E200000236360204610BD054B02221A60054B2B
:104E3000054A9A600020C3E90000FFF7D9BE00BF11
:104E4000CCE60320C0E603200000FFFF10B50446B7
:104E500001F0A4FE013823182046834206D90278C7
:104E6000197800F8011B03F80129F6E710BD70B5A9
:104E70000C46911E22291DD8254630B923443022E4
:104E80009D4210D205F8012BFAE7B0FBF2F602FBC7
:104E90001600C1B2092894BF30315731C9B205F8A4
:104EA000011B3046E9E7002320462B70FFF7CEFFB9
:104EB000204670BD0020FCE738B5031E0C461546A1
:104EC0000EDAB3F1004F4FF02D0214BF58421846CE
:104ED00001230A702A461944FFF7C9FF204638BD4E
:104EE0000123F9E710B504460068FFF725FF2046C7
:104EF00010BD10B50446006808B1FFF71DFF002380
:104F0000C4E90133236010BD38B504460D4600687E
:104F10000131FFF719FF10B1C4E90005012038BDC8
:104F200010B50368044623B143688B4201D30120C6
:104F300010BD2046FFF7E8FF0028F9D0A368002B3A
:104F4000F5D122681370F2E737B50D46114601928C
:104F50000446FFF7E5FF019A28B92046FFF7C9FF8D
:104F6000204603B030BDA2602946206801F0C0FD94
:104F70002268A3680021D154F2E7002313B5C0E9E9
:104F8000003304468360037341B10846019101F088
:104F900005FE019902462046FFF7D6FF204602B0E3
:104FA00010BD884210B5044605D00B682BB18A6845
:104FB0001946FFF7C9FF204610BDFFF79AFFFAE731
:104FC00010B500230446C0E9003383600373FFF784
:104FD000E8FF204610BD13B5044659B108460191BB
:104FE00001F0DCFD019902462046FFF7ADFF2046A7
:104FF00002B010BDFFF77DFFF9E710B504468AB097
:105000000023C4E90033A3602373084601A9FFF716
:1050100053FF01A92046FFF7DEFF20460AB010BD6E
:1050200070B505460E4609B9002070BD6AB18468A6
:1050300014442146FFF774FF0028F5D02868AB68B8
:105040003146184401F0A2FDAC600120EDE707B540
:1050500000238DF80410012201A98DF80530FFF717
:10506000DFFF03B05DF804FB10B58A6809680446E9
:10507000FFF7D6FF10B92046FFF73BFF204610BDD3
:1050800013B5044629B92046FFF733FF204602B086
:1050900010BD0846019101F081FD019902462046AC
:1050A000FFF7BEFF0028EED0F0E700000248002323
:1050B0000360FFF77DBC00BFD0E60320F8B50646CD
:1050C0000D468F180024BD420CD0336815F8011B23
:1050D0009B6830469847031E01DB1C44F3E7002C15
:1050E00008BF1C462046F8BD13B50446084659B112
:1050F000019101F053FD23680199DB6802462046C7
:1051000002B0BDE81040184702B010BD08B5FFF767
:10511000EBFF08BD03689B68184738B50D210546AD
:10512000FFF7F8FF0A2104462846FFF7F3FF204463
:1051300038BD38B50546FFF7D7FF04462846FFF7C8
:10514000ECFF204438BD30B58BB00023012A8DF828
:10515000243098BF0A2209AC0D46B1FBF2F101FBE5
:10516000125303F0FF03092B94BF30333733DBB204
:10517000AA4204F8013DEFD92146FFF7B5FF0BB075
:1051800030BD2DE9F04186B000AF05460E46381D12
:10519000142114463B60FFF7DFFD13280ED8391D9C
:1051A0002846FFF7A1FF04461EB12846FFF7B5FFCA
:1051B000044420461837BD46BDE8F08100F10803DD
:1051C00023F00703E846ADEB030D2246411C3B6884
:1051D0006846FFF7C1FD69462846FFF785FF04468C
:1051E000C546E1E710B50446FFF7D2FBE06023684F
:1051F00020465B699847002808DAFFF7C9FBE36897
:10520000C01AA3689842F2D34FF0FF3010BD0000DF
:1052100038B50D4607490446FFF7AFFE2846FFF7AD
:10522000E1FF002804DBC1B22046FFF710FFF5E7DD
:10523000204638BDA76C0B00014B024A1A6070472C
:10524000D4E603205C6E0B00024B1A68024B1A6016
:10525000704700BF64E50320D8E603200021FFF774
:10526000CFBC0000014B00229A607047DCE60320AF
:10527000014B1860704700BF68E5032008B50B4B71
:1052800043B100F081F903681B699847002801DDEC
:10529000AFF30080064B43B100F08EFE03681B693C
:1052A0009847002801DDAFF3008008BD0000000032
:1052B0000000000008B5FFF7E1FFFFF769FB014BB5
:1052C000186008BD40E703200548064A064908B5AE
:1052D000121A01F00DFC054B054A1A6008BD00BF0B
:1052E00000F4032004F40320E4710B0000F4032015
:1052F0001E1C279A07B5002300931A466FF077010A
:10530000FFF790FC03B05DF804FB000007B543888D
:105310000A2B08D0502B0BD1094B1B684BB103B0A3
:105320005DF804EB1847FFF7E5FF03B05DF804FBF9
:10533000002300931A466FF07701FFF773FCF4E740
:10534000F0E6032010B512480021FFF71DFD114BB8
:105350001A68114B9A42114B0CBF012200221A709D
:1053600001D0FFF7B1FFFFF70BFB044601F0D6FBBE
:105370000B4B13B12046AFF3008000210848FFF724
:10538000CBFCBDE8104007480021FFF741BC00BF3F
:1053900071520B0000F403201E1C279AECE6032038
:1053A000000000000D530B00704710B51821044693
:1053B000FEF775FE204610BDF0B5037D062B8DB0BF
:1053C0000E4600F104074FF0000412D000F108056A
:1053D00015F8011D0A223046FFF7B5FEAF4204441E
:1053E00019D0002CF4D02E213046FFF793FE044450
:1053F000EEE72F236A4639460A208DF80040FFF772
:10540000DFFA684601F0CAFB33680246DB6869468A
:1054100030469847044620460DB0F0BD10B5054B08
:105420000446112240F8043B002101F06FFB2046A6
:1054300010BD00BF846E0B000346074A10B543F849
:10544000042B01F1100251F8044B43F8044B914234
:10545000F9D10A781A7010BD846E0B00037D042BFD
:1054600004D14068003818BF01207047062B07D1CF
:1054700043683BB983682BB9C3681BB90069F1E77E
:10548000002070470120704710B59DF8084044EA9D
:10549000032343EA024242EA0161042341600375A7
:1054A00010BD000007B5064B0360CB7800938B78E6
:1054B0004A780978FFF7E8FF03B05DF804FB00BF06
:1054C000846E0B00417470477047704708B5002127
:1054D000007CFFF765FB40EAE07008BD08B50121DC
:1054E000007CFFF75DFB40EAE07008BD08B5007C7A
:1054F000FFF74EFB20EAE07008BD08B5007CFFF71F
:105500003FFB20EAE07008BD13B50446007C019122
:10551000FFF73EFB0028019901DC607C20B1207C74
:10552000FFF746FB20EAE07002B010BD007CFFF7F9
:1055300047BB10B514210446FEF7B1FD204610BD4F
:1055400010B54FF47A73044608460021C4E90113EC
:10555000044B23600123207463741146FFF700FBA2
:10556000204610BD986E0B00007C0022FFF700BBA8
:10557000007CFFF72DBB10B514220446002101F07A
:10558000C5FA204610BD000010B50F4C88B003A826
:10559000FFF7F1FF2178BFF35B8F11F001010FD10D
:1055A00020460191FEF77DFD019948B103AA074805
:1055B000FFF7C6FF2046FEF779FD054801F092FA95
:1055C000024808B010BD00BFF4E60320F8E603204F
:1055D000C9540B0070474174704708B5007CFFF751
:1055E00037FA20EAE07008BD08B5007CFFF708FA3A
:1055F00020EAE07008BD08B5007CFFF711FA40EA28
:10560000E07008BD08B5007CFFF702FA40EAE070E0
:1056100008BD007CFFF70CBA37B5457C04462DB1B8
:10562000207C03B0BDE83040FFF7E2B9007C019177
:10563000FFF70EFA00280199F2DC284603B030BDCE
:1056400010B514210446FEF72AFD204610BD0000C7
:1056500010B54FF47A730446084611460022C4E997
:105660000123044B2360012320746374FFF7F8F9CE
:10567000204610BDC86E0B007047F8B506461546AB
:105680000C468F18BC4206D0336814F8011B9B6887
:1056900030469847F6E72846F8BD007C0022FFF721
:1056A000E7B9007C0021FFF7EBB9007C0021FFF790
:1056B000EFB9007C0021FFF7F3B9007C0021FFF770
:1056C000F7B910B514210446FEF7E9FC204610BDD9
:1056D00038B5044615464FF47A730022C4E9012315
:1056E000094B2174084623602946FFF7F1F9BF30C2
:1056F00008D16B69DB0705D56868FFF71DFBE86813
:10570000FFF71AFB204638BDF86E0B0013B503688F
:105710008DF80710DC6B01224FF0FF330DF107010C
:10572000A04702B010BD10B40368DC6B4FF0FF332C
:10573000A4465DF8044B604713B5134602688DF824
:105740000710D46B0DF107010122A04702B010BD74
:1057500010B54369B3F88620B3F884309A42044602
:1057600008D06369B3F88420511CA3F88410134453
:10577000187910BD03681B6998470028F1D14FF0D4
:10578000FF30F6E7704743691868C043C00F7047A1
:1057900070470000064B994210B500F10C0405D08B
:1057A000084600F06FFC002808BF0024204610BD0A
:1057B000546E0B0010B5AC210446FEF770FC204679
:1057C00010BDAC21FEF76BBC2DE9F0414FF0000895
:1057D00086B01C46C0F8048005460E461746414672
:1057E000102202A801F092F9631C09D04FF47A73D9
:1057F000B4FBF3F203FB1244CDE902285C430494AA
:10580000686910230093006802AB41F2050240F67C
:10581000FF71FFF765F9002807DAFFF7A5FA0368BB
:105820006B60002006B0BDE8F08168690023006865
:105830003A463146FFF774F9031EEEDB1846F1E7EE
:1058400030B587B0044601AD6846FFF72BFE0FCD9B
:1058500004340FC42B68237007B030BD70B54D6998
:10586000054B04468C3544F8043B06460FCD0FC467
:105870002B682370304670BD846E0B002DE9F04319
:105880009846036893B00D460024DB6A0646174627
:10589000984728466B46224621460094FFF738F881
:1058A0000546002863D1009B002B4BD05B69002B81
:1058B00048D006A8FFF7B2FD009B5C696378022B15
:1058C00004D1211D06A8FFF7BBFF26E00A2B24D137
:1058D0001122294601A801F019F9A368002B38D03C
:1058E00004F108030DF1040C183418685968624675
:1058F00003C20833A3429446F7D1062301A90CA89A
:105900008DF81430FFF798FD0DF1340CBCE80F0052
:1059100007AC0FC4DCF80030237006A8FFF79EFD2B
:1059200080B1336807ADD3F82090124B0C930FCDA4
:105930000DAC0FC42B6823703A4643460CA9304681
:10594000C84705460098FEF7DBFF284613B0BDE8C0
:10595000F083E368002BC3D14FF6FF70D4F81090AA
:10596000FFF736F88145BBD104F11401AAE72546BB
:10597000E8E700BF846E0B0038B543691A68002A57
:10598000054610DAB3F88620B3F884309A420AD17B
:1059900003681B699847044628B92B682846DB6AC8
:1059A0009847204638BD0120FCE710B54369B3F89D
:1059B0008620B3F884309A42044605D06369B3F870
:1059C00084201344187910BD03681B699847002888
:1059D000F4D14FF0FF30F6E7F8B543691746B3F856
:1059E0008620B3F884309A4205460E4616D069697F
:1059F000B1F88430B1F88640E41ABC4228BF3C4676
:105A0000043322461944304601F072F86A69B2F84C
:105A100084302344A2F884302046F8BD03681B6913
:105A200098470028E3D14FF0FF34F5E7426900239F
:105A3000A2F884304269A2F8863070472DE9F0411F
:105A40001F4603680C46DB6A8AB00546164698472F
:105A5000237DD5F81480042B0CBF02200A200622D7
:105A60000121FFF765F8C8F800006B691B68002B7F
:105A700008DA2B682846DB6A0024984720460AB0DB
:105A8000BDE8F0812846FFF7D1FFB7B1002303A995
:105A9000F8B20393ADF81030FEF76AFF0028E8D1A2
:105AA000686906230093006803AB41F20B0240F6DD
:105AB000FF71FFF715F80028DBD11C22002103A895
:105AC00001F024F8237D042B1DD14FF407733046D9
:105AD000ADF80C30FEF784FFADF80E006068FEF7FD
:105AE00077FF04906B691C22186803A9FFF708F878
:105AF0000028BED104340FCC6D698C350FC52368E6
:105B00002B700124BAE740F61C233046ADF80C3068
:105B1000FEF766FF05AEADF80E00231D04F1140775
:105B200018685968324603C20833BB421646F7D19B
:105B3000D8E7000030B54269B2F886308BB0044631
:105B40002BB1B2F884209A4201D1FFF76FFF61694F
:105B50000868002818DBB1F886507F2D14D804316E
:105B60000823C5F180022944FEF7D2FF002813DD87
:105B70006369B3F886200AB9A3F884206369B3F88F
:105B800086201044A3F886006369B3F88600B3F852
:105B90008430C01A0BB030BDFFF7E6F803680B2B5A
:105BA000F2D0FFF7E1F803680B2BEDD0202300259E
:105BB000CDE90235FFF7D8F803680193084B09498E
:105BC000009302AA2B463220FFF70AF8636918688F
:105BD000FEF78EFF63694FF0FF321A60D4E700BF13
:105BE0001F6F0B00186F0B0010B54369044618684F
:105BF000002801DBFEF77CFF63694FF0FF321A607B
:105C00006069112200218C3000F080FF2046BDE841
:105C10001040FFF70BBF10B5002304460160C0F829
:105C200084308830FFF7FAFB204610BD73B500239F
:105C30004FF47A72C0E901320E4A03610260436197
:105C40000446AC200191FEF726FA051E05F10C066C
:105C500008D00123C5E90133074B01992B60304679
:105C6000FFF7D9FF2046C4E90565FFF7DFFE02B064
:105C700070BD00BF546F0B00386F0B0010B54FF0B4
:105C8000FF310446FFF7D2FF204610BD10B5044691
:105C90000068002801DBFEF72BFF204610BD0C300A
:105CA000FFF7F4BF002240681146FEF7DDBF002277
:105CB00040681146FEF7F8BF002240681146FFF722
:105CC0000BB840680022FEF7FFBF4068002281F059
:105CD0000101FEF7E1BF002340681A461946FEF7AE
:105CE000D3BF002340681A461946FEF7C5BF0022FD
:105CF00040681146FEF7A8BF406800220221FEF767
:105D0000ABBF002340681A46FEF796BF024B042241
:105D10005A60024A1A6070470CE70320A06F0B001C
:105D2000002340681A46FEF787BF40680022022120
:105D3000FEF792BF002240681146FEF785BF0022A1
:105D400040681146FEF790BF002340681A46194686
:105D5000FEF792BF002340681A461946FEF794BF2B
:105D600040680021FEF7C0BF40680021FEF7C4BFB5
:105D70004068002281F00101FEF78EBF40680022DA
:105D8000FEF7A2BF002240681146FEF7A5BF002221
:105D900040681146FEF788BF2DE9F04395B01446E0
:105DA0000D460746FFF73AFB00211C220DA8009183
:105DB00000F0ACFE40230C9320466B460CAA002159
:105DC000FEF7A6FD044600284BD102460121686873
:105DD000FEF74AFF0221804622466868FEF744FF2C
:105DE000009E81462146002E3BD0002939D17368A0
:105DF000022B03D00A2B11D0F669F4E7B8F1000F9B
:105E0000FAD0716906A8043107ADFFF74BFB0FCD3F
:105E10003C1D0FC42B6823704146EDE7B9F1000F1C
:105E2000EAD07469102201A800F070FE06238DF8F4
:105E3000143001AD04F108031834186859682A4673
:105E400003C20833A3421546F7D101A906A807AD3E
:105E5000FFF7F2FA0FCD3C1D0FC42B6823704946A3
:105E6000CAE70098FEF74CFD384615B0BDE8F08350
:105E7000024B034A1A6000225A60704714E703205D
:105E8000DC6F0B00232813B502D9002002B010BD2F
:105E9000A0F10B03022B1AD8174C2178BFF35B8FAC
:105EA00011F001010BD120460191FEF7FAF801999A
:105EB00028B11248FEF7AEFF2046FEF7F7F80F4B69
:105EC0001878FEF745FE0028DFD10120DEE7012823
:105ED00009D800F0B1F80021007CFEF7F1FD80F058
:105EE0000100C0B2D2E709380128EED800F064F80A
:105EF000007CFEF7A5FDF2E71CE7032020E7032066
:105F0000232838B504460D460AD8FF2908D0FFF7E4
:105F1000B9FF28B129462046BDE83840FEF708BD44
:105F200038BD38B504460D46FEF70AFDFF2810D0EF
:105F3000062804D84D2323FA00F0C30709D42046CD
:105F4000FFF7A0FF28B129462046BDE83840FEF7FC
:105F5000FFBC38BD0D2810B504469CBF0E34A4B25A
:105F60002046FFF78FFF50B103212046FEF7D8FCF3
:105F7000032804D12046BDE81040FEF7F1BC002004
:105F800010BD704738B5044614252A46002100F09C
:105F9000BDFD25804025074925812846258200F042
:105FA0006FF804496060284600F06AF8E060204617
:105FB00038BD00BF10700B0030B50E4D2978BFF30F
:105FC0005B8F11F0010487B011D12846FEF769F804
:105FD00068B101A8FFF7D6FF01AA21460648FFF7DE
:105FE00037FB2846FEF762F8044800F07BFD0248C4
:105FF00007B030BD28E703202CE70320835F0B00A8
:106000007047000038B50A4B036001230446436122
:106010000849202000F034F8202560600549A5607B
:10602000284600F02DF8C4E90305204638BD00BF1E
:106030001800010010700B0030B50E4D2978BFF329
:106040005B8F11F0010487B011D12846FEF729F8C3
:1060500068B16846FFF7D6FF6A4621460648FFF753
:1060600037FB2846FEF722F8044800F03BFD0248C3
:1060700007B030BD44E7032048E7032001600B0070
:10608000FEF70BB8014900F0F9B800BF2C700B0007
:106090007FB500241023CDE90234036815469E69BC
:1060A00012686B46CDE90044B0479DF8043003F018
:1060B0000603062B03BF009B2B600120204604B083
:1060C00070BD0098904214BF012006207047000068
:1060D00010B5034B0360044600F0CDF8204610BD18
:1060E0006C700B0010B50446FFF7F2FF2046082144
:1060F000FDF7D5FF204610BD2DE9F0411F46DDE933
:106100000834DDF8188098450646154607D10799EA
:1061100000F0B4F818B165710020BDE8F08139468F
:10612000304600F0ABF80028F6D00123C4F8008018
:106130002571A371F0E738B515461C4600F09EF8AE
:1061400020B10823E36006232560237138BD73B5B1
:1061500005460C4601921E4600F090F850B9032EF9
:1061600008D82368019A5B692946204602B0BDE839
:106170007040184702B070BD10B5034B0360044671
:10618000FFF7A6FF204610BDCC700B0010B50446EB
:10619000FFF7F2FF20460C21FDF781FF204610BDDE
:1061A000F7B5089F974205460E4614460AD0A868E0
:1061B00002680897156A31462246AC4603B0BDE82E
:1061C000F04060471946019300F058F8019B002801
:1061D000EDD0062003B0F0BD2DE9F14F0D46194674
:1061E000DDE90A4BDDE90CA681461746984600F02A
:1061F00045F890B1002D3460377109DB61198A458B
:106200000CBF06210121B171002001B0BDE8F08F63
:106210000235F9D10123B371F6E7544506D1594649
:10622000484600F02BF808B17771EDE7D9F808007F
:106230000368CDE90CA6CDE90A4BDC693A46434632
:106240002946A44601B0BDE8F04F60472DE9F04172
:1062500007460C4615461E46FFF76DFF48B9B8685D
:1062600003689F692A4633462146BC46BDE8F04193
:106270006047BDE8F081704700207047814208B553
:106280000ED0406803782A2B0CD049680B782A2B53
:1062900008BF013100F070FCB0FA80F0400908BD81
:1062A0000120FCE70020FAE781F0004102E000BF96
:1062B00083F0004330B54FEA41044FEA430594EAC6
:1062C000050F08BF90EA020F1FBF54EA000C55EA01
:1062D000020C7FEA645C7FEA655C00F0E2804FEAD2
:1062E0005454D4EB5555B8BF6D420CDD2C4480EAB4
:1062F000020281EA030382EA000083EA010180EAE4
:10630000020281EA0303362D88BF30BD11F0004F31
:106310004FEA01314FF4801C4CEA113102D0404267
:1063200061EB410113F0004F4FEA03334CEA1333A2
:1063300002D0524263EB430394EA050F00F0A780BA
:10634000A4F10104D5F1200E0DDB02FA0EFC22FAB5
:1063500005F2801841F1000103FA0EF2801843FAA9
:1063600005F359410EE0A5F120050EF1200E012A9A
:1063700003FA0EFC28BF4CF0020C43FA05F3C018D8
:1063800051EBE37101F0004507D54FF0000EDCF151
:10639000000C7EEB00006EEB0101B1F5801F1BD3FA
:1063A000B1F5001F0CD349085FEA30004FEA3C0CFE
:1063B00004F101044FEA445212F5800F80F09A80F4
:1063C000BCF1004F08BF5FEA500C50F1000041EBF8
:1063D000045141EA050130BD5FEA4C0C404141EBFC
:1063E0000101013C28BFB1F5801FE9D291F0000FF7
:1063F00004BF01460020B1FA81F308BF2033A3F1A6
:106400000B03B3F120020CDA0C3208DD02F1140C9C
:10641000C2F10C0201FA0CF021FA02F10CE002F1D7
:106420001402D8BFC2F1200C01FA02F120FA0CFCD0
:10643000DCBF41EA0C019040E41AA2BF01EB045119
:10644000294330BD6FEA04041F3C1CDA0C340EDC17
:1064500004F11404C4F1200220FA04F001FA02F35A
:1064600040EA030021FA04F345EA030130BDC4F118
:106470000C04C4F1200220FA02F001FA04F340EA0D
:106480000300294630BD21FA04F0294630BD94F0BE
:10649000000F83F4801306BF81F480110134013DA5
:1064A0004EE77FEA645C18BF7FEA655C29D094EA16
:1064B000050F08BF90EA020F05D054EA000C04BF94
:1064C0001946104630BD91EA030F1EBF002100207F
:1064D00030BD5FEA545C05D14000494128BF41F01E
:1064E000004130BD14F580043CBF01F5801130BD82
:1064F00001F0004545F0FE4141F470014FF000000D
:1065000030BD7FEA645C1ABF194610467FEA655CBD
:106510001CBF0B46024650EA013406BF52EA03355F
:1065200091EA030F41F4002130BD00BF90F0000F4D
:1065300004BF0021704730B54FF4806404F1320489
:106540004FF000054FF0000150E700BF90F0000F42
:1065500004BF0021704730B54FF4806404F1320469
:1065600010F0004548BF40424FF000013EE700BF39
:1065700042004FEAE2014FEA31014FEA02701FBFC9
:1065800012F07F4393F07F4F81F06051704732F0FB
:106590007F4208BF704793F07F4F04BF41F4002152
:1065A000704730B54FF4607401F0004521F00041B0
:1065B0001CE700BF50EA010208BF704730B54FF03A
:1065C00000050AE050EA010208BF704730B511F03B
:1065D000004502D5404261EB41014FF4806404F173
:1065E00032045FEA915C3FF4D8AE4FF003025FEAF9
:1065F000DC0C18BF03325FEADC0C18BF033202EB7D
:10660000DC02C2F1200300FA03FC20FA02F001FAD6
:1066100003FE40EA0E0021FA02F11444BDE600BF79
:1066200070B54FF0FF0C4CF4E06C1CEA11541DBF28
:106630001CEA135594EA0C0F95EA0C0F00F0DEF8F3
:106640002C4481EA030621EA4C5123EA4C5350EAD8
:10665000013518BF52EA033541F4801143F4801329
:1066600038D0A0FB02CE4FF00005E1FB02E506F0BA
:106670000042E0FB03E54FF00006E1FB03569CF00F
:10668000000F18BF4EF0010EA4F1FF04B6F5007F15
:1066900064F5407404D25FEA4E0E6D4146EB060687
:1066A00042EAC62141EA55514FEAC52040EA5E5010
:1066B0004FEACE2EB4F1FD0C88BFBCF5E06F1ED8BA
:1066C000BEF1004F08BF5FEA500E50F1000041EBF1
:1066D000045170BD06F0004646EA010140EA02009E
:1066E00081EA0301B4EB5C04C2BFD4EB0C0541EAC0
:1066F000045170BD41F480114FF0000E013C00F3D5
:10670000AB8014F1360FDEBF002001F0004170BDF8
:10671000C4F10004203C35DA0C341BDC04F1140411
:10672000C4F1200500FA05F320FA04F001FA05F29D
:1067300040EA020001F0004221F0004110EBD3706A
:1067400021FA04F642EB06015EEA430E08BF20EA96
:10675000D37070BDC4F10C04C4F1200500FA04F339
:1067600020FA05F001FA04F240EA020001F00041CB
:1067700010EBD37041F100015EEA430E08BF20EA3E
:10678000D37070BDC4F1200500FA05F24EEA020E86
:1067900020FA04F301FA05F243EA020321FA04F0B5
:1067A00001F0004121FA04F220EA020000EBD3706C
:1067B0005EEA430E08BF20EAD37070BD94F0000F6C
:1067C0000FD101F00046400041EB010111F4801FA0
:1067D00008BF013CF7D041EA060195F0000F18BF51
:1067E000704703F00046520043EB030313F4801F8D
:1067F00008BF013DF7D043EA0603704794EA0C0F47
:106800000CEA135518BF95EA0C0F0CD050EA41065C
:1068100018BF52EA4306D1D181EA030101F00041D9
:106820004FF0000070BD50EA410606BF1046194601
:1068300052EA430619D094EA0C0F02D150EA01360D
:1068400013D195EA0C0F05D152EA03361CBF10464E
:1068500019460AD181EA030101F0004141F0FE41ED
:1068600041F470014FF0000070BD41F0FE4141F471
:10687000780170BD70B54FF0FF0C4CF4E06C1CEA71
:1068800011541DBF1CEA135594EA0C0F95EA0C0F26
:1068900000F0A7F8A4EB050481EA030E52EA0335E1
:1068A0004FEA013100F088804FEA03334FF0805502
:1068B00045EA131343EA12634FEA022245EA11152F
:1068C00045EA10654FEA00260EF000419D4208BFE0
:1068D000964244F1FD0404F5407402D25B084FEA8D
:1068E0003202B61A65EB03055B084FEA32024FF439
:1068F00080104FF4002CB6EB020E75EB030E22BF96
:10690000B61A754640EA0C005B084FEA3202B6EB55
:10691000020E75EB030E22BFB61A754640EA5C0004
:106920005B084FEA3202B6EB020E75EB030E22BF94
:10693000B61A754640EA9C005B084FEA3202B6EB95
:10694000020E75EB030E22BFB61A754640EADC0054
:1069500055EA060E18D04FEA051545EA16754FEAB6
:1069600006164FEAC30343EA52734FEAC2025FEAD4
:106970001C1CC0D111F4801F0BD141EA00014FF063
:1069800000004FF0004CB6E711F4801F04BF014334
:106990000020B4F1FD0C88BFBCF5E06F3FF6AFAE50
:1069A000B5EB030C04BFB6EB020C5FEA500C50F1E0
:1069B000000041EB045170BD0EF0004E4EEA113163
:1069C00014EB5C04C2BFD4EB0C0541EA045170BD6A
:1069D00041F480114FF0000E013C90E645EA060EAE
:1069E0008DE60CEA135594EA0C0F08BF95EA0C0FDC
:1069F0003FF43BAF94EA0C0F0AD150EA01347FF424
:106A000034AF95EA0C0F7FF425AF104619462CE7FA
:106A100095EA0C0F06D152EA03353FF4FDAE10465D
:106A2000194622E750EA410618BF52EA43067FF4AE
:106A3000C5AE50EA41047FF40DAF52EA43057FF43E
:106A4000EBAE12E74FEA4102B2F1E04324BFB3F5E7
:106A5000001CDCF1FE5C0DD901F0004C4FEAC002D5
:106A60004CEA5070B2F1004F40EB830008BF20F0B9
:106A70000100704711F0804F21D113F13872BCBF73
:106A800001F00040704741F480114FEA5252C2F1C8
:106A90001802C2F1200C10FA0CF320FA02F018BF11
:106AA00040F001004FEAC1234FEAD32303FA0CFC64
:106AB00040EA0C0023FA02F34FEA4303CCE77FEAF3
:106AC000625307D150EA01331EBF4FF0FE4040F43D
:106AD0004000704701F0004040F0FE4040F40000EC
:106AE000704700BF002301461A46184600F05EB802
:106AF0000A44914200F1FF3300D1704710B511F8FC
:106B0000014B03F8014F9142F9D110BD02440346F5
:106B1000934200D1704703F8011BF9E738B5104BD9
:106B20001D68AB6B0446B3B91820FEF7FDF80246AA
:106B3000A86320B90B4B0C484221FEF71DF90B4905
:106B40000B4BC0E900130B4B83600B2383810021A7
:106B50000120C2E90401AB6B00221C615A6138BDFF
:106B600068E5032005710B001C710B000E33CDABE3
:106B700034126DE6ECDE050010F8012B11F8013B34
:106B8000012A28BF9A42F7D0D01A7047034611F85D
:106B9000012B03F8012B002AF9D17047034613F8A3
:106BA000012B002AFBD1181A013870472DE9F84350
:106BB000DFF8B8800646D8F800001F460D4691461B
:106BC00000F056F8254B1C6834B9254C1C60254B49
:106BD00013B11B68C4F8883063681F2B07DDD8F831
:106BE000000000F047F84FF0FF30BDE8F8834EB3E7
:106BF000D4F8880088B91C4B23B9D8F8000000F0FD
:106C000038F8F0E74FF48470FEF78EF80028F4D0DF
:106C10000023C0E94033C4F88800636840F823903B
:106C200001229A4000EB8301D0F800311343C0F8F1
:106C30000031022EC1F8807002BFD0F80431134336
:106C4000C0F804316368D8F800005A1C023362604F
:106C500044F8235000F00EF80020C6E7E8E70320D0
:106C60005CE7032000000000294D0B00CCE5032069
:106C7000704770477047000021400B005D400B00DB
:106C800085400B0089400B00000000004E6F204340
:106C900068616E6765202D2043616E63656C6C6969
:106CA0006E6720434D440A007B226F6E223A747255
:106CB00075652C22736174223A002C22627269225B
:106CC0003A002C22687565223A007B226F6E223AC8
:106CD00066616C73657D0053656E64696E67204301
:106CE0006F6D6D616E6420746F204875650050553E
:106CF00054202F6170692F002F6C69676874732F9F
:106D0000002F737461746520485454502F312E3114
:106D1000006B6565702D616C69766500486F7374F2
:106D20003A2000436F6E74656E742D4C656E677407
:106D3000683A2000436F6E74656E742D54797065E7
:106D40003A20746578742F706C61696E3B6368617A
:106D5000727365743D5554462D380046726F6D2030
:106D600048756500496F544E6574776F726B000A01
:106D7000636F6C31203D20252E326620636F6C32AC
:106D8000203D20252E326620636F6C33203D202568
:106D90002E3266000A506965636553696465203D5B
:106DA00020252E326620506965636553696465202D
:106DB0003D20252E32662050696563655369646500
:106DC000203D20252E3266000A4E756D52656420E6
:106DD0003D202569204E756D426C7565203D20254E
:106DE00069004D516C5A7A69524F30576169354D7F
:106DF000734D486C6C387841554151717738355135
:106E0000727238744D3337463354003139322E3173
:106E100036382E312E350000000000000000000042
:106E2000F74D0B00ED4D0B00E34D0B00D94D0B0062
:106E3000CD4D0B00C14D0B00615D0B00695D0B007A
:106E4000B54D0B00AD4D0B00A34D0B00994D0B0044
:106E5000995D0B00000000000000000061707000F0
:106E600025592D256D2D25645425483A254D3A2563
:106E700053257A0061736374696D6500000000003A
:106E800000000000B9530B00A9530B00AB530B00DB
:106E90000000000000000000CB540B0033550B0035
:106EA00009550B00BD500B00FB540B00CD540B00DB
:106EB000DD540B002D550B00ED540B00C5540B0099
:106EC0000000000000000000D5550B0041560B00EB
:106ED00019560B00BD500B00E9550B0005560B0071
:106EE000F7550B0013560B00D7550B00DB550B0065
:106EF000000000000000000079560B00C3560B0094
:106F00009B560B007B560B00A3560B00AB560B0099
:106F1000B3560B00BB560B00776972696E6700723F
:106F2000656376206572726F72203D2025640000D3
:106F3000000000000000000091570B00B5570B0047
:106F40009F5C0B00C3570B0095570B00000000001F
:106F500000000000F5400B0029410B000D570B000D
:106F600027570B00355B0B0051570B00AB590B003B
:106F700085570B003D5A0B007D580B00D9590B006B
:106F8000E95B0B0079590B0087570B0039570B0051
:106F9000C9570B005D580B00000000000000000006
:106FA000035D0B00F95C0B00EF5C0B00A55C0B00B4
:106FB000E35C0B00D75C0B00615D0B00695D0B00AF
:106FC000CB5C0B00C35C0B00B95C0B00AF5C0B002F
:106FD000995D0B000000000000000000215D0B0027
:106FE0002B5D0B00355D0B003F5D0B00495D0B0019
:106FF000555D0B00615D0B00695D0B00715D0B0061
:107000007D5D0B00855D0B008F5D0B00995D0B00B6
:1070100000537431395F53705F6D616B655F7368E6
:10702000617265645F746167000000006C700B0042
:1070300011700B00CC700B0040700B00F0700B0057
:107040004E31305F5F637878616269763131375FE6
:107050005F636C6173735F747970655F696E666F8F
:10706000450000000000000034700B00D1600B00F0
:10707000E5600B0079620B0079620B004F610B0039
:1070800091600B0037610B00F9600B00C3600B00CF
:10709000CC700B009C700B0034700B004E31305FD5
:1070A0005F637878616269763132305F5F73695F00
:1070B000636C6173735F747970655F696E666F4549
:1070C000000000000000000090700B0079610B00D0
:1070D0008D610B0079620B0079620B004F610B0030
:1070E00091600B004D620B00D9610B00A1610B0098
:1070F0006C700B00F8700B00537439747970655F15
:10710000696E666F005245454E54206D616C6C6F20
:107110006320737563636565646564002F6D6E74C9
:107120002F776F726B73706163652F776F726B73FC
:10713000706163652F4743432D31302D7069706551
:107140006C696E652F6A656E6B696E732D4743437C
:107150002D31302D706970656C696E652D34385F26
:1071600032303230313132345F31363036313830CE
:107170003634312F7372632F6E65776C69622F6EB0
:1071800065776C69622F6C6962632F7374646C69D4
:10719000622F72616E642E630000000071480B0064
:1071A000014E0B00294E0B00AD500B0039520B0065
:1071B00049520B0065520B000D5D0B00715E0B0018
:1071C000040000001400000003000000474E5500BA
:1071D000DCC974B5904CDEDCBCC775266606ECD005
:0471E0001DDCA843C7
:0471E40000000000A7
:1071E800C8AF0000E45700008CB900008813000005
:1071F80050C30000102700000000000065F30000E5
:10720800CEE60000D2D10000D7BC000040B000009C
:10721800DBA70000746E0B006CE503200000000083
:107228000000000000000000000000000000000056
:107238000000000000000000000000000000000046
:107248000000000000000000000000000000000036
:107258000000000000000000000000000000000026
:107268000000000000000000000000000000000016
:10727800000000000000000000000000ECE7032010
:10728800FFFFFFFF00000102030405060708090AC3
:107298000B0C0D0E0F101112131415161718191ABE
:0872A8001B1C1D1E1F20280005
:0472B00078563412C6
:04000003B0004020E9
:00000001FF
