:02000002B0004C
:1040000000400B009C9A0B00000006000C0005020B
:084010000401A60F00000000EE
:04401800B0860B0063
:10401C0009480A49884208B505D0094A824202D0AB
:10402C00121A04F07BFA0748074A0021121A04F00E
:10403C0083FA014808BD00BF94E0032078950B007B
:10404C0090E5032090E50320EDE7032070B5074EC3
:10405C00074C02F057FEA41BA4080025AC4200D16B
:10406C0070BD56F8043B98470135F7E728950B00CF
:10407C0050950B0000F052BA08B500F089FDBDE870
:10408C00084002F0F7BD02F069BA02F067BA02F01C
:10409C006DBA000008B5034A03490C2002F0B2F9CE
:1040AC00FEE700BFF1600B00C4860B000078B0FA8D
:1040BC0080F04009704701230370704770B50C1EE7
:1040CC00064615460BDA0A2A09D12D2102F002FD0B
:1040DC006142EAB23046BDE8704002F014BD2146A0
:1040EC00F7E70EB403B503AB002153F8042B01938F
:1040FC0002F027FD02B05DF804EB03B0704700003E
:10410C0038B584690A4B036005467CB16368013B92
:10411C0063605BB9236820469B689847A368013BA2
:10412C00A3601BB923682046DB689847284638BD36
:10413C00E0920B0010B50446FFF7E2FF20461C216D
:10414C00FFF7A5FF204610BD2DE9F0418CB00546C8
:10415C000F4668467749DDF8488014461E4602F043
:10416C00DCFBDFF828E27449DEF800307348744A4F
:10417C00DFF81CC2AB4219D10B68BB4216D10368E5
:10418C00A34213D11368B34210D1DCF8003043457D
:10419C000CD102F0D9FE6B49FFF7A3FF002468464F
:1041AC0002F070FB20460CB0BDE8F081CEF8005058
:1041BC000F6004601660CCF80080002F00F0B58012
:1041CC006149684602F0D7FB694608A802F0C8FBB3
:1041DC000A22414604A802F0E0FB04A908A802F058
:1041EC0024FC5A4902F02DFC0146684602F0A9FB5A
:1041FC0004A802F047FB08A802F044FB694608A893
:10420C0002F0AEFB0A22314604A802F0C6FB04A958
:10421C0008A802F00AFC4E4902F013FC014668465D
:10422C0002F08FFB04A802F02DFB08A802F02AFB79
:10423C00694608A802F094FB0A22214604A802F061
:10424C00ACFB04A908A802F0F0FB424902F0F9FB10
:10425C000146684602F075FB04A802F013FB08A89F
:10426C0002F010FB3C493D480023502202F0FAFFBB
:10427C000446002893D002F067FE394902F039FC5D
:10428C0002F062FE009902F034FC3649334802F029
:10429C001DFC3549314802F019FC34492F4802F015
:1042AC0015FC0A222D482946FFF708FF30492B48F8
:1042BC0002F01FFC2F49294802F01BFC2E4927480D
:1042CC0002F004FC2449254802F013FC2B49234836
:1042DC0002F0FCFB0A220299204802F014FC1F4851
:1042EC0002F0FBFB26491D4802F003FC1B4802F0C0
:1042FC00F4FB0099194802F0FCFB02F025FE214961
:10430C0002F0F7FB02F020FE1449044608A802F064
:10431C005FFC0899204602F0ECFB08A802F0B2FA08
:10432C000E4803F055F9012439E71749684602F0A5
:10433C0022FB97E790890B00FCE5032004E60320A1
:10434C00F4E50320D9860B00F5860B0007870B00DC
:10435C000F870B0022870B00F48B0B0090E50320DA
:10436C0024870B003B870B00AF8B0B0045870B00A2
:10437C004E870B0077890B005E870B0065870B005F
:10438C0076870B009D870B0017870B00F8E5032041
:10439C0000E603201FB525490446684602F0BDFA25
:1043AC0002F0D2FD22462249FFF79BFE21496846C6
:1043BC0002F01DFB204A2149128851F82410204894
:1043CC00002302F04FFF28B31E491D4802F091FB59
:1043DC001D491B4802F08DFB1C49194802F089FB52
:1043EC001B49174802F085FB1A49154802F06EFB71
:1043FC00029913480A2202F086FB114802F06DFB69
:10440C000F4802F06AFB00990D4802F05FFB0C4864
:10441C0002F063FB0A4802F0A3FF10B1084803F056
:10442C00D7F8684602F02EFA04B010BD90890B0044
:10443C00A6870B00B4870B0010E10320FCE00320DF
:10444C00D8E50320E0880B0008890B002E890B00AF
:10445C006B890B0065870B001FB525490446684620
:10446C0002F05BFA02F070FD22462249FFF739FE9A
:10447C002149684602F0BBFA204A2149128851F8BA
:10448C0024102048002302F0EDFE28B31E491D48DD
:10449C0002F02FFB1D491B4802F02BFB1C4919484D
:1044AC0002F027FB1B49174802F023FB1A49154859
:1044BC0002F00CFB029913480A2202F024FB11486B
:1044CC0002F00BFB0F4802F008FB00990D4802F0BC
:1044DC00FDFA0C4802F001FB0A4802F041FF10B152
:1044EC00084803F075F8684602F0CCF904B010BD2A
:1044FC0090890B0082890B0091890B0010E103203D
:10450C00FCE00320D8E50320E0880B0008890B00B1
:10451C002E890B006B890B0065870B0030B53D4D68
:10452C00002395B01A461946686801F0BFFF38227F
:10453C00002106A804F000F84C230193364B02939B
:10454C000A220023CDE90323194601AA68680593C2
:10455C0001F0CCFF002368681A46194601F086FF6B
:10456C0000226868114601F089FF044618B1012049
:10457C0002F054FBF4E70821284801F034FD2748E9
:10458C0001F042FB3C220221254800F0C9FE2448E0
:10459C0000F0DEFD224800F053FE02F0D5FC4FF493
:1045AC00165102F0C1FC204601F0B4FD42F2107528
:1045BC000446002001F0AEFD001B61F10001A84291
:1045CC0071F1000307D202F0BFFC02F0B1FC10B98C
:1045DC0001F0B4FFEDE702F0B7FC02F0A9FC0021FA
:1045EC00132003F081F90021122003F07DF9002142
:1045FC00112003F079F90121082003F075F901214C
:10460C00072003F071F90121062015B0BDE83040F8
:10461C0003F06AB918E70320BD8A0B0078E6032083
:10462C0038E603202DE9F843DFF8CC802D4C2E4DD5
:10463C00DFF8C8C0D8F800902C4E002323602B6004
:10464C00CCF80030042719469E4618461A46B7EE99
:10465C00007AF0EE006A013F1BD0B1460422013A09
:10466C0012D0F9EC017AF4EE477AF1EE10FA03D19C
:10467C0001304FF0010EF2E7F4EE667AF1EE10FA2B
:10468C00EDD101310123EAE70C3601224FF0030989
:10469C00E1E70AB1C8F80090BEF1000F00D020602D
:1046AC0003B1296012B10323CCF8003022682B68C7
:1046BC009A4205DDD31AC3F103030D4A136001E0DE
:1046CC0009DB0BD002F040FC2B6822680949FFF78C
:1046DC0008FDBDE8F8839B1A0333EEE7044B032275
:1046EC001A60EFE7B0E603202CE603208CE60320EB
:1046FC0030E60320C88A0B006CE6032070E603202A
:10470C0038B52A4D2C68BCB90121082003F0ECF80F
:10471C002146072003F0E8F82146062003F0E4F8D0
:10472C000121082003F0F1F82146072003F0EDF8F1
:10473C002146062003F0E9F82C68012C17D1002142
:10474C00082003F0D1F82146072003F0CDF8002112
:10475C00062003F0C9F80021082003F0D6F8214602
:10476C00072003F0D2F80021062003F0CEF82B68C6
:10477C00022B19D10021082003F0B6F800210720E4
:10478C0003F0B2F80121062003F0AEF80021082056
:10479C0003F0BBF80021072003F0B7F8BDE8384060
:1047AC000121062003F0B1B838BD00BF34E6032068
:1047BC002DE9F047DFF88C815B4FDFF88091002307
:1047CC0086B0C8F800300026D8F80030574C022BC1
:1047DC0056DC574A1360FFF793FF002323602068D1
:1047EC00022847DC113080B203F0A8F803F0C4FBB8
:1047FC0032463B4603F054FD03F03AFE2568D8F8E8
:10480C0000A04C4907EE900A05EB4502B7EE007A82
:10481C005244F4EEC77A09EB8200F1EE10FA01EB88
:10482C0082024FEA4503C0ED007AC2ED007AF0EE49
:10483C00006A09DDF4EEE67AF1EE10FA04D580EDAB
:10484C00007A01352560CAE7F4EEE67A2B4453442E
:10485C00F1EE10FA09EB830302DDC3ED006AF0E719
:10486C00D3ED007AF4EEC77AF1EE10FA44BF0022D1
:10487C001A60E6E7D8F800300133C8F80030A3E737
:10488C0002232C4F2C4E23604FF00C0802F05CFBE3
:10489C00256808FB05758146286803F07FFB0246F6
:1048AC000B46A868CDE9042303F078FBCDE902019F
:1048BC00686803F073FBDDE90423CDE900013146A0
:1048CC004846FFF70EFC2368013B002B2360DDDA22
:1048DC0002231A4F1A4E23604FF00C0802F034FBDF
:1048EC00256808FB05758146286803F057FB0246CE
:1048FC000B46A868CDE9042303F050FBCDE9020177
:10490C00686803F04BFBDDE90423CDE90001314677
:10491C004846FFF7E6FB2368013B002B2360DDDAFA
:10492C0006B0BDE8F08700BF009886406CE6032017
:10493C0034E6032008E60320E28A0B008CE6032011
:10494C00078B0B0070E603207FB53B4C20460125FE
:10495C00392600F0FDFB0623CDE900651A46194601
:10496C00204600F0B5FDCDE90065334631462046C2
:10497C00062200F0ADFD0621009133460A46204682
:10498C00019500F0A5FDCDE9006533463246204681
:10499C001026062100F09CFD33462046019500961A
:1049AC000722182100F042FE33462046CDE900656F
:1049BC001822072100F03AFE33462046CDE9006567
:1049CC001822292100F032FE334629222046CDE957
:1049DC000065182100F02AFE2946204601F0C0F897
:1049EC002946204601F0B7F832462046442101F012
:1049FC00AFF812492046FFF774FB2B2220464421C6
:104A0C0001F0A6F80E492046FFF76BFB20460095F7
:104A1C0004231222762100F0E0FE31237A22CDE924
:104A2C00012300930395722329227621204600F05E
:104A3C00FAFE04B070BD00BF38E603203B8B0B00C0
:104A4C00438B0B002DE9F0433F4EDFF81481002718
:104A5C0085B037603D4D3E4CDFF8089100232B604C
:104A6C00236022683368022A66DC02EB42021A4495
:104A7C0008EB820292ED007AF7EE007AB4EE677AD8
:104A8C00F1EE10FA87F0010714D12968314806229B
:104A9C0053434A1C1A441944BBB239F9211039F951
:104AAC0022200093042300F098FE02F04DFA2A49CC
:104ABC00FFF717FB2368326803EB4303134408EB3F
:104ACC00830393ED007AF0EE007AB4EE677AF1EEA0
:104ADC0010FA21D12868062353431A1801300344D5
:104AEC0059F8221039F8232088B2A0F1040C131DB8
:104AFC0004301BB200B2043ACDE9003009B2CDE962
:104B0C00023714480FFA8CF312B200F08CFE02F04C
:104B1C001BFA1149FFF7E5FA02F016FA3368009315
:104B2C002A6823680D49FFF7DCFA2B6802332B60E7
:104B3C0023680133236094E70133022B336089DD52
:104B4C0005B0BDE8F08300BF70E6032074E60320D7
:104B5C006CE6032038E603204B8B0B00588B0B00C4
:104B6C008CE60320ACE00320F8B5084E04460D4655
:104B7C001746AC4209DAA1B23A46304601F0F0F9D8
:104B8C00304601F041F80134F3E7F8BD78E6032034
:104B9C00F7B5504D504CFFF70BFEFFF743FDFFF7F9
:104BAC00D3FEFFF74FFF4D4800F04AFB95ED007A1E
:104BBC00F0EE007AB4EE677AF1EE10FA0DD095EDC6
:104BCC00017AB4EE677AF1EE10FA06D095ED027A1E
:104BDC00B4EE677AF1EE10FA1DD100232360FF26A4
:104BEC00206806280ADCFF2300964AF2DB720121BA
:104BFC00FFF7AAFA236801332360F1E7FF220C21A7
:104C0C000020FFF7B1FF364B1868FFF7C3FB41F2EA
:104C1C00883002F003F895ED067AF7EE007AB4EEE0
:104C2C00677AF1EE10FA0DD095ED077AB4EE677A4B
:104C3C00F1EE10FA06D095ED087AB4EE677AF1EE43
:104C4C0010FA20D100232360FF252068062809DCF8
:104C5C00FF23009500220121FFF776FA2368013328
:104C6C002360F2E74FF47F020C210020FFF77CFF5A
:104C7C001C4B1868FFF78EFB41F2883003B0BDE87F
:104C8C00F04001F0CBBF0023174D184E2360FF27D7
:104C9C00206806280BDC2A680097642356F822202B
:104CAC000121FFF751FA236801332360F0E70C4B25
:104CBC001868FFF7D1FB0B4B1868FFF7CDFB2A6880
:104CCC000B4B53F822200C21002003B0BDE8F04020
:104CDC00FFF74ABF8CE603206CE6032038E603207E
:104CEC00F4E00320F8E0032030E60320D88B0B001F
:104CFC00008C0B0008B51B4B0022C3E90022A2F567
:104D0C0080329A60022001F08DFB1749174801F0A0
:104D1C0004FE174A174B12681A60174A1748126894
:104D2C005A60174A12689A60164A1268DA60164A74
:104D3C0012681A61154A12685A61154A12689A610A
:104D4C0002F090FC134802F08DFC02230C21124857
:104D5C000F2200F047FFBDE808401048022100F088
:104D6C00E1B900BFCCE5032090890B005CE6032081
:104D7C00C8E50320ACE50320A0E0032090E5032068
:104D8C00A8E0032098E0032094E003209CE003209B
:104D9C00A4E00320D8E5032078E6032038E60320BE
:104DAC00F0B5457EBDF81440022D69D0032D00F0FE
:104DBC009980012D6CD10589D2432A4412B2002A64
:104DCC005DDBB0F90850954259DD0029BEBF5B1878
:104DDC001BB20021B0F90A00CD188542C4BF431A9A
:104DEC001BB2002B4BDDC1F3C400DFF820C102EB7A
:104DFC00C01211F00701DBB20CEB02001AD0C1F1AA
:104E0C000805404EEDB2AB42775D3FBFA5EB030EFC
:104E1C00FF2646FA0EF637401CF80260012C0CBF38
:104E2C003E43BE43AB420CF8026028D308390B4416
:104E3C00DBB28030072B19D9012C4FF0FF3518BF8E
:104E4C000025EDB200F180011A46083AD2B2072AC9
:104E5C0001F8805C01F18001F7D8A3F10802C2F3DC
:104E6C00C402013200EBC21003F007033BB1264A27
:104E7C00D25C0378012C0CBF134393430370F0BD39
:104E8C004589D2432A44CD180189491B12B209B273
:104E9C00002AF4DBB0F90A509542F0DD0029BEBFC0
:104EAC005B181BB20021B0F90870CE18BE42C4BF0B
:104EBC006B1A1BB2002BE2DDD010802510FB051104
:104ECC001248014402F0070001228240012CD2B2A8
:104EDC000B440CD18B42D2D011F8010B104301F8CA
:104EEC00010CF7E7CD184189491B09B267E7D2439A
:104EFC00D2B28B42C3D011F8010B104001F8010C57
:104F0C00F7E700BF1CE1032014E1032024E1032098
:104F1C00F0B5457EBDF81440022D34D0032D00F0C1
:104F2C009B80012D37D1D5180289521B12B2002952
:104F3C00C0F29180B0F90A508D4240F38C80002A67
:104F4C00BEBF9B181BB20022B0F90870D618BE4227
:104F5C00C4BFAB1A1BB2002B7DDDC810802510FB23
:104F6C0005224548024401F0070001218140012C33
:104F7C00C9B2134475D19A426DD012F8010B084393
:104F8C0002F8010CF7E70589C9432944D518428971
:104F9C00521B09B212B200295DDBB0F908508D42E8
:104FAC0059DD002ABEBF9B181BB20022B0F90A00C3
:104FBC00D5188542C4BF831A1BB2002B4BDDC2F33C
:104FCC00C400DFF8B4C001EBC01112F00702DBB271
:104FDC000CEB01001AD0C2F10805284EEDB2AB4221
:104FEC00775D3FBFA5EB030EFF2646FA0EF6374062
:104FFC001CF80160012C0CBF3E43BE43AB420CF8C5
:10500C00016028D3083A1344DBB28030072B19D93E
:10501C00012C4FF0FF3518BF0025EDB200F18001D7
:10502C001A46083AD2B2072A01F8805C01F18001D5
:10503C00F7D8A3F10802C2F3C402013200EBC2108C
:10504C0003F007033BB10E4AD25C0378012C0CBF72
:10505C00134393430370F0BD4589C943294409B2F6
:10506C0065E7C943C9B29A42F5D012F8010B084062
:10507C0002F8010CF7E700BF24E103201CE1032038
:10508C0014E1032070470000F8B50D1E06461446C7
:10509C001F462DDB00F069FDA84229DD002C27DB23
:1050AC00304600F065FDA04222DD304600F05BFD8D
:1050BC0002281ED0032825D0012804D13389E243CD
:1050CC001A442C4615B2002C2246B8BFE21DD21051
:1050DC00802112FB01550E49012204F007044B57A5
:1050EC0002FA04F464B297420CBF2343A3434B551A
:1050FC00F8BD318972890139E4434D1B14442DB23A
:10510C0024B2E0E77389013B5B1B25461CB2DAE74E
:10511C0024E1032010B524210446FEF7B8FF2046F5
:10512C0010BD000038B5402204460D46802100F029
:10513C00A7FA064B2360FF2384F8213063774FF6E0
:10514C00FF73E38384F82050204638BD248C0B0079
:10515C0002484FF48062002103F0EEB924E10320F1
:10516C0013B50B4C2178BFF35B8F11F001010BD100
:10517C0020460191FEF79AFF019928B1054801F0EC
:10518C0069FA2046FEF797FF024802B010BD00BF37
:10519C00B4E60320B8E6032007B590F8223043B1FB
:1051AC000191FFF7DDFF019903B05DF804EB01F00D
:1051BC0005BB0B46817F407F012203B05DF804EBF9
:1051CC0002F0D3BB38B590F91D30013304460D46BF
:1051DC001DD090F92100012180B202F096FB94F9C8
:1051EC001F00002180B202F090FB94F921000021F5
:1051FC0080B202F08AFB29462046FFF7CDFF94F9D6
:10520C0021000121BDE8384080B202F07EBB02F0E3
:10521C0029FC94F91B1001F063FF02F023FC0368D6
:10522C0000219B68984702F01DFC036829469B6887
:10523C00984702F017FCBDE8384001F058BF000059
:10524C00F8B521210446FFF7BDFF00212046FFF7EA
:10525C00B9FF7F212046FFF7B5FF22212046FFF73B
:10526C00B1FF00212046FFF7ADFF07212046FFF7D5
:10527C00A9FF94F91D30294F01332AD094F921004C
:10528C00012180B202F041FB94F91F00012180B290
:10529C0002F03BFB94F92100002180B202F035FBB7
:1052AC00012000F01FFF4FF48065013D17F8011B32
:1052BC002046ADB2FFF770FF002DF6D1012000F0B3
:1052CC0011FF94F921000121BDE8F84080B202F0F1
:1052DC001CBB002502F0C6FB94F91B1001F000FF6B
:1052EC0002F0C0FB036840219B68984705F110064B
:1052FC00B6B202F0B7FB0368795D9B6898476B1CEC
:10530C009DB2AE42F5D102F0ADFB01F0F0FEB6F568
:10531C00806F00D1F8BD3546DCE700BF24E10320E7
:10532C0038B590F91D300177013304460D46C2762D
:10533C0000F0C98090F91F00012180B202F0D4FA6C
:10534C0094F92100012180B202F0CEFA94F82230B7
:10535C00002B00F0A68094F92100012180B202F00C
:10536C00D4FAFFF7FDFE012101F092F9FFF7F8FEE8
:10537C00102101F0FDF9FFF7F3FE002101F09CF97B
:10538C00FFF7EEFE01F070F994F92000012180B2D4
:10539C0002F0AAFA94F92000012180B202F0B5FAC9
:1053AC00012001F03BFC94F92000002180B202F0B6
:1053BC00ACFA0A2001F032FC94F92000012180B2F1
:1053CC0002F0A3FA2046AE21FFF7FCFE2046D521C1
:1053DC00FFF7F8FE20468021FFF7F4FE2046A821B7
:1053EC00FFF7F0FE20463F21FFF7ECFE2046D321CD
:1053FC00FFF7E8FE20460021FFF7E4FE204640219F
:10540C00FFF7E0FE8D212046FFF7DCFE012D0CBFDF
:10541C00102114212046FFF7D5FE20462021FFF74E
:10542C00D1FE20460021FFF7CDFE2046A121FFF73B
:10543C00C9FE2046C821FFF7C5FE2046DA21FFF73A
:10544C00C1FE20461221FFF7BDFE81212046FFF749
:10545C00B9FE012D0CBF9F21CF212046FFF7B2FED4
:10546C00D9212046FFF7AEFE012D0CBF2221F121E0
:10547C002046FFF7A7FE2046DB21FFF7A3FE2046C0
:10548C004021FFF79FFE2046A421FFF79BFE2046FC
:10549C00A621FFF797FE2046AF21BDE83840FFF765
:1054AC0091BE94F91D00012180B202F01DFA94F90D
:1054BC001E00012180B202F017FA94F82230002B62
:1054CC003FF462AF47E702F0CDFA01F0FFFD5BE776
:1054DC002DE9F04F85B01F46BDF93880BDF83C3042
:1054EC00A8EB0209A7EB010AB9F1000FB8BFC9F18B
:1054FC000009BAF1000FB8BFCAF1000AD1458346C2
:10550C000C46154604DD3A462C4647460D46904659
:10551C00BC4205DD2A464546904622463C46174687
:10552C003E1BB2B20092A8EB050282EAE271A1EB3B
:10553C00E271C6F3C03202FA86F64545B4BF0122C9
:10554C004FF0FF32019176100292BC421CDCDBF86A
:10555C0000200393D145D2F81080C7BF29462246BC
:10556C002A4621465846C047019A039BB61AB1B247
:10557C0036B2002E05DA029A1544009A56182DB24E
:10558C0036B2013424B2E0E705B0BDE8F08F2DE966
:10559C00F347BDF82C800768BDF92890CDF8008042
:1055AC000446FF6916468A461D46B8472368CDF85F
:1055BC00008009F1FF323244DF6951462B46204608
:1055CC0012B2B8472368CDF800809F6932464B462B
:1055DC0051462046B8476B1E03EB0A012368CDF8F1
:1055EC0028809D6932464B4609B22046AC4602B033
:1055FC00BDE8F047604737B5013B13440468BDF87C
:10560C00185001951BB2009364690B46A04703B078
:10561C0030BD37B5BDF818500468CDE90025013B05
:10562C000B4464691BB2A04703B030BD2DE9F347AE
:10563C00BDF92890BDF82C80054692460C46CE1834
:10564C00B4420BDA2B68CDF800809F6921464B469B
:10565C00524628460134B84724B2F1E702B0BDE8FF
:10566C00F08713B502680191B0F90E100091546ADD
:10567C00B0F90C3000221146A04702B010BD7047A3
:10568C0030B54281C2814FF0FF320024054D42619A
:10569C00012244600560018181810461028382766C
:1056AC0030BD00BF58910B002DE9F04F8DB01C465A
:1056BC009DF858300993BDF95C300A93BDF8603001
:1056CC000493A3B2C3F10105C3EBC3335B001BB25C
:1056DC00079300230693099B089203F001032AB257
:1056EC000B938BB28346039203270593069BA3422D
:1056FC0070DA039B002B0ADB079B02331AB207926A
:10570C00039A12FA83F5013C2BB224B20393069B45
:10571C0001331FFA83FA1BB20693039B3B441BB263
:10572C0003930B9B3BB30498BDF828800090DBF8E7
:10573C000000BDF8209005998069A6B208F101031C
:10574C0003EB4603A9EB0602514405461BB212B209
:10575C0009B25846A8470599049800903144DBF8E3
:10576C00006008EB0703A9EB0A02B6691BB212B280
:10577C0009B25846B047099B9B0728D50498BDF839
:10578C0028900090DBF80000BDF820800599806916
:10579C00A6B209F1010303EB4603A8EB0602A1EB49
:1057AC000A0105461BB212B209B25846A847059920
:1057BC0004980090891BDBF8006009EB0703A8EB49
:1057CC000A02B6691BB212B209B25846B047023788
:1057DC00BFB28BE70DB0BDE8F08F2DE9F04385B07B
:1057EC001546BDF83080CDF800809AB21E465300A5
:1057FC0003F1010C0368AA1AD3F8189012B20FFA2D
:10580C008CF304460F46C84703230022CDE900322F
:10581C00CDF8088033462A4639462046FFF744FF28
:10582C0005B0BDE8F0832DE9F04F8DB01446BDF9FD
:10583C005860BDF86420BDF960700492B4420D4606
:10584C008346BDF95C1058DDBC425EDC2246344612
:10585C0016462A461D461346BC425ED19D42C2BF27
:10586C002A461D4613468D4204DC8B42B8BF0B46BC
:10587C001BB22946DBF8002004981690D569013339
:10588C005B1A1BB222465846AC460DB0BDE8F04F31
:10589C006047059B961B141B16FB03F614FB09F4BF
:1058AC0036B224B2BA4200F396800A9B029896FB59
:1058BC00F3F1039B06921944079B94FBF3F3034407
:1058CC0009B21BB299420598C8BF8C460644C8BFA2
:1058DC00194604980090C8BF6346DBF800000133FA
:1058EC005B1AD0F81C801BB25846C047069A4C4431
:1058FC00013236B224B212B2D4E7BE42ACDD22463B
:10590C00344616462A461D4613462246B7423C46A6
:10591C0017462A460D46114698DA9BB20393ABB252
:10592C000293DDE902239B1A9BB21FFA84FC0893B5
:10593C00B3B2A3EB0C0212B20992029A89B2A1EB98
:10594C000209BAB2A2EB0C0C0FFA8CF00790039878
:10595C00B742A2EB0302A1EB000118BF03F1FF3326
:10596C0012B289B218BF1BB24FF000080A921FFA8C
:10597C0089F9059114BF069306972246C246069BE9
:10598C009A4286DC099B02989AFBF3F1029B0B92DC
:10599C001944079B98FBF3F30344089809B21BB214
:1059AC009942824404980090C8BF8C46DBF80000F2
:1059BC00C4BF19466346C06901335B1A05461BB266
:1059CC005846A8470B9AC84401320FFA8AFA0FFAC4
:1059DC0088F812B2D3E70DB0BDE8F08F2DE9F04F87
:1059EC002DED028B8DB007460491BDF8601005912A
:1059FC00BDF864100691B0F90C1004989DF868502D
:105A0C00814252DDB7F90E1091424EDD062111FB99
:105A1C000504002C49DD02EBC504002C45DD03EB2D
:105A2C0083030B9393B2079308339BB20891002422
:105A3C000993052C1CBF2C4B0B9A079E16BF1B19E8
:105A4C0000239B5C0393049AABB20A9304FB05F30B
:105A5C0013FA82F31BB204EB020A08EE103AB046BA
:105A6C000FFA85F90FFA8AFA039BDB072FD5012D64
:105A7C003B681FD1D3F810B0059B32B25146384663
:105A8C00D847039B5B0803930A9B01369844099BF8
:105A9C00B6B2B3421FFA88F8E6D1089B013B013439
:105AAC0013F0FF0364B20893C3D10DB0BDEC028BAD
:105ABC00BDE8F08F059ACDE9009218EE101AD3F8D4
:105ACC0024B00FFA88F24B463846D847D9E7DDE9BF
:105ADC0005239342D5D0012D3B6803D1D3F810B0E8
:105AEC00069BCAE7069AE6E7548C0B0030B50A29E8
:105AFC0085B0044607D1027E638A03EBC20363823E
:105B0C000023238221E00D291FD0037E0293C38A38
:105B1C000193838A0093B0F912200B46B0F9101050
:105B2C00FFF75CFF207E238A00EB400103EB41036F
:105B3C00A17E1BB20246238239B1B4F90C106FF06E
:105B4C00050505FB00118B42D6DC012005B030BDEC
:105B5C00018242827047012938BF012101767047CA
:105B6C00C18281827047407E7047B0F90C0070474B
:105B7C00B0F90E00704738B50446C0680D4608B140
:105B8C0000F0F4FCA379062B0CBF0420032010FBBF
:105B9C0005F080B2A08000F0E1FCE06028B1A288A2
:105BAC00002102F0C9FC658038BDA0806080FBE755
:105BBC0037B5037805460C461BB1C079002101F0BE
:105BCC0093FE2B78EC715BB1A0B20121019001F036
:105BDC008BFE0198002103B0BDE8304001F095BE6A
:105BEC0003B030BD70B50025044616468371C0E97C
:105BFC00035505700572FFF7BEFF20463146FFF7CF
:105C0C00D7FF204670BD0000C368002B00F0A481B4
:105C1C002DE9F04F8379023BDBB2042B9CBFBF4ACA
:105C2C0052F8234085B0054688BF322400F062FA52
:105C3C002B69C01AA042F9D3B94CAE88D4F8003500
:105C4C001BB9D4F86035002B7EDBB64CD4F800358C
:105C5C0023B9D4F86035002BC0F26E81B24CD4F865
:105C6C000035002B00F04481EB79B04AB04C12683F
:105C7C00190102EB0313575CAE495B78D1F8FC2099
:105C8C0042F08072C1F8FC20226803F01F0343EA43
:105C9C00471301273A432260A988D5F80C80D4F821
:105CAC0004909F40002944D04FF0000E72464FF0F4
:105CBC00A04118F801CB0820802663689B1A462B5C
:105CCC00FBD96268D1F808351CEA060F43EA0703D2
:105CDC00C1F808352FD063689B1A282BFBD9D1F853
:105CEC000C35013843EA07034FEA5606C1F80C3568
:105CFC00E3D1AB880EF1010E1FFA8EFE7345D8D896
:105D0C004FF4307103FB01F163689B1A462BFBD9EE
:105D1C006368A3EB09098945C0F0E4804FF49670E1
:105D2C0000F0E0F9A988D5F80C80D4F8049000298B
:105D3C00BAD10A46E8E763689B1A112BCFD863687F
:105D4C009B1A112BF7D9CAE7D4F86435002BBFF690
:105D5C007CAFD4F86835002BBFF677AFD4F86C3530
:105D6C00002BBFF672AF3601331D1846009300F0BE
:105D7C00F5FB00283FF478AFAB88002B00F0ED80EA
:105D8C00EA68013B12FA83F702F1FF3E002348F266
:105D9C00060248F20D011EF801CF1CF0800F0CBF5B
:105DAC0093468B461CF0400F0CBF16460E461CF05B
:105DBC00200F0CBF9046884603F10109CDF80880EE
:105DCC00019603F102081FFA89F9019E20F813B01D
:105DDC001FFA88F820F81960029E20F8186003F169
:105DEC0003081CF0100F1FFA88F80CBF93468B4663
:105DFC0020F818B003F104081CF0080F1FFA88F8FB
:105E0C000CBF93468B4620F818B003F105081CF024
:105E1C00040F1FFA88F80CBF93468B4620F818B075
:105E2C0003F1080A03F1060807339BB21CF0020FBA
:105E3C001FFA88F80CBF93468B46CDF80CA01CF0CB
:105E4C00010F20F818B015BF20F8131020F81320FC
:105E5C001FFA8AF3BDF80C3077459CD1591C0233DC
:105E6C0089B29BB249005B004FF400474752009A3D
:105E7C00C7522E4B56081F6800221423C4F8042561
:105E8C00C4F80C25C4F80835C4F81425C4F810253A
:105E9C00C4F82005C4F82465C4F82825C4F82C25BA
:105EAC00EB7907EB031C1B010121FE5C9CF8013014
:105EBC0003F01F0343EA4613C4F86035C4F8001519
:105ECC00C4F81021A160D4F81031002BFBD00023B2
:105EDC004FF0FF32C4F81031C4F80035C4F8602517
:105EEC0000F044FB00F006F9286105B0BDE8F08F26
:105EFC00D4F86035002BBFF6B7AED4F86435002B60
:105F0C00BFF6B2AED4F86835002BBFF6ADAED4F800
:105F1C006C35002BBFF6A8AE25E700BF88910B00AF
:105F2C0000C001400010024000200240C0E60320E7
:105F3C00001000E000ED00E0D4F86435002BBFF653
:105F4C008DAED4F86835002BBFF688AED4F86C351E
:105F5C00002BBFF683AE06E770470423022183E7CC
:105F6C0043888B42F0B52DD9067AC2F30743C2F3AE
:105F7C000724D5B23EB1734374437543C3F307236F
:105F8C00C4F307242D0A90F806C0C768BCF1060FAD
:105F9C000CBF042603264E43ACF1020CB919BCF11C
:105FAC00060F1DD8DFE80CF0041C08040F040400D5
:105FBC00BC554B708D7005E0FE2B28BFFE23BB55E6
:105FCC004D708C70F0BDBB554C708D70037A120EF9
:105FDC0013B9D2B2CA70F5E75A43C2F30722F9E7F4
:105FEC00BB554C70E6E7037A4A1CD2B2934270B5AB
:105FFC001FD0013B13F0FF03C4680CD0FF291FBF57
:10600C00110201F1FF31B1FBF3F39BB204BF4FF668
:10601C00FF71B1FBF3F325468688291B89B28E42AA
:10602C0006D929785943C1F3072105F8011BF3E779
:10603C00027270BD08B500F015F8014B186008BD70
:10604C00C0E6032008B5024B1B689B68019308BD92
:10605C006802030008B5024B1B68DB68019308BD9E
:10606C006802030008B5024B1B681B68019308BD4E
:10607C002C02030008B5024B1B685B68019308BD3A
:10608C002C02030008B5024B1B689B68019308BDEA
:10609C002C02030008B5024B1B68DB68019308BD9A
:1060AC002C02030008B5024B1B681B69019308BD49
:1060BC002C02030008B5024B1B681B6B019308BD37
:1060CC002C02030008B5024B1B685B69019308BDE9
:1060DC006C02030008B5024B1B685B68019308BD9A
:1060EC001802030008B5024B1B68DB68019308BD5E
:1060FC001802030008B5024B1B681B69019308BD0D
:10610C001802030008B5024B1B685B69019308BDBC
:10611C001802030008B5024B1B68DB6D019308BD28
:10612C001802030008B5024B1B685B6C019308BD99
:10613C004802030008B5024B1B685B69019308BD5C
:10614C006402030008B5024B1B681B6A019308BD6F
:10615C006402030008B5024B1B689B6A019308BDDF
:10616C006402030008B5024B1B68DB68019308BD91
:10617C003C02030008B5024B1B681B69019308BD68
:10618C003C02030008B5024B1B685B69019308BD18
:10619C003C02030008B5024B1B689B69019308BDC8
:1061AC003C02030008B5024B1B68DB69019308BD78
:1061BC003C02030008B5024B1B681B6A019308BD27
:1061CC003C02030008B5024B1B689B6A019308BD97
:1061DC003C02030008B5024B1B681B6C019308BD05
:1061EC003C02030008B5024B1B68DB68019308BD39
:1061FC002802030008B5024B1B689B69019308BD7C
:10620C002802030008B5024B1B68DB69019308BD2B
:10621C002802030008B5024B1B681B6A019308BDDA
:10622C002802030008B5024B1B685B6A019308BD8A
:10623C002802030008B5024B1B689B6A019308BD3A
:10624C002802030008B5024B1B68DB6A019308BDEA
:10625C002802030008B5024B1B681B6B019308BD99
:10626C002802030008B5024B1B685B6B019308BD49
:10627C002802030008B5024B1B681B6C019308BD78
:10628C002802030008B5024B1B689B69019308BDEB
:10629C003802030008B5024B1B68DB69019308BD8B
:1062AC003802030008B5024B1B681B6A019308BD3A
:1062BC003802030008B5024B1B689B6A019308BDAA
:1062CC003802030008B5024B1B681B6B019308BD19
:1062DC003802030008B5024B1B689B6B019308BD89
:1062EC003802030008B5024B1B681B68019308BDFC
:1062FC003002030008B5024B1B689B68019308BD74
:10630C003002030008B5024B1B68DB68019308BD23
:10631C003002030008B5024B1B681B69019308BDD2
:10632C003002030008B5024B1B685B69019308BD82
:10633C003002030008B5024B1B68DB69019308BDF2
:10634C003002030008B5024B1B681B6A019308BDA1
:10635C003002030008B5024B1B685B6A019308BD51
:10636C003002030008B5024B1B681B6C019308BD7F
:10637C003002030008B5024B1B685B6C019308BD2F
:10638C003002030008B5024B1B681B68019308BD63
:10639C004C02030008B5024B1B685B68019308BDF7
:1063AC004C02030008B5024B1B681B69019308BD26
:1063BC004C02030008B5024B1B685B69019308BDD6
:1063CC004C02030008B5024B1B689B69019308BD86
:1063DC004C02030008B5024B1B68DB69019308BD36
:1063EC004C02030008B5024B1B681B6A019308BDE5
:1063FC004C02030008B5024B1B689B6A019308BD55
:10640C004C02030008B5024B1B685B6B019308BD83
:10641C006002030008B5024B1B681B6D019308BD9D
:10642C006002030008B5024B1B685B68019308BD52
:10643C002002030008B5024B1B685B69019308BD81
:10644C002002030008B5034B1B68D3F88830019376
:10645C0008BD00002002030008B5034B1B68D3F8ED
:10646C009430019308BD00002002030008B5024BD4
:10647C001B685B68019308BD4002030008B5024B22
:10648C001B689B68019308BD4002030008B5024BD2
:10649C001B68DB68019308BD4002030008B5024B82
:1064AC001B681B69019308BD4002030008B5024B31
:1064BC001B685B69019308BD4002030008B5024BE1
:1064CC001B689B69019308BD4002030008B5024B91
:1064DC001B68DB69019308BD4002030008B5024B41
:1064EC001B681B6A019308BD4002030008B5024BF0
:1064FC001B689B6A019308BD4002030008B5024B60
:10650C001B681B6B019308BD4002030008B5024BCE
:10651C001B685B6B019308BD4002030008B5024B7E
:10652C001B681B6C019308BD4002030008B5024BAD
:10653C001B685B6C019308BD4002030008B5024B5D
:10654C001B689B68019308BD4402030008B5024B0D
:10655C001B68DB6B019308BD4402030008B5024BBA
:10656C001B681B68019308BD1C02030008B5024B95
:10657C001B685B68019308BD1C02030008B5024B45
:10658C001B689B68019308BD1C02030008B5024BF5
:10659C001B685B6A019308BD1C02030008B5024B23
:1065AC001B68DB6B019308BD1C02030008B5024B92
:1065BC001B681B6C019308BD1C02030008B5024B41
:1065CC001B685B6C019308BD1C0203000022406831
:1065DC001146FFF783BF002240681146FFF796BFB4
:1065EC0040680022FFF78ABF4068002281F0010159
:1065FC00FFF76CBF002340681A461946FFF75EBFD1
:10660C00002340681A461946FFF750BF0022406825
:10661C001146FFF743BF002240681146FFF72EBF1B
:10662C00406800220221FFF731BF002340681A4660
:10663C00FFF71CBF024B03225A60024A1A607047D4
:10664C00C4E60320A4910B000021FFF793BE0021A8
:10665C00FFF788BE10B5044608462170FFF76AFEA6
:10666C0000236360204610BD13B504460078FFF785
:10667C00EEFF58B9207801904FF6FF71FFF732FE0C
:10668C00019802B0BDE81040FFF7DEBF02B010BDAC
:10669C0013B5044600780191FFF7D9FF019948B969
:1066AC0020780190FFF726FE019802B0BDE810405B
:1066BC00FFF7CABF02B010BD13B5044600780191B4
:1066CC00FFF7C5FF019948B920780190FFF71AFE32
:1066DC00019802B0BDE81040FFF7B6BF02B010BD84
:1066EC00400830B51860002418688842E5B206D915
:1066FC000134082C02D040081860F5E70725024B3E
:10670C005B5D137030BD00BFD8910B002DE9F041DB
:10671C0088B000230446007802930E461746FFF714
:10672C0096FF054600BB94F800800146142203A88E
:10673C0001F002FF0B232A4603A94046ADF80C30AA
:10674C00FFF708FE04988DF8075002AB0DF1070215
:10675C0007FB06F1FFF7C4FF20789DF80710FFF741
:10676C00D9FD2078FFF770FF029808B0BDE8F081E2
:10677C0038B5044600780D46FFF769FF0346D0B9DB
:10678C00616899B10C4A12F8010B854202D00133B1
:10679C00082BF8D10133DBB20122D9402046FFF798
:1067AC00B5FF2078BDE83840FFF74EBF207829466A
:1067BC00FFF7B0FDF5E738BDD8910B0008B50078B0
:1067CC00FFF7B0FDC0B208BD054B02221A60054BA5
:1067DC00054A9A600020C3E90000FFF723BE00BF02
:1067EC00D8E60320CCE603200000FFFF10B50446DA
:1067FC0001F0EAFE013823182046834206D90278BC
:10680C00197800F8011B03F80129F6E710BD70B5E3
:10681C000C46911E22291DD8254630B9234430221E
:10682C009D4210D205F8012BFAE7B0FBF2F602FB01
:10683C001600C1B2092894BF30315731C9B205F8DE
:10684C00011B3046E9E7002320462B70FFF7CEFFF3
:10685C00204670BD0020FCE738B5031E0C461546DB
:10686C000EDAB3F1004F4FF02D0214BF5842184608
:10687C0001230A702A461944FFF7C9FF204638BD88
:10688C000123F9E710B504460068FFF76FFE2046B8
:10689C0010BD10B50446006808B1FFF767FE002371
:1068AC00C4E90133236010BD38B504460D460068B9
:1068BC000131FFF763FE10B1C4E90005012038BDBA
:1068CC0010B50368044623B143688B4201D3012001
:1068DC0010BD2046FFF7E8FF0028F9D0A368002B75
:1068EC00F5D122681370F2E737B50D4611460192C7
:1068FC000446FFF7E5FF019A28B92046FFF7C9FFC8
:10690C00204603B030BDA2602946206801F006FE87
:10691C002268A3680021D154F2E7002313B5C0E923
:10692C00003304468360037341B10846019101F0C2
:10693C004BFE019902462046FFF7D6FF204602B0D7
:10694C0010BD884210B5044605D00B682BB18A687F
:10695C001946FFF7C9FF204610BDFFF79AFFFAE76B
:10696C0010B500230446C0E9003383600373FFF7BE
:10697C00E8FF204610BD13B5044659B108460191F5
:10698C0001F022FE019902462046FFF7ADFF20469A
:10699C0002B010BDFFF77DFFF9E710B504468AB0D1
:1069AC000023C4E90033A3602373084601A9FFF751
:1069BC0053FF01A92046FFF7DEFF20460AB010BDA9
:1069CC0070B505460E4609B9002070BD6AB18468E1
:1069DC0014442146FFF774FF0028F5D02868AB68F3
:1069EC003146184401F0E8FDAC600120EDE713B529
:1069FC000446084651B1019101F0E6FD01990246A9
:106A0C00204602B0BDE81040FFF7DABF02B010BD5F
:106A1C0007B500238DF80410012201A98DF805306B
:106A2C00FFF7CEFF03B05DF804FB10B58A68096868
:106A3C000446FFF7C5FF10B92046FFF72AFF204692
:106A4C0010BD13B5044629B92046FFF722FF204696
:106A5C0002B010BD0846019101F0B6FD0199024645
:106A6C002046FFF7ADFF0028EED0F0E702480023E8
:106A7C000360FFF757BB00BFDCE60320F8B5064602
:106A8C000D468F180024BD420CD0336815F8011B3D
:106A9C009B6830469847031E01DB1C44F3E7002C2F
:106AAC0008BF1C462046F8BD13B50446084659B12C
:106ABC00019101F089FD23680199DB6802462046AB
:106ACC0002B0BDE81040184702B010BD08B5FFF782
:106ADC00EBFF08BD03689B68184738B50D210546C8
:106AEC00FFF7F8FF0A2104462846FFF7F3FF20447E
:106AFC0038BD38B50546FFF7D7FF04462846FFF7E3
:106B0C00ECFF204438BD30B58BB00023012A8DF842
:106B1C00243098BF0A2209AC0D46B1FBF2F101FBFF
:106B2C00125303F0FF03092B94BF30333733DBB21E
:106B3C00AA4204F8013DEFD92146FFF7B5FF0BB08F
:106B4C0030BD2DE9F04186B000AF05460E46381D2C
:106B5C00142114463B60FFF719FD13280ED8391D7C
:106B6C002846FFF7A1FF04461EB12846FFF7B5FFE4
:106B7C00044420461837BD46BDE8F08100F10803F7
:106B8C0023F00703E846ADEB030D2246411C3B689E
:106B9C006846FFF7FBFC69462846FFF785FF04466D
:106BAC00C546E1E710B50446FFF7ACFAE060236890
:106BBC0020465B699847002808DAFFF7A3FAE368D8
:106BCC00C01AA3689842F2D34FF0FF3010BD0000FA
:106BDC0038B50D4607490446FFF79FFE2846FFF7D8
:106BEC00E1FF002804DBC1B22046FFF711FFF5E7F7
:106BFC00204638BD90890B00014B024A1A60704741
:106C0C00E0E60320E8910B00024B1A68024B1A6075
:106C1C00704700BF24E50320E4E603200021FFF7C2
:106C2C0009BC0000014B00229A607047E8E6032083
:106C3C00014B1860704700BF28E5032008B50B4BCB
:106C4C0043B100F081F903681B699847002801DD06
:106C5C00AFF30080064B43B100F0C4FE03681B6920
:106C6C009847002801DDAFF3008008BD000000004C
:106C7C000000000008B5FFF7E1FFFFF743FA014BF6
:106C8C00186008BD40E703200548064A064908B5C8
:106C9C00121A01F043FC054B054A1A6008BD00BFEF
:106CAC0000F4032004F4032074950B0000F403207B
:106CBC001E1C279A07B5002300931A466FF0770124
:106CCC00FFF7CAFB03B05DF804FB000007B543886F
:106CDC000A2B08D0502B0BD1094B1B684BB103B0BE
:106CEC005DF804EB1847FFF7E5FF03B05DF804FB14
:106CFC00002300931A466FF07701FFF7ADFBF4E722
:106D0C00FCE6032010B512480021FFF757FC114B8D
:106D1C001A68114B9A42114B0CBF012200221A70B7
:106D2C0001D0FFF7B1FFFFF7D5F9044601F00CFCD9
:106D3C000B4B13B12046AFF3008000210848FFF73E
:106D4C0005FCBDE8104007480021FFF77BBB00BFE6
:106D5C003D6C0B0000F403201E1C279AF8E6032060
:106D6C0000000000D96C0B00704710B518210446C8
:106D7C00FDF78DF9204610BDF0B5037D062B8DB0C7
:106D8C000E4600F104074FF0000412D000F1080584
:106D9C0015F8011D0A223046FFF7B5FEAF42044438
:106DAC0019D0002CF4D02E213046FFF793FE04446A
:106DBC00EEE72F236A4639460A208DF80040FFF78C
:106DCC00B9F9684601F000FC33680246DB68694695
:106DDC0030469847044620460DB0F0BD10B5054B23
:106DEC000446112240F8043B002101F0A5FB20468B
:106DFC0010BD00BF10920B000346074A10B543F8B4
:106E0C00042B01F1100251F8044B43F8044B91424E
:106E1C00F9D10A781A7010BD10920B00037D042B67
:106E2C0004D14068003818BF01207047062B07D1E9
:106E3C0043683BB983682BB9C3681BB90069F1E798
:106E4C00002070470120704710B59DF8084044EAB7
:106E5C00032343EA024242EA0161042341600375C1
:106E6C0010BD000007B5064B0360CB7800938B7800
:106E7C004A780978FFF7E8FF03B05DF804FB00BF20
:106E8C0010920B00417470477047704708B5002191
:106E9C00007CFFF797FA40EAE07008BD08B50121C5
:106EAC00007CFFF78FFA40EAE07008BD08B5007C63
:106EBC00FFF780FA20EAE07008BD08B5007CFFF708
:106ECC0071FA20EAE07008BD13B50446007C01910C
:106EDC00FFF770FA0028019901DC607C20B1207C5E
:106EEC00FFF778FA20EAE07002B010BD007CFFF7E3
:106EFC0079BA10B514210446FDF7C9F8204610BD27
:106F0C0010B54FF47A73044608460021C4E9011306
:106F1C00044B23600123207463741146FFF732FA8B
:106F2C00204610BD24920B00007C0022FFF732BAE1
:106F3C00007CFFF75FBA10B514220446002101F063
:106F4C00FBFA204610BD000010B50F4C88B003A80A
:106F5C00FFF7F1FF2178BFF35B8F11F001010FD127
:106F6C0020460191FDF7A2F8019948B103AA074800
:106F7C00FFF7C6FF2046FDF79EF8054801F0C8FA5A
:106F8C00024808B010BD00BF00E7032004E703204F
:106F9C00956E0B0070474174704708B5007CFFF785
:106FAC0011F920EAE07008BD08B5007CFFF7E2F8A3
:106FBC0020EAE07008BD08B5007CFFF7EBF840EA6A
:106FCC00E07008BD08B5007CFFF7DCF840EAE07023
:106FDC0008BD007CFFF7E6B837B5457C04462DB1FB
:106FEC00207C03B0BDE83040FFF7BCB8007C0191B9
:106FFC00FFF7E8F800280199F2DC284603B030BD11
:10700C0010B514210446FDF742F8204610BD0000CF
:10701C0010B54FF47A730446084611460022C4E9B1
:10702C000123044B2360012320746374FFF7D2F80F
:10703C00204610BD54920B007047F8B50646154615
:10704C000C468F18BC4206D0336814F8011B9B68A1
:10705C0030469847F6E72846F8BD007C0022FFF73B
:10706C00D9B8007C0021FFF7DDB8007C0021FFF7C8
:10707C00E1B8007C0021FFF7E5B8007C0021FFF7A8
:10708C00E9B810B514210446FDF701F8204610BDEF
:10709C0038B5044615464FF47A730022C4E901232F
:1070AC00094B2174084623602946FFF7E3F8BF30EB
:1070BC0008D16B69DB0705D56868FFF757FAE868F4
:1070CC00FFF754FA204638BD84920B000023007C55
:1070DC001A461946FFF786B8007C0022FFF78AB8DB
:1070EC00C9B2FFF7F9BF007C0022FFF78BB8012172
:1070FC00FFF7F9BF13B503688DF80710DC6B01229D
:10710C004FF0FF330DF10701A04702B010BD10B4D2
:10711C000368DC6B4FF0FF33A4465DF8044B60470B
:10712C0013B5134602688DF80710D46B0DF10701E7
:10713C000122A04702B010BD10B54369B3F88620F8
:10714C00B3F884309A42044608D06369B3F88420BB
:10715C00511CA3F884101344187910BD03681B69E3
:10716C0098470028F1D14FF0FF30F6E7704743699C
:10717C001868C043C00F704770470000064B994217
:10718C0010B500F10C0405D0084600F091FC002865
:10719C0008BF0024204610BDE0910B0010B5AC21B7
:1071AC000446FCF774FF204610BDAC21FCF76FBF02
:1071BC002DE9F0414FF0000886B01C46C0F8048061
:1071CC0005460E4617464146102202A801F0B4F9B6
:1071DC00631C09D04FF47A73B4FBF3F203FB124433
:1071EC00CDE902285C43049468691023009300687D
:1071FC0002AB41F2050240F6FF71FFF743F800289D
:10720C0007DAFFF7CBF903686B60002006B0BDE826
:10721C00F0816869002300683A463146FFF752F85E
:10722C00031EEEDB1846F1E730B587B0044601AD1E
:10723C006846FFF717FE0FCD04340FC42B6823707C
:10724C0007B030BD70B54D69054B04468C3544F81C
:10725C00043B06460FCD0FC42B682370304670BD1F
:10726C0010920B002DE9F0439846036893B00D463D
:10727C000024DB6A06461746984728466B4622468A
:10728C0021460094FEF7E6FE0546002863D1009BDC
:10729C00002B4BD05B69002B48D006A8FFF79EFD56
:1072AC00009B5C696378022B04D1211D06A8FFF7B3
:1072BC00BBFF26E00A2B24D11122294601A801F09C
:1072CC003BF9A368002B38D004F108030DF1040C32
:1072DC00183418685968624603C20833A3429446AE
:1072EC00F7D1062301A90CA88DF81430FFF784FD03
:1072FC000DF1340CBCE80F0007AC0FC4DCF8003007
:10730C00237006A8FFF78AFD80B1336807ADD3F868
:10731C002090124B0C930FCD0DAC0FC42B68237027
:10732C003A4643460CA93046C84705460098FEF736
:10733C0089FE284613B0BDE8F083E368002BC3D167
:10734C004FF6FF70D4F81090FEF7FCFE8145BBD1D0
:10735C0004F11401AAE72546E8E700BF10920B00E0
:10736C0038B543691A68002A054610DAB3F8862046
:10737C00B3F884309A420AD103681B6998470446D3
:10738C0028B92B682846DB6A9847204638BD01206F
:10739C00FCE710B54369B3F88620B3F884309A4201
:1073AC00044605D06369B3F884201344187910BDE2
:1073BC0003681B6998470028F4D14FF0FF30F6E7BB
:1073CC00F8B543691746B3F88620B3F884309A426F
:1073DC0005460E4616D06969B1F88430B1F886407E
:1073EC00E41ABC4228BF3C460433224619443046BA
:1073FC0001F094F86A69B2F884302344A2F884301E
:10740C002046F8BD03681B6998470028E3D14FF06C
:10741C00FF34F5E742690023A2F884304269A2F8F0
:10742C00863070472DE9F0411F4603680C46DB6A35
:10743C008AB0054616469847237DD5F81480042B50
:10744C000CBF02200A2006220121FEF743FFC8F8D8
:10745C0000006B691B68002B08DA2B682846DB6A76
:10746C000024984720460AB0BDE8F0812846FFF773
:10747C00D1FFB7B1002303A9F8B20393ADF81030D4
:10748C00FEF720FE0028E8D1686906230093006807
:10749C0003AB41F20B0240F6FF71FEF7F3FE00283E
:1074AC00DBD11C22002103A801F046F8237D042B1C
:1074BC001DD14FF407733046ADF80C30FEF74AFE81
:1074CC00ADF80E006068FEF73DFE04906B691C225F
:1074DC00186803A9FEF7E6FE0028BED104340FCCD1
:1074EC006D698C350FC523682B700124BAE740F603
:1074FC001C233046ADF80C30FEF72CFE05AEADF873
:10750C000E00231D04F1140718685968324603C293
:10751C000833BB421646F7D1D8E7000030B54269B4
:10752C00B2F886308BB004462BB1B2F884209A4264
:10753C0001D1FFF76FFF61690868002818DBB1F80B
:10754C0086507F2D14D804310823C5F180022944BC
:10755C00FEF7B0FE002813DD6369B3F886200AB984
:10756C00A3F884206369B3F886201044A3F886003E
:10757C006369B3F88600B3F88430C01A0BB030BD21
:10758C00FFF70CF803680B2BF2D0FFF707F8036832
:10759C000B2BEDD020230025CDE90235FEF7FEFFA5
:1075AC0003680193084B0949009302AA2B46322029
:1075BC00FEF730FF63691868FEF76CFE63694FF0E5
:1075CC00FF321A60D4E700BFAB920B00A4920B0001
:1075DC0010B5436904461868002801DBFEF75AFE13
:1075EC0063694FF0FF321A606069112200218C3000
:1075FC0000F0A2FF2046BDE81040FFF70BBF10B50E
:10760C00002304460160C0F884308830FFF7E6FBA5
:10761C00204610BD73B500234FF47A72C0E90132D5
:10762C000E4A0361026043610446AC200191FCF7F1
:10763C002AFD051E05F10C0608D00123C5E901330E
:10764C00074B01992B603046FFF7D9FF2046C4E960
:10765C000565FFF7DFFE02B070BD00BFE0920B00C6
:10766C00C4920B0010B54FF0FF310446FFF7D2FF68
:10767C00204610BD10B504460068002801DBFEF75B
:10768C0009FE204610BD0C30FFF7F4BF0022406805
:10769C001146FEF703BF002240681146FEF71EBFDD
:1076AC00002240681146FEF731BF40680022FEF709
:1076BC0025BF4068002281F00101FEF707BF0023BF
:1076CC0040681A461946FEF7F9BE002340681A4670
:1076DC001946FEF7EBBE002240681146FEF7CEBEFF
:1076EC00406800220221FEF7D1BE002340681A46F2
:1076FC00FEF7BCBE024B04225A60024A1A60704765
:10770C0018E703202C930B00002340681A46FEF761
:10771C00ADBE406800220221FEF7B8BE00224068D0
:10772C001146FEF7ABBE002240681146FEF7B6BE0E
:10773C00002340681A461946FEF7B8BE002340687D
:10774C001A461946FEF7BABE40680021FEF7E6BE9F
:10775C0040680021FEF7EABE4068002281F001017A
:10776C00FEF7B4BE40680022FEF7C8BE0022406897
:10777C001146FEF7CBBE002240681146FEF7AEBEA6
:10778C002DE9F04395B014460D460746FFF726FB4E
:10779C0000211C220DA8009100F0CEFE40230C937A
:1077AC0020466B460CAA0021FEF754FC0446002828
:1077BC004BD1024601216868FEF770FE022180461B
:1077CC0022466868FEF76AFE009E81462146002E1E
:1077DC003BD0002939D17368022B03D00A2B11D06E
:1077EC00F669F4E7B8F1000FFAD0716906A8043114
:1077FC0007ADFFF737FB0FCD3C1D0FC42B68237073
:10780C004146EDE7B9F1000FEAD07469102201A8E6
:10781C0000F092FE06238DF8143001AD04F108033C
:10782C001834186859682A4603C20833A34215460F
:10783C00F7D101A906A807ADFFF7DEFA0FCD3C1D65
:10784C000FC42B6823704946CAE70098FEF7FAFB71
:10785C00384615B0BDE8F083024B034A1A6000228B
:10786C005A60704720E7032068930B00232813B558
:10787C0002D9002002B010BDA0F10B03022B1AD8C4
:10788C00174C2178BFF35B8F11F001010BD120460F
:10789C000191FCF70BFC019928B11248FEF7DAFEB6
:1078AC002046FCF708FC0F4B1878FEF74BFD002820
:1078BC00DFD10120DEE7012809D800F0D3F8002140
:1078CC00007CFEF7CFFC80F00100C0B2D2E7093893
:1078DC000128EED800F086F8007CFEF76BFCF2E78E
:1078EC00B4E60320B8E60320232838B504460D4639
:1078FC000AD8FF2908D0FFF7B9FF28B1294620463E
:10790C00BDE83840FEF7BEBB38BD38B504460D4661
:10791C00FEF7C0FBFF2810D0062804D84D2323FA0D
:10792C0000F0C30709D42046FFF7A0FF28B1294671
:10793C002046BDE83840FEF7B5BB38BD0D2810B564
:10794C0004469CBF0E34A4B22046FFF78FFF50B103
:10795C0003212046FEF78EFB032804D12046BDE808
:10796C001040FEF7A7BB002010BD2DE9F04190465A
:10797C001F46072406460D46C4F10701B8F1000F57
:10798C0012D147FA01F101F001013046FFF7BDFFBA
:10799C0001212846FFF7B9FF00212846FFF7B5FF64
:1079AC00013CE9D2BDE8F08147FA04F1EBE77047FE
:1079BC0038B5044614252A46002100F0BDFD25806B
:1079CC004025074925812846258200F06FF8044997
:1079DC006060284600F06AF8E060204638BD00BFC1
:1079EC009C930B0030B50E4D2978BFF35B8F11F0D3
:1079FC00010487B011D12846FCF758FB68B101A8E7
:107A0C00FFF7D6FF01AA21460648FFF701FB2846DF
:107A1C00FCF751FB044800F07BFD024807B030BD79
:107A2C0028E703202CE70320BB790B0070470000EC
:107A3C0038B50A4B036001230446436108492020F2
:107A4C0000F034F8202560600549A560284600F058
:107A5C002DF8C4E90305204638BD00BF180001000D
:107A6C009C930B0030B50E4D2978BFF35B8F11F052
:107A7C00010487B011D12846FCF718FB68B16846A1
:107A8C00FFF7D6FF6A4621460648FFF701FB28465A
:107A9C00FCF711FB044800F03BFD024807B030BD79
:107AAC0044E7032048E70320397A0B00FCF7EDBAD2
:107ABC00014900F0F9B800BFB8930B007FB5002462
:107ACC001023CDE90234036815469E6912686B4693
:107ADC00CDE90044B0479DF8043003F00603062BB3
:107AEC0003BF009B2B600120204604B070BD0098A2
:107AFC00904214BF012006207047000010B5034BC4
:107B0C000360044600F0CDF8204610BDF8930B003E
:107B1C0010B50446FFF7F2FF20460821FCF7B7FA30
:107B2C00204610BD2DE9F0411F46DDE90834DDF893
:107B3C00188098450646154607D1079900F0B4F809
:107B4C0018B165710020BDE8F0813946304600F06F
:107B5C00ABF80028F6D00123C4F800802571A3717E
:107B6C00F0E738B515461C4600F09EF820B1082306
:107B7C00E36006232560237138BD73B505460C46BA
:107B8C0001921E4600F090F850B9032E08D82368D5
:107B9C00019A5B692946204602B0BDE8704018473F
:107BAC0002B070BD10B5034B03600446FFF7A6FF8F
:107BBC00204610BD58940B0010B50446FFF7F2FF99
:107BCC0020460C21FCF763FA204610BDF7B5089F40
:107BDC00974205460E4614460AD0A86802680897D4
:107BEC00156A31462246AC4603B0BDE8F04060470A
:107BFC001946019300F058F8019B0028EDD006209F
:107C0C0003B0F0BD2DE9F14F0D461946DDE90A4BE5
:107C1C00DDE90CA681461746984600F045F890B170
:107C2C00002D3460377109DB61198A450CBF0621C0
:107C3C000121B171002001B0BDE8F08F0235F9D1FE
:107C4C000123B371F6E7544506D15946484600F076
:107C5C002BF808B17771EDE7D9F808000368CDE986
:107C6C000CA6CDE90A4BDC693A4643462946A446A4
:107C7C0001B0BDE8F04F60472DE9F04107460C46D6
:107C8C0015461E46FFF76DFF48B9B86803689F6933
:107C9C002A4633462146BC46BDE8F0416047BDE864
:107CAC00F081704700207047814208B50ED04068C3
:107CBC0003782A2B0CD049680B782A2B08BF01318A
:107CCC0000F070FCB0FA80F0400908BD0120FCE720
:107CDC000020FAE781F0004102E000BF83F000438E
:107CEC0030B54FEA41044FEA430594EA050F08BF4B
:107CFC0090EA020F1FBF54EA000C55EA020C7FEA0F
:107D0C00645C7FEA655C00F0E2804FEA5454D4EB8B
:107D1C005555B8BF6D420CDD2C4480EA020281EA55
:107D2C00030382EA000083EA010180EA020281EA8D
:107D3C000303362D88BF30BD11F0004F4FEA0131DF
:107D4C004FF4801C4CEA113102D0404261EB4101EE
:107D5C0013F0004F4FEA03334CEA133302D0524274
:107D6C0063EB430394EA050F00F0A780A4F1010430
:107D7C00D5F1200E0DDB02FA0EFC22FA05F280186A
:107D8C0041F1000103FA0EF2801843FA05F3594150
:107D9C000EE0A5F120050EF1200E012A03FA0EFCCF
:107DAC0028BF4CF0020C43FA05F3C01851EBE371F9
:107DBC0001F0004507D54FF0000EDCF1000C7EEB16
:107DCC0000006EEB0101B1F5801F1BD3B1F5001F54
:107DDC000CD349085FEA30004FEA3C0C04F1010473
:107DEC004FEA445212F5800F80F09A80BCF1004F9C
:107DFC0008BF5FEA500C50F1000041EB045141EA1E
:107E0C00050130BD5FEA4C0C404141EB0101013CE6
:107E1C0028BFB1F5801FE9D291F0000F04BF0146D5
:107E2C000020B1FA81F308BF2033A3F10B03B3F1A7
:107E3C0020020CDA0C3208DD02F1140CC2F10C0237
:107E4C0001FA0CF021FA02F10CE002F11402D8BF95
:107E5C00C2F1200C01FA02F120FA0CFCDCBF41EA61
:107E6C000C019040E41AA2BF01EB0451294330BD30
:107E7C006FEA04041F3C1CDA0C340EDC04F114040D
:107E8C00C4F1200220FA04F001FA02F340EA0300E4
:107E9C0021FA04F345EA030130BDC4F10C04C4F12A
:107EAC00200220FA02F001FA04F340EA030029460A
:107EBC0030BD21FA04F0294630BD94F0000F83F454
:107ECC00801306BF81F480110134013D4EE77FEA37
:107EDC00645C18BF7FEA655C29D094EA050F08BF83
:107EEC0090EA020F05D054EA000C04BF1946104664
:107EFC0030BD91EA030F1EBF0021002030BD5FEAA8
:107F0C00545C05D14000494128BF41F0004130BDCF
:107F1C0014F580043CBF01F5801130BD01F0004523
:107F2C0045F0FE4141F470014FF0000030BD7FEA96
:107F3C00645C1ABF194610467FEA655C1CBF0B4691
:107F4C00024650EA013406BF52EA033591EA030FA8
:107F5C0041F4002130BD00BF90F0000F04BF0021A0
:107F6C00704730B54FF4806404F132044FF00005D3
:107F7C004FF0000150E700BF90F0000F04BF00214C
:107F8C00704730B54FF4806404F1320410F00045B2
:107F9C0048BF40424FF000013EE700BF42004FEAAD
:107FAC00E2014FEA31014FEA02701FBF12F07F432A
:107FBC0093F07F4F81F06051704732F07F4208BFE1
:107FCC00704793F07F4F04BF41F40021704730B5E8
:107FDC004FF4607401F0004521F000411CE700BF34
:107FEC0050EA010208BF704730B54FF000050AE0B7
:107FFC0050EA010208BF704730B511F0004502D5B8
:10800C00404261EB41014FF4806404F132045FEAB9
:10801C00915C3FF4D8AE4FF003025FEADC0C18BF62
:10802C0003325FEADC0C18BF033202EBDC02C2F154
:10803C00200300FA03FC20FA02F001FA03FE40EAE6
:10804C000E0021FA02F11444BDE600BF70B54FF0EA
:10805C00FF0C4CF4E06C1CEA11541DBF1CEA1355C8
:10806C0094EA0C0F95EA0C0F00F0DEF82C4481EA30
:10807C00030621EA4C5123EA4C5350EA013518BF50
:10808C0052EA033541F4801143F4801338D0A0FB3D
:10809C0002CE4FF00005E1FB02E506F00042E0FBEA
:1080AC0003E54FF00006E1FB03569CF0000F18BFF0
:1080BC004EF0010EA4F1FF04B6F5007F64F5407498
:1080CC0004D25FEA4E0E6D4146EB060642EAC6212B
:1080DC0041EA55514FEAC52040EA5E504FEACE2E98
:1080EC00B4F1FD0C88BFBCF5E06F1ED8BEF1004F9B
:1080FC0008BF5FEA500E50F1000041EB045170BD17
:10810C0006F0004646EA010140EA020081EA03015A
:10811C00B4EB5C04C2BFD4EB0C0541EA045170BD56
:10812C0041F480114FF0000E013C00F3AB8014F1D0
:10813C00360FDEBF002001F0004170BDC4F1000419
:10814C00203C35DA0C341BDC04F11404C4F120059A
:10815C0000FA05F320FA04F001FA05F240EA0200F5
:10816C0001F0004221F0004110EBD37021FA04F62B
:10817C0042EB06015EEA430E08BF20EAD37070BDE5
:10818C00C4F10C04C4F1200500FA04F320FA05F044
:10819C0001FA04F240EA020001F0004110EBD37046
:1081AC0041F100015EEA430E08BF20EAD37070BDB6
:1081BC00C4F1200500FA05F24EEA020E20FA04F38F
:1081CC0001FA05F243EA020321FA04F001F000413E
:1081DC0021FA04F220EA020000EBD3705EEA430EAF
:1081EC0008BF20EAD37070BD94F0000F0FD101F0DE
:1081FC000046400041EB010111F4801F08BF013C17
:10820C00F7D041EA060195F0000F18BF704703F054
:10821C000046520043EB030313F4801F08BF013DDB
:10822C00F7D043EA0603704794EA0C0F0CEA135597
:10823C0018BF95EA0C0F0CD050EA410618BF52EA51
:10824C004306D1D181EA030101F000414FF0000057
:10825C0070BD50EA410606BF1046194652EA430665
:10826C0019D094EA0C0F02D150EA013613D195EAD9
:10827C000C0F05D152EA03361CBF104619460AD121
:10828C0081EA030101F0004141F0FE4141F470012B
:10829C004FF0000070BD41F0FE4141F4780170BD1B
:1082AC0070B54FF0FF0C4CF4E06C1CEA11541DBF80
:1082BC001CEA135594EA0C0F95EA0C0F00F0A7F882
:1082CC00A4EB050481EA030E52EA03354FEA0131AF
:1082DC0000F088804FEA03334FF0805545EA1313C2
:1082EC0043EA12634FEA022245EA111545EA10658A
:1082FC004FEA00260EF000419D4208BF964244F121
:10830C00FD0404F5407402D25B084FEA3202B61A3F
:10831C0065EB03055B084FEA32024FF480104FF413
:10832C00002CB6EB020E75EB030E22BFB61A754687
:10833C0040EA0C005B084FEA3202B6EB020E75EB1A
:10834C00030E22BFB61A754640EA5C005B084FEA82
:10835C003202B6EB020E75EB030E22BFB61A75464F
:10836C0040EA9C005B084FEA3202B6EB020E75EB5A
:10837C00030E22BFB61A754640EADC0055EA060E1B
:10838C0018D04FEA051545EA16754FEA06164FEA5E
:10839C00C30343EA52734FEAC2025FEA1C1CC0D10A
:1083AC0011F4801F0BD141EA00014FF000004FF097
:1083BC00004CB6E711F4801F04BF01430020B4F158
:1083CC00FD0C88BFBCF5E06F3FF6AFAEB5EB030C10
:1083DC0004BFB6EB020C5FEA500C50F1000041EB0D
:1083EC00045170BD0EF0004E4EEA113114EB5C04DA
:1083FC00C2BFD4EB0C0541EA045170BD41F48011AD
:10840C004FF0000E013C90E645EA060E8DE60CEAB4
:10841C00135594EA0C0F08BF95EA0C0F3FF43BAFD1
:10842C0094EA0C0F0AD150EA01347FF434AF95EA88
:10843C000C0F7FF425AF104619462CE795EA0C0F6C
:10844C0006D152EA03353FF4FDAE1046194622E739
:10845C0050EA410618BF52EA43067FF4C5AE50EA13
:10846C0041047FF40DAF52EA43057FF4EBAE12E703
:10847C004FEA4102B2F1E04324BFB3F5001CDCF13A
:10848C00FE5C0DD901F0004C4FEAC0024CEA507072
:10849C00B2F1004F40EB830008BF20F001007047A1
:1084AC0011F0804F21D113F13872BCBF01F00040A4
:1084BC00704741F480114FEA5252C2F11802C2F1D6
:1084CC00200C10FA0CF320FA02F018BF40F0010057
:1084DC004FEAC1234FEAD32303FA0CFC40EA0C0009
:1084EC0023FA02F34FEA4303CCE77FEA625307D146
:1084FC0050EA01331EBF4FF0FE4040F4400070477D
:10850C0001F0004040F0FE4040F40000704700BF16
:10851C00002301461A46184600F05EB80A44914200
:10852C0000F1FF3300D1704710B511F8014B03F87F
:10853C00014F9142F9D110BD02440346934200D140
:10854C00704703F8011BF9E738B5104B1D68AB6B8E
:10855C000446B3B91820FEF701F80246A86320B907
:10856C000B4B0C484221FEF721F80B490B4BC0E991
:10857C0000130B4B83600B23838100210120C2E984
:10858C000401AB6B00221C615A6138BD28E5032045
:10859C0091940B00A8940B000E33CDAB34126DE606
:1085AC00ECDE050010F8012B11F8013B012A28BF65
:1085BC009A42F7D0D01A7047034611F8012B03F8F2
:1085CC00012B002AF9D17047034613F8012B002A1E
:1085DC00FBD1181A013870472DE9F843DFF8B88041
:1085EC000646D8F800001F460D46914600F056F896
:1085FC00254B1C6834B9254C1C60254B13B11B68EA
:10860C00C4F8883063681F2B07DDD8F8000000F031
:10861C0047F84FF0FF30BDE8F8834EB3D4F888002C
:10862C0088B91C4B23B9D8F8000000F038F8F0E7F3
:10863C004FF48470FDF792FF0028F4D00023C0E9BA
:10864C004033C4F88800636840F8239001229A40B4
:10865C0000EB8301D0F800311343C0F80031022E37
:10866C00C1F8807002BFD0F804311343C0F8043154
:10867C006368D8F800005A1C0233626044F8235037
:10868C0000F00EF80020C6E7E8E703205CE70320C3
:10869C000000000069650B008CE5032070477047F3
:1086AC00704700001D400B0059400B0081400B002F
:1086BC0085400B000000000043616C6C206F6E2045
:1086CC0070757265207669727475616C004E6F20DE
:1086DC004368616E6765202D2043616E63656C6C29
:1086EC00696E6720434D440A007B226F6E223A74F8
:1086FC007275652C22736174223A002C22627269A5
:10870C00223A002C22687565223A007B226F6E2279
:10871C003A66616C73657D0053656E64696E6720A3
:10872C00436F6D6D616E6420746F204875650050E9
:10873C005554202F6170692F002F6C696768747312
:10874C002F002F737461746520485454502F312EB0
:10875C003100486F73743A2000436F6E74656E7409
:10876C002D4C656E6774683A2000436F6E74656EAD
:10877C00742D547970653A20746578742F706C611F
:10878C00696E3B636861727365743D5554462D3850
:10879C000046726F6D204875650053776974636885
:1087AC004F4E202569200A003C3F786D6C20766581
:1087BC007273696F6E3D22312E302220656E636FAD
:1087CC0064696E673D227574662D38223F3E3C739A
:1087DC003A456E76656C6F706520786D6C6E733A89
:1087EC00733D22687474703A2F2F736368656D61E2
:1087FC00732E786D6C736F61702E6F72672F736F41
:10880C0061702F656E76656C6F70652F2220733AE0
:10881C00656E636F64696E675374796C653D22682D
:10882C007474703A2F2F736368656D61732E786D55
:10883C006C736F61702E6F72672F736F61702F6521
:10884C006E636F64696E672F223E3C733A426F64AD
:10885C00793E3C753A53657442696E617279537412
:10886C0061746520786D6C6E733A753D2275726E0D
:10887C003A42656C6B696E3A736572766963653AF8
:10888C0062617369636576656E743A31223E3C426F
:10889C00696E61727953746174653E313C2F426923
:1088AC006E61727953746174653E3C2F753A5365F1
:1088BC007442696E61727953746174653E3C2F73B6
:1088CC003A426F64793E3C2F733A456E76656C6F15
:1088DC0070653E00504F5354202F75706E702F638F
:1088EC006F6E74726F6C2F62617369636576656EFF
:1088FC00743120485454502F312E3100436F6E7414
:10890C00656E742D547970653A20746578742F787F
:10891C006D6C3B20636861727365743D7574662D74
:10892C003800534F4150414354494F4E3A20227521
:10893C00726E3A42656C6B696E3A736572766963F6
:10894C00653A62617369636576656E743A31235377
:10895C00657442696E617279537461746522004367
:10896C006F6E6E656374696F6E3A206B6565702D02
:10897C00616C697665007377697463684F4646204D
:10898C002569200A003C3F786D6C2076657273690E
:10899C006F6E3D22312E302220656E636F64696EDE
:1089AC00673D227574662D38223F3E3C733A456E06
:1089BC0076656C6F706520786D6C6E733A733D22C2
:1089CC00687474703A2F2F736368656D61732E78B9
:1089DC006D6C736F61702E6F72672F736F61702F78
:1089EC00656E76656C6F70652F2220733A656E63C9
:1089FC006F64696E675374796C653D22687474702A
:108A0C003A2F2F736368656D61732E786D6C736F7D
:108A1C0061702E6F72672F736F61702F656E636F4D
:108A2C0064696E672F223E3C733A426F64793E3C18
:108A3C00753A53657442696E6172795374617465E9
:108A4C0020786D6C6E733A753D2275726E3A426584
:108A5C006C6B696E3A736572766963653A626173C1
:108A6C0069636576656E743A31223E3C42696E618B
:108A7C00727953746174653E303C2F42696E617239
:108A8C007953746174653E3C2F753A536574426931
:108A9C006E61727953746174653E3C2F733A426F08
:108AAC0064793E3C2F733A456E76656C6F70653E0B
:108ABC0000496F544E6574776F726B000A4E756D7A
:108ACC00526564203D202569204E756D426C75659C
:108ADC00203D202569000A636F6C31203D20252E36
:108AEC00326620636F6C32203D20252E3266206367
:108AFC006F6C33203D20252E3266000A5069656369
:108B0C006553696465203D20252E326620506965C9
:108B1C00636553696465203D20252E3266205069BB
:108B2C0065636553696465203D20252E32660072AD
:108B3C00656420203D2000626C7565203D2000207E
:108B4C00706965636520666F756E64000A6B203D05
:108B5C002025692069203D202569206A203D20259B
:108B6C0069003139322E3136382E312E3330003106
:108B7C0039322E3136382E312E3331003139322EF6
:108B8C003136382E312E3332003139322E313638DF
:108B9C002E312E3333003139322E3136382E312EE0
:108BAC003334004D516C5A7A69524F3057616935E4
:108BBC004D734D486C6C387841554151717738354F
:108BCC0051727238744D3337463354000000000034
:108BDC0065F30000CEE60000D2D10000D7BC000047
:108BEC0040B00000DBA700003139322E3136382E70
:108BFC00312E35000000FF002B00D5005500AA00D7
:108C0C0080008000AA005500D5002B00FF0000005A
:108C1C00000000000000000091500B0021510B00DF
:108C2C00F95A0B00896A0B0095500B00DD540B00B0
:108C3C001D4F0B00AD4D0B009B550B0039560B0017
:108C4C006F560B008B560B0000000000003E5B4F74
:108C5C005B3E3E6B4F6B3E1C3E7C3E1C183C7E3C90
:108C6C00181C577D571C1C5E7F5E1C00183C18009E
:108C7C00FFE7C3E7FF0018241800FFE7DBE7FF302E
:108C8C00483A060E2629792926407F050507407F9C
:108C9C0005253F5A3CE73C5A7F3E1C1C08081C1C0F
:108CAC003E7F14227F22145F5F005F5F06097F0105
:108CBC007F006689956A606060606094A2FFA294F0
:108CCC0008047E040810207E201008082A1C0808BE
:108CDC001C2A08081E101010100C1E0C1E0C30380C
:108CEC003E3830060E3E0E06000000000000005F0D
:108CFC0000000007000700147F147F14242A7F2A29
:108D0C0012231308646236495620500008070300EA
:108D1C00001C2241000041221C002A1C7F1C2A0836
:108D2C00083E080800807030000808080808000099
:108D3C0060600020100804023E5149453E00427F0D
:108D4C00400072494949462141494D331814127F5C
:108D5C001027454545393C4A4949314121110907FC
:108D6C003649494936464949291E0000140000007D
:108D7C00403400000008142241141414141400414F
:108D8C0022140802015909063E415D594E7C12110C
:108D9C00127C7F494949363E414141227F41414144
:108DAC003E7F494949417F090909013E41415173BF
:108DBC007F0808087F00417F41002040413F017F30
:108DCC00081422417F404040407F021C027F7F04F8
:108DDC0008107F3E4141413E7F090909063E415141
:108DEC00215E7F09192946264949493203017F0131
:108DFC00033F4040403F1F2040201F3F4038403F32
:108E0C00631408146303047804036159494D430047
:108E1C007F4141410204081020004141417F04027E
:108E2C000102044040404040000307080020545415
:108E3C0078407F28444438384444442838444428F3
:108E4C007F385454541800087E090218A4A49C7846
:108E5C007F0804047800447D40002040403D007FA2
:108E6C001028440000417F40007C047804787C0882
:108E7C000404783844444438FC1824241818242456
:108E8C0018FC7C08040408485454542404043F443B
:108E9C00243C4040207C1C2040201C3C4030403C6A
:108EAC0044281028444C9090907C4464544C4400CA
:108EBC00083641000000770000004136080002012E
:108ECC000204023C2623263C1EA1A161123A40401A
:108EDC00207A385454555921555579412154547898
:108EEC0041215554784020545579400C1E52721231
:108EFC0039555555593954545459395554545800B9
:108F0C0000457C410002457D420001457C40F02932
:108F1C002429F0F0282528F07C5455450020545481
:108F2C007C547C0A097F49324949493232484848C5
:108F3C0032324A4848303A4141217A3A424020780C
:108F4C00009DA0A07D39444444393D4040403D3C07
:108F5C0024FF2424487E4943662B2FFC2F2BFF092A
:108F6C0029F620C0887E090320545479410000441E
:108F7C007D413048484A32384040227A007A0A0A09
:108F8C00727D0D19317D2629292F2826292929267C
:108F9C0030484D4020380808080808080808382FC1
:108FAC0010C8ACBA2F102834FA00007B000008144B
:108FBC002A142222142A1408AA005500AAAA55AA77
:108FCC0055AA000000FF00101010FF00141414FF2D
:108FDC00001010FF00FF1010F010F0141414FC001F
:108FEC001414F700FF0000FF00FF1414F404FC1429
:108FFC001417101F10101F101F1414141F00101022
:10900C0010F0000000001F101010101F1010101096
:10901C00F010000000FF101010101010101010FFB6
:10902C0010000000FF140000FF00FF00001F1017CD
:10903C000000FC04F414141710171414F404F400B6
:10904C0000FF00F714141414141414F700F714147C
:10905C0014171410101F101F141414F4141010F003
:10906C0010F000001F101F0000001F14000000FC77
:10907C00140000F010F01010FF10FF141414FF1463
:10908C001010101F00000000F010FFFFFFFFFFF09A
:10909C00F0F0F0F0FFFFFF0000000000FFFF0F0FEB
:1090AC000F0F0F38444438447C2A2A3E147E0202A7
:1090BC000606027E027E0263554941633844443CF5
:1090CC0004407E201E2006027E020299A5E7A59987
:1090DC001C2A492A1C4C7201724C304A4D4D3030BE
:1090EC0048784830BC625A463D3E494949007E01A9
:1090FC0001017E2A2A2A2A2A44445F444440514AC8
:10910C00444040444A51400000FF0103E080FF000E
:10911C000008086B6B083612362436060F090F064A
:10912C00000018180000001010003040FF01010072
:10913C001F01011E00191D1712003C3C3C3C000095
:10914C000000000000000000000000000000000013
:10915C0000000000F95A0B00896A0B00A1400B00BB
:10916C00DD540B0003560B001F560B009B550B00D8
:10917C0039560B006F560B008B560B002C01000060
:10918C0018000000F40100002C0100005000000049
:10919C00000000000000000037660B002D660B007D
:1091AC0023660B0019660B000D660B0001660B00A5
:1091BC0055770B005D770B00F5650B00ED650B002B
:1091CC00E3650B00D9650B008D770B0000081018B8
:1091DC002028303800000000000000006170700092
:1091EC0025592D256D2D25645425483A254D3A25B4
:1091FC0053257A0061736374696D6500000000008B
:10920C0000000000856D0B00756D0B00776D0B0079
:10921C000000000000000000976E0B00FF6E0B00BA
:10922C00D56E0B00896A0B00C76E0B00996E0B0094
:10923C00A96E0B00F96E0B00B96E0B00916E0B0052
:10924C000000000000000000A16F0B000D700B006F
:10925C00E56F0B00896A0B00B56F0B00D16F0B002B
:10926C00C36F0B00DF6F0B00A36F0B00A76F0B001E
:10927C00000000000000000045700B008F700B0018
:10928C0067700B0047700B006F700B0077700B0052
:10929C007F700B0087700B00776972696E670072C4
:1092AC00656376206572726F72203D202564000024
:1092BC00000000000000000085710B00A9710B007C
:1092CC0093760B00B7710B0089710B000000000046
:1092DC00000000000D410B0041410B0001710B001F
:1092EC001B710B0029750B0045710B009F730B0054
:1092FC0079710B0031740B0071720B00CD730B0084
:10930C00DD750B006D730B007B710B002D710B0069
:10931C00BD710B0051720B0000000000000000003A
:10932C00F7760B00ED760B00E3760B0099760B00CD
:10933C00D7760B00CB760B0055770B005D770B00C7
:10934C00BF760B00B7760B00AD760B00A3760B0047
:10935C008D770B00000000000000000015770B005B
:10936C001F770B0029770B0033770B003D770B0031
:10937C0049770B0055770B005D770B0065770B0079
:10938C0071770B0079770B0083770B008D770B00CF
:10939C0000537431395F53705F6D616B655F736837
:1093AC00617265645F74616700000000F8930B00E4
:1093BC009D930B0058940B00CC930B007C940B00EA
:1093CC004E31305F5F637878616269763131375F37
:1093DC005F636C6173735F747970655F696E666FE0
:1093EC004500000000000000C0930B00097B0B003F
:1093FC001D7B0B00B17C0B00B17C0B00877B0B0041
:10940C00C97A0B006F7B0B00317B0B00FB7A0B00D6
:10941C0058940B0028940B00C0930B004E31305F16
:10942C005F637878616269763132305F5F73695F50
:10943C00636C6173735F747970655F696E666F4599
:10944C0000000000000000001C940B00B17B0B001E
:10945C00C57B0B00B17C0B00B17C0B00877B0B0038
:10946C00C97A0B00857C0B00117C0B00D97B0B009F
:10947C00F8930B0084940B00537439747970655F06
:10948C00696E666F005245454E54206D616C6C6F71
:10949C006320737563636565646564002F6D6E741A
:1094AC002F776F726B73706163652F776F726B734D
:1094BC00706163652F4743432D31302D70697065A2
:1094CC006C696E652F6A656E6B696E732D474343CD
:1094DC002D31302D706970656C696E652D34385F77
:1094EC0032303230313132345F313630363138301F
:1094FC003634312F7372632F6E65776C69622F6E01
:10950C0065776C69622F6C6962632F7374646C6924
:10951C00622F72616E642E6300000000014D0B001F
:10952C0041600B0041660B00D5670B00796A0B009C
:10953C00056C0B00156C0B00316C0B0001770B00EC
:04954C0065780B0033
:10955000040000001400000003000000474E550006
:10956000384757118BFA0266052AF50C5B73ACB6C7
:0495700006E9F5898A
:0495740000000000F3
:10957800C8AF0000E45700008CB900008813000051
:1095880050C30000102700000F000000300000004A
:109598000F0000001F0000000F0000000F00000077
:1095A8001F000000300000001F0000001F00000026
:1095B8001F0000000F000000300000003000000015
:1095C800300000001F000000300000000F00000005
:1095D80002000000030000006E8B0B007B8B0B0069
:1095E800888B0B00958B0B00A28B0B0001C0000031
:1095F800000103070F1F3F7F0080C0E0F0F8FCFE6A
:109608000000000000000000000000000000000052
:109618000000000000000000000000000000000042
:109628000000000000000000000000000000000032
:1096380000000000000000000000000000000080A2
:109648008080000000000000000000000000000012
:10965800008080C0C0000000000000000000000082
:1096680000000000000000000000000000000000F2
:1096780000000000000000000000000000000000E2
:1096880000000000000000000000000000000000D2
:109698000000000080C0E0F0F8FCF8E000000000E6
:1096A8000000000000000000000000000080808032
:1096B800808000808000000000808080808000FF23
:1096C800FFFF000000008080808000008080000094
:1096D80080FFFF8080008080008080808000808004
:1096E8000000000000808000008C8E84000080F85C
:1096F800F8F88000000000000000000000000000F2
:10970800F0F0F0F0F0F0F0F0F0F0F0F0E0E0C08011
:1097180000E0FCFEFFFFFF7FFFFFFFFFFF000000F0
:109728000000000000000000000000FEFFC701016B
:10973800010183FFFF00007CFEC70101010183FFD7
:10974800FFFF0038FEC78301010183C7FFFF000048
:1097580001FFFF010100FFFF0701010100007FFF7A
:1097680080000000FFFF7F0000FFFFFF000001FFF7
:10977800FFFF0100000000000000000000000000E2
:10978800030F3F7F7FFFFFFFFFFFFFFFE7C7C78F85
:109798008F9FBFFFFFC3C0F0FFFFFFFFFFFCFCFC74
:1097A800FCFCFCFCFCF8F8F0F0E0C000010303034B
:1097B8000303010303000000000103030303010185
:1097C8000301000000010303030301010303000078
:1097D8000003030000000303000000000000000174
:1097E8000303030303010000000103010000000359
:1097F800030100000000000000000000000000005D
:1098080000000080C0E0F0F9FFFFFFFFFF3F1F0FDF
:1098180087C7F7FFFF1F1F3DFCF8F8F8F87C7DFFAE
:10982800FFFFFFFFFFFFFF7F3F0F07003030000003
:109838000000000000000000000000000000000020
:1098480000000000FEFEFC00000000000000000018
:1098580000000000000000000000000000E0C00060
:109868000000000000000000000030300000000090
:1098780000000000000000000000000000000000E0
:1098880000C0FEFFFFFFFFFFFFFFFFFF7F7F3F1FBF
:109898000F071F7FFFFFF8F8FFFFFFFFFFFEF8E04D
:1098A800000000010000000000000000FEFE0000B3
:1098B80000FCFEFC0C06060EFCF80000F0F81C0E7E
:1098C8000606060CFFFFFF0000FEFE00000000FC7D
:1098D800FEFC00183C7E66E6CE84000006FFFF060C
:1098E80006FCFEFC0C0606060000FEFE0000C0F8A2
:1098F800FC4E4646464E7C7840183C76E6CECC80F8
:10990800000000000000000000000000000000004F
:109918000000000001070F1F1F3F3F3F3F1F0F03BD
:109928000000000000000000000000000F0F000011
:10993800000F0F0F000000000F0F000003070E0CB0
:1099480018180C060F0F0F0000010F0E0C180C0F43
:10995800070100040E0C180C0F070000000F0F0081
:10996800000F0F0F0000000000000F0F000000079D
:10997800070C0C181C0C060600040E0C180C0F071C
:1099880000000000000000000000000000000000CF
:1099980000000000000000000000000000000000BF
:1099A80000000000000000000000000000000000AF
:1099B800000000000000000000000000000000009F
:1099C800000000000000000000000000000000008F
:1099D800000000000000000000000000000000007F
:1099E800000000000000000000000000000000006F
:1099F800000000000000000000000000000000005F
:109A080000920B002CE5032000000000000000007D
:109A1800000000000000000000000000000000003E
:109A2800000000000000000000000000000000002E
:109A3800000000000000000000000000000000001E
:109A4800000000000000000000000000000000000E
:109A580000000000000000000000000000000000FE
:0C9A68000000000000000000ECE70320FC
:109A7400FFFFFFFF00000102030405060708090AAF
:109A84000B0C0D0E0F101112131415161718191AAA
:089A94001B1C1D1E1F202800F1
:049A9C0078563412B2
:04000003B000401CED
:00000001FF
