:02000002B0004C
:1040000000400B00E48B0B00000006000C000502D2
:084010000401A60F00000000EE
:04401800E87B0B0036
:1040200009480A49884208B505D0094A824202D0A7
:10403000121A03F015FD0748074A0021121A03F06F
:104040001DFD014808BD00BF04E1032028870B00C7
:1040500098E5032098E50320EDE7032070B5074EAF
:10406000074C02F0F1F8A41BA4080025AC4200D1D3
:1040700070BD56F8043B98470135F7E7D4860B002E
:10408000F8860B0000F08EB908B500F0E3FBBDE840
:10409000084002F091B801F08DBC01F08BBC01F03A
:1040A00091BC000008B5034A03490C2001F0DEFB77
:1040B000FEE700BF2D550B00FC7B0B000078B0FA2B
:1040C00080F04009704701230370704770B50C1EE3
:1040D000064615460BDA0A2A09D12D2101F090FF78
:1040E0006142EAB23046BDE8704001F0A2BF21460D
:1040F000F7E70EB403B503AB002153F8042B01938B
:1041000001F0B5FF02B05DF804EB03B070470000AA
:1041100038B584690A4B036005467CB16368013B8E
:1041200063605BB9236820469B689847A368013B9E
:10413000A3601BB923682046DB689847284638BD32
:104140008C840B0010B50446FFF7E2FF20461C21CB
:10415000FFF7A5FF204610BD2DE9F0418CB00546C4
:104160000F4668467749DDF8488014461E4601F040
:104170007AFEDFF828E27449DEF800307348744AAA
:10418000DFF81CC2AB4219D10B68BB4216D10368E1
:10419000A34213D11368B34210D1DCF80030434579
:1041A0000CD102F073F96B49FFF7A3FF00246846B6
:1041B00001F00EFE20460CB0BDE8F081CEF80050B4
:1041C0000F6004601660CCF80080002F00F0B5800E
:1041D0006149684601F075FE694608A801F066FE6F
:1041E0000A22414604A801F07EFE04A908A801F0B5
:1041F000B1FE5A4901F0BAFE0146684601F047FE99
:1042000004A801F0E5FD08A801F0E2FD694608A850
:1042100001F04CFE0A22314604A801F064FE04A914
:1042200008A801F097FE4E4901F0A0FE014668463D
:1042300001F02DFE04A801F0CBFD08A801F0C8FD97
:10424000694608A801F032FE0A22214604A801F0BE
:104250004AFE04A908A801F07DFE424901F086FE4D
:104260000146684601F013FE04A801F0B1FD08A85C
:1042700001F0AEFD3C493D480023502202F094FA83
:104280000446002893D002F001F9394901F0C7FE35
:1042900002F0FCF8009901F0C2FE3649334801F003
:1042A000ABFE3549314801F0A7FE34492F4801F0F3
:1042B000A3FE0A222D482946FFF708FF30492B4864
:1042C00001F0ADFE2F49294801F0A9FE2E492748EB
:1042D00001F092FE2449254801F0A1FE2B49234814
:1042E00001F08AFE0A220299204801F0A2FE1F482E
:1042F00001F089FE26491D4801F091FE1B4801F09E
:1043000082FE0099194801F08AFE02F0BFF82149A7
:1043100001F085FE02F0BAF81449044608A801F03D
:10432000EDFE0899204601F07AFE08A801F050FD44
:104330000E4802F0EFFB012439E71749684601F007
:10434000C0FD97E72C7C0B0004E603200CE603205D
:10435000FCE50320117C0B002D7C0B003F7C0B0047
:10436000477C0B005A7C0B00D07D0B0098E50320A6
:104370005C7C0B00737C0B00887D0B007D7C0B004C
:10438000867C0B00967C0B00A17C0B00A87C0B00AC
:10439000B97C0B00E07C0B004F7C0B0000E6032097
:1043A00008E6032073B5B4230026CDE900634FF47B
:1043B00008724FF416631021554801F07FFC3C222F
:1043C0000221544800F0D8FD524800F0EDFC51485D
:1043D0000124392500F060FD0623CDE900541A467A
:1043E00019464C4800F0A0FECDE900542B46294662
:1043F0004848062200F098FE06212B460A4645480A
:104400000194009100F090FECDE900542B462A461D
:1044100040481025062100F087FE2B463D480194B8
:1044200000950722182100F02DFFCDE900542B46FE
:1044300038481822072100F025FFCDE900542B460B
:1044400034481822292100F01DFF2B462922CDE9EE
:1044500000543048182100F015FF21462D4801F086
:1044600011F821462B4801F008F82A462948442132
:1044700001F000F828492748FFF73BFE2B2225488A
:10448000442100F0F7FF25492248FFF732FE21487A
:1044900000F002FD01F0FAFF4FF4165101F0E6FFC3
:1044A000304601F053F842F210750446002001F046
:1044B0004DF8001B61F10001A84271F1000307D221
:1044C00001F0E4FF01F0D6FF10B901F063FAEDE767
:1044D00001F0DCFF01F0CEFF0021132002F0A6FC6A
:1044E0000021122002F0A2FC0021112002F09EFC0B
:1044F0000121082002F09AFC0121072002F096FC1D
:104500000121062002B0BDE8704002F08FBC00BF60
:10451000A8E6032044E60320E97C0B00F17C0B00B5
:104520002DE9F843DFF8D0802D4C2E4DDFF8CCC0BC
:10453000D8F800902C4E002323602B60CCF800307C
:10454000042719469E4618461A46B7EE007AF0EE42
:10455000006A013F1BD0B1460422013A12D0F9ECA7
:10456000017AF4EE477AF1EE10FA03D101304FF000
:10457000010EF2E7F4EE667AF1EE10FAEDD10131B8
:104580000123EAE70C3601224FF00309E1E70AB103
:10459000C8F80090BEF1000F00D0206003B1296080
:1045A00012B10323CCF8003022682B689A4207DD51
:1045B000D31AC3F103030D4A13600D4A136001E0DF
:1045C00009DB0BD001F062FF2B6822680949FFF775
:1045D00090FDBDE8F8839B1A0333ECE70323EAE779
:1045E000A4E6032034E6032080E603203CE6032013
:1045F00038E60320F97C0B0078E603207CE60320F4
:1046000038B52A4D2C68BCB90121082002F00EFCF7
:104610002146072002F00AFC2146062002F006FC93
:104620000121082002F013FC2146072002F00FFCB4
:104630002146062002F00BFC2C68012C17D100212A
:10464000082002F0F3FB2146072002F0EFFB0021D7
:10465000062002F0EBFB0021082002F0F8FB2146C7
:10466000072002F0F4FB0021062002F0F0FB2B688B
:10467000022B19D10021082002F0D8FB00210720CD
:1046800002F0D4FB0121062002F0D0FB002108201B
:1046900002F0DDFB0021072002F0D9FBBDE8384025
:1046A0000121062002F0D3BB38BD00BF40E6032045
:1046B0002DE9F047DFF89881DFF8849162A7D7E908
:1046C0000067002386B0C8F80030D8F80030584C96
:1046D000022B5ADC574A1360FFF792FF4FF47A70AF
:1046E00001F03EFD002323602068022847DC1130E2
:1046F00080B202F0C5FB02F0E1FE32463B4603F019
:1047000071F803F057F92568D8F800A04A4907EE78
:10471000900A05EB4502B7EE007A5244F4EEC77AF0
:1047200009EB8200F1EE10FA01EB82024FEA450339
:10473000C0ED007AC2ED007AF0EE006A09DDF4EE19
:10474000E67AF1EE10FA04D580ED007A01352560A5
:10475000CAE7F4EEE67A2B445344F1EE10FA09EB83
:10476000830302DDC3ED006AF0E7D3ED007AF4EED7
:10477000C77AF1EE10FA44BF00221A60E6E7D8F8D3
:1047800000300133C8F800309FE702232A4F2B4E38
:1047900023604FF00C0801F079FE256808FB0575D1
:1047A0008146286802F09CFE02460B46A868CDE9C7
:1047B000042302F095FECDE90201686802F090FE44
:1047C000DDE90423CDE9000131464846FFF791FCBD
:1047D0002368013B002B2360DDDA0223184F194EBA
:1047E00023604FF00C0801F051FE256808FB0575A9
:1047F0008146286802F074FE02460B46A868CDE99F
:10480000042302F06DFECDE90201686802F068FE43
:10481000DDE90423CDE9000131464846FFF769FC94
:104820002368013B002B2360DDDA06B0BDE8F0878A
:1048300078E6032040E6032010E60320137D0B00FA
:1048400080E60320387D0B000000000000388C401B
:104850007CE6032013B5394CFFF72AFFFFF760FE13
:1048600094ED007AF0EE007AB4EE677AF1EE10FA89
:104870000DD094ED017AB4EE677AF1EE10FA06D01D
:1048800094ED027AB4EE677AF1EE10FA13D12C4B64
:104890002C4A1968FF2352F8212000930021642339
:1048A0000320FFF759FC2848002101F0CAF941F222
:1048B000883001F055FC94ED067AF7EE007AB4EEFC
:1048C000677AF1EE10FA0DD094ED077AB4EE677ABC
:1048D000F1EE10FA06D094ED087AB4EE677AF1EEB4
:1048E00010FA13D1FF23009345F2ED326423012126
:1048F0000320FFF731FC1448B42101F0A2F941F282
:10490000883002B0BDE8104001F02ABC0C4B0D4AC3
:104910001968FF2352F8212000930121642303200A
:10492000FFF71AFC094B08481A68094B53F8221084
:1049300002B0BDE8104001F084B900BF80E603205A
:104940003CE60320B47D0B00A8E6032038E60320F4
:104950006C7D0B0008B5194B0022C3E90022A2F5BB
:1049600080329A60022000F091FF1549154801F04D
:104970007AFA154A154B12681A60154A15481268DA
:104980005A60154A12689A60144A1268DA60144A2A
:1049900012681A61134A12685A61134A12689A61BE
:1049A00002F002F9114802F0FFF8114801F072F923
:1049B000BDE808400F48022100F0E0B9D4E503202B
:1049C0002C7C0B0068E60320D0E50320B4E503202F
:1049D00010E1032098E5032018E1032008E10320FB
:1049E00004E103200CE1032014E10320E0E50320AF
:1049F000A8E6032044E60320F0B5457EBDF8144048
:104A0000022D69D0032D00F09980012D6CD105890C
:104A1000D2432A4412B2002A5DDBB0F90850954215
:104A200059DD0029BEBF5B181BB20021B0F90A0096
:104A3000CD188542C4BF431A1BB2002B4BDDC1F316
:104A4000C400DFF820C102EBC01211F00701DBB295
:104A50000CEB02001AD0C1F10805404EEDB2AB429A
:104A6000775D3FBFA5EB030EFF2646FA0EF63740F3
:104A70001CF80260012C0CBF3E43BE43AB420CF855
:104A8000026028D308390B44DBB28030072B19D9D8
:104A9000012C4FF0FF3518BF0025EDB200F1800169
:104AA0001A46083AD2B2072A01F8805C01F1800167
:104AB000F7D8A3F10802C2F3C402013200EBC2101E
:104AC00003F007033BB1264AD25C0378012C0CBFEC
:104AD000134393430370F0BD4589D2432A44CD1854
:104AE0000189491B12B209B2002AF4DBB0F90A505D
:104AF0009542F0DD0029BEBF5B181BB20021B0F962
:104B00000870CE18BE42C4BF6B1A1BB2002BE2DD88
:104B1000D010802510FB05111248014402F0070057
:104B200001228240012CD2B20B440CD18B42D2D054
:104B300011F8010B104301F8010CF7E7CD1841897A
:104B4000491B09B267E7D243D2B28B42C3D011F8F6
:104B5000010B104001F8010CF7E700BF24E103202E
:104B60001CE103202CE10320F0B5457EBDF8144084
:104B7000022D34D0032D00F09B80012D37D1D518A4
:104B80000289521B12B20029C0F29180B0F90A507A
:104B90008D4240F38C80002ABEBF9B181BB20022BE
:104BA000B0F90870D618BE42C4BFAB1A1BB2002BB6
:104BB0007DDDC810802510FB05224548024401F028
:104BC000070001218140012CC9B2134475D19A42DA
:104BD0006DD012F8010B084302F8010CF7E70589C4
:104BE000C9432944D5184289521B09B212B200297F
:104BF0005DDBB0F908508D4259DD002ABEBF9B181D
:104C00001BB20022B0F90A00D5188542C4BF831A2E
:104C10001BB2002B4BDDC2F3C400DFF8B4C001EBC4
:104C2000C01112F00702DBB20CEB01001AD0C2F186
:104C30000805284EEDB2AB42775D3FBFA5EB030EF2
:104C4000FF2646FA0EF637401CF80160012C0CBF17
:104C50003E43BE43AB420CF8016028D3083A1344EC
:104C6000DBB28030072B19D9012C4FF0FF3518BF6C
:104C70000025EDB200F180011A46083AD2B2072AA7
:104C800001F8805C01F18001F7D8A3F10802C2F3BA
:104C9000C402013200EBC21003F007033BB10E4A1D
:104CA000D25C0378012C0CBF134393430370F0BD17
:104CB0004589C943294409B265E7C943C9B29A4243
:104CC000F5D012F8010B084002F8010CF7E700BF1D
:104CD0002CE1032024E103201CE1032070470000A5
:104CE000F8B50D1E064614461F462DDB00F0CFFB1F
:104CF000A84229DD002C27DB304600F0CBFBA04288
:104D000022DD304600F0C1FB02281ED0032825D04A
:104D1000012804D13389E2431A442C4615B2002CF1
:104D20002246B8BFE21DD210802112FB01550E4968
:104D3000012204F007044B5702FA04F464B29742CC
:104D40000CBF2343A3434B55F8BD31897289013908
:104D5000E4434D1B14442DB224B2E0E77389013BB8
:104D60005B1B25461CB2DAE72CE1032010B5242199
:104D70000446FFF794F9204610BD000038B54022E4
:104D800004460D46802100F0A7FA064B2360FF235E
:104D900084F8213063774FF6FF73E38384F8205063
:104DA000204638BDE47D0B0002484FF480620021AC
:104DB00002F064BE2CE1032013B50B4C2178BFF345
:104DC0005B8F11F001010BD120460191FFF776F9BD
:104DD000019928B1054800F069FE2046FFF773F9F4
:104DE000024802B010BD00BFB8E60320BCE60320B5
:104DF00007B590F8223043B10191FFF7DDFF01992B
:104E000003B05DF804EB00F005BF0B46817F407FE7
:104E1000012203B05DF804EB02F049B838B590F90F
:104E20001D30013304460D461DD090F921000121AB
:104E300080B202F00CF894F91F00002180B202F059
:104E400006F894F92100002180B202F000F829460A
:104E50002046FFF7CDFF94F921000121BDE838403D
:104E600080B201F0F4BF02F09FF894F91B1001F03A
:104E7000D9FB02F099F8036800219B68984702F07B
:104E800093F8036829469B68984702F08DF8BDE8BF
:104E9000384001F0CEBB0000F8B521210446FFF7F1
:104EA000BDFF00212046FFF7B9FF7F212046FFF715
:104EB000B5FF22212046FFF7B1FF00212046FFF772
:104EC000ADFF07212046FFF7A9FF94F91D30294FB8
:104ED00001332AD094F92100012180B201F0B7FFFB
:104EE00094F91F00012180B201F0B1FF94F9210073
:104EF000002180B201F0ABFF012000F017FB4FF45E
:104F00008065013D17F8011B2046ADB2FFF770FF29
:104F1000002DF6D1012000F009FB94F921000121B8
:104F2000BDE8F84080B201F092BF002502F03CF8E5
:104F300094F91B1001F076FB02F036F8036840216B
:104F40009B68984705F11006B6B202F02DF8036889
:104F5000795D9B6898476B1C9DB2AE42F5D102F01B
:104F600023F801F066FBB6F5806F00D1F8BD354639
:104F7000DCE700BF2CE1032038B590F91D30017744
:104F8000013304460D46C27600F0C98090F91F0037
:104F9000012180B201F04AFF94F92100012180B281
:104FA00001F044FF94F82230002B00F0A68094F921
:104FB0002100012180B201F04AFFFFF7FDFE01212F
:104FC00000F092FDFFF7F8FE102100F0FDFDFFF765
:104FD000F3FE002100F09CFDFFF7EEFE00F070FDF7
:104FE00094F92000012180B201F020FF94F9200003
:104FF000012180B201F02BFF012001F0B1F894F9FA
:105000002000002180B201F022FF0A2001F0A8F860
:1050100094F92000012180B201F019FF2046AE2151
:10502000FFF7FCFE2046D521FFF7F8FE2046802141
:10503000FFF7F4FE2046A821FFF7F0FE20463F21AF
:10504000FFF7ECFE2046D321FFF7E8FE20460021C3
:10505000FFF7E4FE20464021FFF7E0FE8D212046C9
:10506000FFF7DCFE012D0CBF102114212046FFF7B5
:10507000D5FE20462021FFF7D1FE20460021FFF774
:10508000CDFE2046A121FFF7C9FE2046C821FFF72B
:10509000C5FE2046DA21FFF7C1FE20461221FFF7A8
:1050A000BDFE81212046FFF7B9FE012D0CBF9F21D7
:1050B000CF212046FFF7B2FED9212046FFF7AEFEF2
:1050C000012D0CBF2221F1212046FFF7A7FE20462B
:1050D000DB21FFF7A3FE20464021FFF79FFE20467D
:1050E000A421FFF79BFE2046A621FFF797FE20464E
:1050F000AF21BDE83840FFF791BE94F91D000121B2
:1051000080B201F093FE94F91E00012180B201F0FB
:105110008DFE94F82230002B3FF462AF47E701F098
:1051200043FF01F075FA5BE72DE9F04F85B01F46AC
:10513000BDF93880BDF83C30A8EB0209A7EB010AA5
:10514000B9F1000FB8BFC9F10009BAF1000FB8BF3B
:10515000CAF1000AD14583460C46154604DD3A469D
:105160002C4647460D469046BC4205DD2A4645463C
:10517000904622463C4617463E1BB2B20092A8EB30
:10518000050282EAE271A1EBE271C6F3C03202FAD3
:1051900086F64545B4BF01224FF0FF3201917610EB
:1051A0000292BC421CDCDBF800200393D145D2F80C
:1051B0001080C7BF294622462A4621465846C04786
:1051C000019A039BB61AB1B236B2002E05DA029AE2
:1051D0001544009A56182DB236B2013424B2E0E7D5
:1051E00005B0BDE8F08F2DE9F347BDF82C800768C6
:1051F000BDF92890CDF800800446FF6916468A461E
:105200001D46B8472368CDF8008009F1FF323244CB
:10521000DF6951462B46204612B2B8472368CDF8C5
:1052200000809F6932464B4651462046B8476B1E68
:1052300003EB0A012368CDF828809D6932464B466E
:1052400009B22046AC4602B0BDE8F047604737B52A
:10525000013B13440468BDF8185001951BB200933C
:1052600064690B46A04703B030BD37B5BDF8185090
:105270000468CDE90025013B0B4464691BB2A047DB
:1052800003B030BD2DE9F347BDF92890BDF82C805F
:10529000054692460C46CE18B4420BDA2B68CDF880
:1052A00000809F6921464B46524628460134B84744
:1052B00024B2F1E702B0BDE8F08713B502680191AE
:1052C000B0F90E100091546AB0F90C30002211466A
:1052D000A04702B010BD704730B54281C2814FF087
:1052E000FF320024054D42610122446005600181C6
:1052F000818104610283827630BD00BF18830B0078
:105300002DE9F04F2DED028B8DB007460491BDF8CD
:1053100060100591BDF864100691B0F90C10049866
:105320009DF86850814252DDB7F90E1091424EDD72
:10533000062111FB0504002C49DD02EBC504002CFD
:1053400045DD03EB83030B9393B2079308339BB2C2
:10535000089100240993052C1CBF2C4B0B9A079E27
:1053600016BF1B1900239B5C0393049AABB20A93EC
:1053700004FB05F313FA82F31BB204EB020A08EEF6
:10538000103AB0460FFA85F90FFA8AFA039BDB0749
:105390002FD5012D3B681FD1D3F810B0059B32B239
:1053A00051463846D847039B5B0803930A9B013656
:1053B0009844099BB6B2B3421FFA88F8E6D1089B1D
:1053C000013B013413F0FF0364B20893C3D10DB065
:1053D000BDEC028BBDE8F08F059ACDE9009218EE86
:1053E000101AD3F824B00FFA88F24B463846D84743
:1053F000D9E7DDE905239342D5D0012D3B6803D1E0
:10540000D3F810B0069BCAE7069AE6E7147E0B00B5
:1054100030B50A2985B0044607D1027E638A03EBC2
:10542000C20363820023238221E00D291FD0037E63
:105430000293C38A0193838A0093B0F912200B462A
:10544000B0F91010FFF75CFF207E238A00EB4001CB
:1054500003EB4103A17E1BB20246238239B1B4F9AA
:105460000C106FF0050505FB00118B42D6DC012006
:1054700005B030BD018242827047012938BF012149
:1054800001767047C18281827047407E7047B0F9D3
:105490000C007047B0F90E007047000008B5024BD1
:1054A0001B689B68019308BD6802030008B5024BA6
:1054B0001B68DB68019308BD6802030008B5024B56
:1054C0001B685B68019308BD2C02030008B5024B02
:1054D0001B689B68019308BD2C02030008B5024BB2
:1054E0001B68DB68019308BD2C02030008B5024B62
:1054F0001B681B69019308BD2C02030008B5024B11
:105500001B681B6B019308BD2C02030008B5024BFE
:105510001B685B69019308BD6C02030008B5024B70
:105520001B685B68019308BD1802030008B5024BB5
:105530001B68DB68019308BD1802030008B5024B25
:105540001B685B69019308BD1802030008B5024B94
:105550001B68DB6D019308BD1802030008B5024B00
:105560001B685B6C019308BD4802030008B5024B41
:105570001B685B69019308BD6402030008B5024B18
:105580001B681B6A019308BD6402030008B5024B47
:105590001B689B6A019308BD6402030008B5024BB7
:1055A0001B68DB68019308BD3C02030008B5024B91
:1055B0001B681B69019308BD3C02030008B5024B40
:1055C0001B685B69019308BD3C02030008B5024BF0
:1055D0001B689B69019308BD3C02030008B5024BA0
:1055E0001B68DB69019308BD3C02030008B5024B50
:1055F0001B681B6A019308BD3C02030008B5024BFF
:105600001B689B6A019308BD3C02030008B5024B6E
:105610001B681B6C019308BD3C02030008B5024BDC
:105620001B68DB68019308BD2802030008B5024B24
:105630001B689B69019308BD2802030008B5024B53
:105640001B68DB69019308BD2802030008B5024B03
:105650001B681B6A019308BD2802030008B5024BB2
:105660001B685B6A019308BD2802030008B5024B62
:105670001B689B6A019308BD2802030008B5024B12
:105680001B68DB6A019308BD2802030008B5024BC2
:105690001B681B6B019308BD2802030008B5024B71
:1056A0001B685B6B019308BD2802030008B5024B21
:1056B0001B681B6C019308BD2802030008B5024B50
:1056C0001B689B69019308BD3802030008B5024BB3
:1056D0001B68DB69019308BD3802030008B5024B63
:1056E0001B681B6A019308BD3802030008B5024B12
:1056F0001B689B6A019308BD3802030008B5024B82
:105700001B681B6B019308BD3802030008B5024BF0
:105710001B689B6B019308BD3802030008B5024B60
:105720001B681B68019308BD3002030008B5024BDB
:105730001B689B68019308BD3002030008B5024B4B
:105740001B68DB68019308BD3002030008B5024BFB
:105750001B681B69019308BD3002030008B5024BAA
:105760001B685B69019308BD3002030008B5024B5A
:105770001B68DB69019308BD3002030008B5024BCA
:105780001B681B6A019308BD3002030008B5024B79
:105790001B685B6A019308BD3002030008B5024B29
:1057A0001B681B6C019308BD3002030008B5024B57
:1057B0001B685B6C019308BD3002030008B5024B07
:1057C0001B681B69019308BD2402030008B5024B46
:1057D0001B685B69019308BD2402030008B5024BF6
:1057E0001B689B69019308BD2402030008B5024BA6
:1057F0001B681B68019308BD4C02030008B5024BEF
:105800001B685B68019308BD4C02030008B5024B9E
:105810001B681B69019308BD4C02030008B5024BCD
:105820001B685B69019308BD4C02030008B5024B7D
:105830001B689B69019308BD4C02030008B5024B2D
:105840001B68DB69019308BD4C02030008B5024BDD
:105850001B681B6A019308BD4C02030008B5024B8C
:105860001B689B6A019308BD4C02030008B5024BFC
:105870001B685B6B019308BD6002030008B5024B17
:105880001B681B6D019308BD6002030008B5024B45
:105890001B685B68019308BD2002030008B5024B3A
:1058A0001B685B69019308BD2002030008B5034B28
:1058B0001B68D3F88830019308BD00002002030064
:1058C00008B5034B1B68D3F89430019308BD000062
:1058D0002002030008B5024B1B685B68019308BDFA
:1058E0004002030008B5024B1B689B68019308BD8A
:1058F0004002030008B5024B1B68DB68019308BD3A
:105900004002030008B5024B1B681B69019308BDE8
:105910004002030008B5024B1B685B69019308BD98
:105920004002030008B5024B1B689B69019308BD48
:105930004002030008B5024B1B68DB69019308BDF8
:105940004002030008B5024B1B681B6A019308BDA7
:105950004002030008B5024B1B681B6B019308BD96
:105960004002030008B5024B1B685B6B019308BD46
:105970004002030008B5024B1B681B6C019308BD75
:105980004002030008B5024B1B685B6C019308BD25
:105990004002030008B5024B1B689B68019308BDD9
:1059A0004402030008B5024B1B68DB6B019308BD82
:1059B0004402030008B5024B1B681B68019308BD35
:1059C0001C02030008B5024B1B685B68019308BD0D
:1059D0001C02030008B5024B1B689B68019308BDBD
:1059E0001C02030008B5024B1B685B6A019308BDEB
:1059F0001C02030008B5024B1B68DB6B019308BD5A
:105A00001C02030008B5024B1B681B6C019308BD08
:105A10001C02030008B5024B1B685B6C019308BDB8
:105A20001C020300002240681146FFF78BBF0022D2
:105A300040681146FFF796BF40680022FFF78ABF13
:105A40004068002281F00101FFF774BF0023406825
:105A50001A461946FFF766BF002340681A461946E2
:105A6000FFF758BF002240681146FFF74BBF0022E6
:105A700040681146FFF736BF406800220221FFF759
:105A800039BF002340681A46FFF724BF024B0322A8
:105A90005A60024A1A607047C4E6032050830B0024
:105AA0000021FFF783BE0021FFF778BE10B5044642
:105AB00008462170FFF75AFE00236360204610BDA0
:105AC00013B504460078FFF7EEFF58B9207801902F
:105AD0004FF6FF71FFF722FE019802B0BDE81040BB
:105AE000FFF7DEBF02B010BD13B504460078019188
:105AF000FFF7D9FF019948B920780190FFF716FE0A
:105B0000019802B0BDE81040FFF7CABF02B010BD57
:105B100013B5044600780191FFF7C5FF019948B914
:105B200020780190FFF70AFE019802B0BDE810400E
:105B3000FFF7B6BF02B010BD400830B518600024B2
:105B400018688842E5B206D90134082C02D0400812
:105B50001860F5E70725024B5B5D137030BD00BF91
:105B600084830B002DE9F04188B0002304460078BF
:105B700002930E461746FFF796FF054600BB94F8C2
:105B800000800146142203A801F078FF0B232A4667
:105B900003A94046ADF80C30FFF7F8FD04988DF8E6
:105BA000075002AB0DF1070207FB06F1FFF7C4FF38
:105BB00020789DF80710FFF7C9FD2078FFF770FFE8
:105BC000029808B0BDE8F08138B5044600780D466B
:105BD000FFF769FF0346D0B9616899B10C4A12F822
:105BE000010B854202D00133082BF8D10133DBB21F
:105BF0000122D9402046FFF7B5FF2078BDE83840A4
:105C0000FFF74EBF20782946FFF7A0FDF5E738BD26
:105C100084830B0008B50078FFF7A0FDC0B208BD73
:105C2000B0F90020531C0BD0438880888B4203D8E6
:105C30008842034628BF0B46194690B2FFF7CEBDF7
:105C4000704713B504460846B4F90610B4F90820A5
:105C5000884210DB9042A8BF1046A3880093638857
:105C600000F072FAE168014489B2204602B0BDE852
:105C70001040FFF7D5BF0846EFE70000044A4FF495
:105C80001663C0E90023B42303810023C360704777
:105C9000FFFF200208B5FFF7F1FF08BD10B504466D
:105CA000B0F90000431C07D080B2FFF78FFD2046FB
:105CB000FFF7E4FF012010BD0020FCE72DE9F041D3
:105CC0000D4604460221284690461F46FFF7F6FB84
:105CD000022803D000263046BDE8F081284601F0B6
:105CE00067F806460028F5D0B4F90030013302D039
:105CF0002046FFF7D3FFBDF91830E380BDF91C3013
:105D00002580A4F80280A78023812846FFF756FD4E
:105D1000E1E70000054B02221A60054B054A9A6034
:105D20000020C3E90000FFF7B1BD00BFD8E60320A3
:105D3000CCE603200000FFFF10B5044601F0E6FEAC
:105D4000013823182046834206D90278197800F8D2
:105D5000011B03F80129F6E710BD70B50C46911E32
:105D600022291DD8254630B9234430229D4210D225
:105D700005F8012BFAE7B0FBF2F602FB1600C1B200
:105D8000092894BF30315731C9B205F8011B30469C
:105D9000E9E7002320462B70FFF7CEFF204670BDB9
:105DA0000020FCE738B5031E0C4615460EDAB3F1A9
:105DB000004F4FF02D0214BF5842184601230A70BD
:105DC0002A461944FFF7C9FF204638BD0123F9E7E9
:105DD00010B504460068FFF7F5FD204610BD10B56C
:105DE0000446006808B1FFF7EDFD0023C4E9013364
:105DF000236010BD38B504460D4600680131FFF739
:105E0000E9FD10B1C4E90005012038BD10B50368F3
:105E1000044623B143688B4201D3012010BD2046C4
:105E2000FFF7E8FF0028F9D0A368002BF5D122681E
:105E30001370F2E737B50D46114601920446FFF79D
:105E4000E5FF019A28B92046FFF7C9FF204603B0B5
:105E500030BDA2602946206801F002FE2268A368D6
:105E60000021D154F2E7002313B5C0E90033044602
:105E70008360037341B10846019101F047FE019927
:105E800002462046FFF7D6FF204602B010BD8842EA
:105E900010B5044605D00B682BB18A681946FFF788
:105EA000C9FF204610BDFFF79AFFFAE710B500239F
:105EB0000446C0E9003383600373FFF7E8FF204620
:105EC00010BD13B5044659B10846019101F01EFEFC
:105ED000019902462046FFF7ADFF204602B010BDF3
:105EE000FFF77DFFF9E710B504468AB00023C4E947
:105EF0000033A3602373084601A9FFF753FF01A9EC
:105F00002046FFF7DEFF20460AB010BD70B50546FB
:105F10000E4609B9002070BD6AB184681444214658
:105F2000FFF774FF0028F5D02868AB6831461844A5
:105F300001F0E4FDAC600120EDE707B500238DF82A
:105F40000410012201A98DF80530FFF7DFFF03B02F
:105F50005DF804FB10B58A6809680446FFF7D6FFB0
:105F600010B92046FFF73BFF204610BD13B504468D
:105F700029B92046FFF733FF204602B010BD08467E
:105F8000019101F0C3FD019902462046FFF7BEFFD3
:105F90000028EED0F0E70000024800230360FFF77E
:105FA000DDBA00BFDCE60320F8B506460D468F18C3
:105FB0000024BD420CD0336815F8011B9B683046A5
:105FC0009847031E01DB1C44F3E7002C08BF1C4666
:105FD0002046F8BD13B50446084659B1019101F0B9
:105FE00095FD23680199DB680246204602B0BDE8B2
:105FF0001040184702B010BD08B5FFF7EBFF08BD11
:1060000003689B68184738B50D210546FFF7F8FF70
:106010000A2104462846FFF7F3FF204438BD38B56F
:106020000546FFF7D7FF04462846FFF7ECFF20445C
:1060300038BD30B58BB00023012A8DF8243098BFCD
:106040000A2209AC0D46B1FBF2F101FB125303F039
:10605000FF03092B94BF30333733DBB2AA4204F875
:10606000013DEFD92146FFF7B5FF0BB030BD2DE95B
:10607000F04186B000AF05460E46381D1421144687
:106080003B60FFF7AFFC13280ED8391D2846FFF7F9
:10609000A1FF04461EB12846FFF7B5FF0444204681
:1060A0001837BD46BDE8F08100F1080323F007036F
:1060B000E846ADEB030D2246411C3B686846FFF7FE
:1060C00091FC69462846FFF785FF0446C546E1E78F
:1060D00010B50446FFF732FAE060236820465B699A
:1060E0009847002808DAFFF729FAE368C01AA3687E
:1060F0009842F2D34FF0FF3010BD000038B50D4686
:1061000007490446FFF7AFFE2846FFF7E1FF0028E6
:1061100004DBC1B22046FFF710FFF5E7204638BD8B
:106120002C7C0B00014B024A1A607047E0E603200A
:1061300094830B00024B1A68024B1A60704700BF31
:106140002CE50320E4E603208A4210B507D0441A68
:106150000298C01A4443501A94FBF0F0184410BD42
:106160000021FFF79BBB0000014B00229A607047A3
:10617000E8E60320014B1860704700BF30E50320BC
:1061800008B50B4B43B100F081F903681B699847D0
:10619000002801DDAFF30080064B43B100F0C4FEE0
:1061A00003681B699847002801DDAFF3008008BD34
:1061B000000000000000000008B5FFF7E1FFFFF756
:1061C000BDF9014B186008BD40E703200548064AA9
:1061D000064908B5121A01F043FC054B054A1A603E
:1061E00008BD00BF00F4032004F4032024870B0043
:1061F00000F403201E1C279A07B5002300931A46BB
:106200006FF07701FFF75CFB03B05DF804FB000063
:1062100007B543880A2B08D0502B0BD1094B1B68BC
:106220004BB103B05DF804EB1847FFF7E5FF03B08F
:106230005DF804FB002300931A466FF07701FFF727
:106240003FFBF4E7FCE6032010B512480021FFF7FE
:10625000E1FB114B1A68114B9A42114B0CBF012202
:1062600000221A7001D0FFF7B1FFFFF757F904467B
:1062700001F00CFC0B4B13B12046AFF30080002162
:106280000848FFF78FFBBDE8104007480021FFF7E3
:106290000DBB00BF75610B0000F403201E1C279A84
:1062A000F8E603200000000011620B00704710B5F3
:1062B00018210446FDF7F3FE204610BDF0B5037D1E
:1062C000062B8DB00E4600F104074FF0000412D0EB
:1062D00000F1080515F8011D0A223046FFF7A9FE56
:1062E000AF42044419D0002CF4D02E213046FFF7E1
:1062F00087FE0444EEE72F236A4639460A208DF8CC
:106300000040FFF733F9684601F000FC33680246AD
:10631000DB68694630469847044620460DB0F0BD1C
:1063200010B5054B0446112240F8043B002101F052
:10633000A5FB204610BD00BFBC830B000346074AE7
:1063400010B543F8042B01F1100251F8044B43F847
:10635000044B9142F9D10A781A7010BDBC830B002E
:10636000037D042B04D14068003818BF012070471A
:10637000062B07D143683BB983682BB9C3681BB9A7
:106380000069F1E7002070470120704710B59DF8C3
:10639000084044EA032343EA024242EA016104233B
:1063A0004160037510BD000007B5064B0360CB7854
:1063B00000938B784A780978FFF7E8FF03B05DF81F
:1063C00004FB00BFBC830B004174704770477047EB
:1063D00008B50021007CFFF729FA40EAE07008BD0B
:1063E00008B50121007CFFF721FA40EAE07008BD02
:1063F00008B5007CFFF712FA20EAE07008BD08B586
:10640000007CFFF703FA20EAE07008BD13B50446EC
:10641000007C0191FFF702FA0028019901DC607C01
:1064200020B1207CFFF70AFA20EAE07002B010BD2C
:10643000007CFFF70BBA10B514210446FDF72FFEC0
:10644000204610BD10B54FF47A730446084600216B
:10645000C4E90113044B23600123207463741146C3
:10646000FFF7C4F9204610BDD0830B00007C00224A
:10647000FFF7C4B9007CFFF7F1B910B51422044648
:10648000002101F0FBFA204610BD000010B50F4CB2
:1064900088B003A8FFF7F1FF2178BFF35B8F11F0FD
:1064A00001010FD120460191FDF708FE019948B185
:1064B00003AA0748FFF7C6FF2046FDF704FE05487C
:1064C00001F0C8FA024808B010BD00BF00E7032081
:1064D00004E70320CD630B0070474174704708B593
:1064E000007CFFF78BF820EAE07008BD08B5007C5F
:1064F000FFF75CF820EAE07008BD08B5007CFFF704
:1065000065F840EAE07008BD08B5007CFFF756F872
:1065100040EAE07008BD007CFFF760B837B5457C05
:1065200004462DB1207C03B0BDE83040FFF736B8FB
:10653000007C0191FFF762F800280199F2DC2846FF
:1065400003B030BD10B514210446FDF7A8FD204668
:1065500010BD000010B54FF47A730446084611468A
:106560000022C4E90123044B2360012320746374D7
:10657000FFF74CF8204610BD00840B007047F8B5BB
:10658000064615460C468F18BC4206D0336814F8F0
:10659000011B9B6830469847F6E72846F8BD007C0B
:1065A0000022FFF753B8007C0021FFF757B8007CAA
:1065B0000021FFF75BB8007C0021FFF75FB8007C8B
:1065C0000021FFF763B810B514210446FDF767FDFD
:1065D000204610BD38B5044615464FF47A730022A4
:1065E000C4E90123094B2174084623602946FFF7BB
:1065F0005DF8BF3008D16B69DB0705D56868FFF728
:10660000E1F9E868FFF7DEF9204638BD30840B0079
:106610000023007C1A461946FFF700B8007C0022D0
:10662000FFF704B8C9B2FFF7F9BF007C0022FFF7FB
:1066300005B80121FFF7F9BF13B503688DF80710FE
:10664000DC6B01224FF0FF330DF10701A04702B0D0
:1066500010BD10B40368DC6B4FF0FF33A4465DF847
:10666000044B604713B5134602688DF80710D46BCE
:106670000DF107010122A04702B010BD10B543691A
:10668000B3F88620B3F884309A42044608D0636990
:10669000B3F88420511CA3F884101344187910BD5A
:1066A00003681B6998470028F1D14FF0FF30F6E7E7
:1066B000704743691868C043C00F704770470000B7
:1066C000064B994210B500F10C0405D0084600F0C5
:1066D00091FC002808BF0024204610BD8C830B00CD
:1066E00010B5AC210446FDF7DAFC204610BDAC2104
:1066F000FDF7D5BC2DE9F0414FF0000886B01C46EF
:10670000C0F8048005460E4617464146102202A8EE
:1067100001F0B4F9631C09D04FF47A73B4FBF3F2BF
:1067200003FB1244CDE902285C43049468691023FA
:106730000093006802AB41F2050240F6FF71FEF7DC
:10674000BDFF002807DAFFF755F903686B600020EA
:1067500006B0BDE8F0816869002300683A4631461A
:10676000FEF7CCFF031EEEDB1846F1E730B587B02D
:10677000044601AD6846FFF717FE0FCD04340FC481
:106780002B68237007B030BD70B54D69054B0446CA
:106790008C3544F8043B06460FCD0FC42B6823709C
:1067A000304670BDBC830B002DE9F043984603686A
:1067B00093B00D460024DB6A0646174698472846E4
:1067C0006B46224621460094FEF770FE05460028DF
:1067D00063D1009B002B4BD05B69002B48D006A8EF
:1067E000FFF79EFD009B5C696378022B04D1211D9D
:1067F00006A8FFF7BBFF26E00A2B24D11122294669
:1068000001A801F03BF9A368002B38D004F108037C
:106810000DF1040C183418685968624603C2083335
:10682000A3429446F7D1062301A90CA88DF8143091
:10683000FFF784FD0DF1340CBCE80F0007AC0FC46A
:10684000DCF80030237006A8FFF78AFD80B13368BA
:1068500007ADD3F82090124B0C930FCD0DAC0FC4A5
:106860002B6823703A4643460CA93046C847054674
:106870000098FEF713FE284613B0BDE8F083E368E6
:10688000002BC3D14FF6FF70D4F81090FEF776FEC0
:106890008145BBD104F11401AAE72546E8E700BF12
:1068A000BC830B0038B543691A68002A054610DA24
:1068B000B3F88620B3F884309A420AD103681B6982
:1068C0009847044628B92B682846DB6A9847204633
:1068D00038BD0120FCE710B54369B3F88620B3F852
:1068E00084309A42044605D06369B3F88420134487
:1068F000187910BD03681B6998470028F4D14FF040
:10690000FF30F6E7F8B543691746B3F88620B3F8C9
:1069100084309A4205460E4616D06969B1F8843033
:10692000B1F88640E41ABC4228BF3C4604332246F4
:106930001944304601F094F86A69B2F8843023446F
:10694000A2F884302046F8BD03681B6998470028E8
:10695000E3D14FF0FF34F5E742690023A2F8843019
:106960004269A2F8863070472DE9F0411F4603685E
:106970000C46DB6A8AB0054616469847237DD5F853
:106980001480042B0CBF02200A2006220121FEF7EE
:10699000BDFEC8F800006B691B68002B08DA2B6885
:1069A0002846DB6A0024984720460AB0BDE8F081FB
:1069B0002846FFF7D1FFB7B1002303A9F8B203932C
:1069C000ADF81030FEF7A2FD0028E8D16869062373
:1069D0000093006803AB41F20B0240F6FF71FEF733
:1069E0006DFE0028DBD11C22002103A801F046F82F
:1069F000237D042B1DD14FF407733046ADF80C30C6
:106A0000FEF7C4FDADF80E006068FEF7B7FD049018
:106A10006B691C22186803A9FEF760FE0028BED12E
:106A200004340FCC6D698C350FC523682B7001249D
:106A3000BAE740F61C233046ADF80C30FEF7A6FD51
:106A400005AEADF80E00231D04F11407186859684F
:106A5000324603C20833BB421646F7D1D8E70000DE
:106A600030B54269B2F886308BB004462BB1B2F82B
:106A700084209A4201D1FFF76FFF616908680028FE
:106A800018DBB1F886507F2D14D804310823C5F1E6
:106A900080022944FEF72AFE002813DD6369B3F85B
:106AA00086200AB9A3F884206369B3F886201044CD
:106AB000A3F886006369B3F88600B3F88430C01A7F
:106AC0000BB030BDFEF796FF03680B2BF2D0FEF73C
:106AD00091FF03680B2BEDD020230025CDE9023573
:106AE000FEF788FF03680193084B0949009302AA47
:106AF0002B463220FEF7C2FE63691868FEF7E6FDFA
:106B000063694FF0FF321A60D4E700BF57840B006F
:106B100050840B0010B5436904461868002801DB57
:106B2000FEF7D4FD63694FF0FF321A6060691122ED
:106B300000218C3000F0A2FF2046BDE81040FFF796
:106B40000BBF10B5002304460160C0F884308830C4
:106B5000FFF7E6FB204610BD73B500234FF47A72B1
:106B6000C0E901320E4A0361026043610446AC2071
:106B70000191FDF790FA051E05F10C0608D00123DE
:106B8000C5E90133074B01992B603046FFF7D9FF68
:106B90002046C4E90565FFF7DFFE02B070BD00BF07
:106BA0008C840B0070840B0010B54FF0FF3104464D
:106BB000FFF7D2FF204610BD10B50446006800283C
:106BC00001DBFEF783FD204610BD0C30FFF7F4BF5C
:106BD000002240681146FEF795BE0022406811462B
:106BE000FEF7B0BE002240681146FEF7BBBE40680B
:106BF0000022FEF7AFBE4068002281F00101FEF7DF
:106C000099BE002340681A461946FEF78BBE002342
:106C100040681A461946FEF77DBE002240681146BC
:106C2000FEF760BE406800220221FEF763BE00232B
:106C300040681A46FEF74EBE024B04225A60024AD2
:106C40001A60704718E70320D8840B0000234068BF
:106C50001A46FEF73FBE406800220221FEF74ABEF8
:106C6000002240681146FEF73DBE002240681146F2
:106C7000FEF748BE002340681A461946FEF74ABE92
:106C8000002340681A461946FEF74CBE40680021B2
:106C9000FEF770BE40680021FEF774BE4068002217
:106CA00081F00101FEF746BE40680022FEF752BEA9
:106CB000002240681146FEF755BE0022406811468A
:106CC000FEF740BE2DE9F04395B014460D46074649
:106CD000FFF726FB00211C220DA8009100F0CEFE3C
:106CE00040230C9320466B460CAA0021FEF7DEFBE6
:106CF000044600284BD1024601216868FEF702FED7
:106D00000221804622466868FEF7FCFD009E81460F
:106D10002146002E3BD0002939D17368022B03D0C5
:106D20000A2B11D0F669F4E7B8F1000FFAD07169B7
:106D300006A8043107ADFFF737FB0FCD3C1D0FC48C
:106D40002B6823704146EDE7B9F1000FEAD0746972
:106D5000102201A800F092FE06238DF8143001AD38
:106D600004F108031834186859682A4603C2083326
:106D7000A3421546F7D101A906A807ADFFF7DEFA31
:106D80000FCD3C1D0FC42B6823704946CAE70098FD
:106D9000FEF784FB384615B0BDE8F083024B034A8A
:106DA0001A6000225A60704720E7032014850B0008
:106DB000232813B502D9002002B010BDA0F10B03A7
:106DC000022B1AD8174C2178BFF35B8F11F0010109
:106DD0000BD120460191FDF771F9019928B11248B4
:106DE000FEF764FE2046FDF76EF90F4B1878FEF7AC
:106DF000C5FC0028DFD10120DEE7012809D800F01A
:106E0000D3F80021007CFEF749FC80F00100C0B2FD
:106E1000D2E709380128EED800F086F8007CFEF7AA
:106E2000E5FBF2E7B8E60320BCE60320232838B5EB
:106E300004460D460AD8FF2908D0FFF7B9FF28B14C
:106E400029462046BDE83840FEF740BB38BD38B57E
:106E500004460D46FEF742FBFF2810D0062804D852
:106E60004D2323FA00F0C30709D42046FFF7A0FF03
:106E700028B129462046BDE83840FEF737BB38BD6B
:106E80000D2810B504469CBF0E34A4B22046FFF76F
:106E90008FFF50B103212046FEF710FB032804D1D9
:106EA0002046BDE81040FEF729BB002010BD2DE9AB
:106EB000F04190461F46072406460D46C4F10701DF
:106EC000B8F1000F12D147FA01F101F0010130468B
:106ED000FFF7BDFF01212846FFF7B9FF0021284633
:106EE000FFF7B5FF013CE9D2BDE8F08147FA04F1B4
:106EF000EBE7704738B5044614252A46002100F018
:106F0000BDFD25804025074925812846258200F0C2
:106F10006FF804496060284600F06AF8E060204697
:106F200038BD00BF48850B0030B50E4D2978BFF342
:106F30005B8F11F0010487B011D12846FDF7BEF830
:106F400068B101A8FFF7D6FF01AA21460648FFF75E
:106F500001FB2846FDF7B7F8044800F07BFD024826
:106F600007B030BD28E703202CE70320F36E0B00A9
:106F70007047000038B50A4B0360012304464361A3
:106F80000849202000F034F8202560600549A560FC
:106F9000284600F02DF8C4E90305204638BD00BF9F
:106FA0001800010048850B0030B50E4D2978BFF35D
:106FB0005B8F11F0010487B011D12846FDF77EF8F0
:106FC00068B16846FFF7D6FF6A4621460648FFF7D4
:106FD00001FB2846FDF777F8044800F03BFD024826
:106FE00007B030BD44E7032048E70320716F0B0072
:106FF000FDF753B8014900F0F9B800BF64850B00F4
:107000007FB500241023CDE90234036815469E693C
:1070100012686B46CDE90044B0479DF8043003F098
:107020000603062B03BF009B2B600120204604B003
:1070300070BD0098904214BF0120062070470000E8
:1070400010B5034B0360044600F0CDF8204610BD98
:10705000A4850B0010B50446FFF7F2FF2046082177
:10706000FDF71DF8204610BD2DE9F0411F46DDE972
:107070000834DDF8188098450646154607D107996B
:1070800000F0B4F818B165710020BDE8F081394610
:10709000304600F0ABF80028F6D00123C4F8008099
:1070A0002571A371F0E738B515461C4600F09EF82F
:1070B00020B10823E36006232560237138BD73B532
:1070C00005460C4601921E4600F090F850B9032E7A
:1070D00008D82368019A5B692946204602B0BDE8BA
:1070E0007040184702B070BD10B5034B03600446F2
:1070F000FFF7A6FF204610BD04860B0010B504461E
:10710000FFF7F2FF20460C21FCF7C9FF204610BD17
:10711000F7B5089F974205460E4614460AD0A86860
:1071200002680897156A31462246AC4603B0BDE8AE
:10713000F04060471946019300F058F8019B002881
:10714000EDD0062003B0F0BD2DE9F14F0D461946F4
:10715000DDE90A4BDDE90CA681461746984600F0AA
:1071600045F890B1002D3460377109DB61198A450B
:107170000CBF06210121B171002001B0BDE8F08FE4
:107180000235F9D10123B371F6E7544506D15946CA
:10719000484600F02BF808B17771EDE7D9F8080000
:1071A0000368CDE90CA6CDE90A4BDC693A464346B3
:1071B0002946A44601B0BDE8F04F60472DE9F041F3
:1071C00007460C4615461E46FFF76DFF48B9B868DE
:1071D00003689F692A4633462146BC46BDE8F04114
:1071E0006047BDE8F081704700207047814208B5D4
:1071F0000ED0406803782A2B0CD049680B782A2BD4
:1072000008BF013100F070FCB0FA80F0400908BD01
:107210000120FCE70020FAE781F0004102E000BF16
:1072200083F0004330B54FEA41044FEA430594EA46
:10723000050F08BF90EA020F1FBF54EA000C55EA81
:10724000020C7FEA645C7FEA655C00F0E2804FEA52
:107250005454D4EB5555B8BF6D420CDD2C4480EA34
:10726000020281EA030382EA000083EA010180EA64
:10727000020281EA0303362D88BF30BD11F0004FB2
:107280004FEA01314FF4801C4CEA113102D04042E8
:1072900061EB410113F0004F4FEA03334CEA133323
:1072A00002D0524263EB430394EA050F00F0A7803B
:1072B000A4F10104D5F1200E0DDB02FA0EFC22FA36
:1072C00005F2801841F1000103FA0EF2801843FA2A
:1072D00005F359410EE0A5F120050EF1200E012A1B
:1072E00003FA0EFC28BF4CF0020C43FA05F3C01859
:1072F00051EBE37101F0004507D54FF0000EDCF1D2
:10730000000C7EEB00006EEB0101B1F5801F1BD37A
:10731000B1F5001F0CD349085FEA30004FEA3C0C7E
:1073200004F101044FEA445212F5800F80F09A8074
:10733000BCF1004F08BF5FEA500C50F1000041EB78
:10734000045141EA050130BD5FEA4C0C404141EB7C
:107350000101013C28BFB1F5801FE9D291F0000F77
:1073600004BF01460020B1FA81F308BF2033A3F126
:107370000B03B3F120020CDA0C3208DD02F1140C1D
:10738000C2F10C0201FA0CF021FA02F10CE002F158
:107390001402D8BFC2F1200C01FA02F120FA0CFC51
:1073A000DCBF41EA0C019040E41AA2BF01EB04519A
:1073B000294330BD6FEA04041F3C1CDA0C340EDC98
:1073C00004F11404C4F1200220FA04F001FA02F3DB
:1073D00040EA030021FA04F345EA030130BDC4F199
:1073E0000C04C4F1200220FA02F001FA04F340EA8E
:1073F0000300294630BD21FA04F0294630BD94F03F
:10740000000F83F4801306BF81F480110134013D25
:107410004EE77FEA645C18BF7FEA655C29D094EA96
:10742000050F08BF90EA020F05D054EA000C04BF14
:107430001946104630BD91EA030F1EBF00210020FF
:1074400030BD5FEA545C05D14000494128BF41F09E
:10745000004130BD14F580043CBF01F5801130BD02
:1074600001F0004545F0FE4141F470014FF000008D
:1074700030BD7FEA645C1ABF194610467FEA655C3E
:107480001CBF0B46024650EA013406BF52EA0335E0
:1074900091EA030F41F4002130BD00BF90F0000FCE
:1074A00004BF0021704730B54FF4806404F132040A
:1074B0004FF000054FF0000150E700BF90F0000FC3
:1074C00004BF0021704730B54FF4806404F13204EA
:1074D00010F0004548BF40424FF000013EE700BFBA
:1074E00042004FEAE2014FEA31014FEA02701FBF4A
:1074F00012F07F4393F07F4F81F06051704732F07C
:107500007F4208BF704793F07F4F04BF41F40021D2
:10751000704730B54FF4607401F0004521F0004130
:107520001CE700BF50EA010208BF704730B54FF0BA
:1075300000050AE050EA010208BF704730B511F0BB
:10754000004502D5404261EB41014FF4806404F1F3
:1075500032045FEA915C3FF4D8AE4FF003025FEA79
:10756000DC0C18BF03325FEADC0C18BF033202EBFD
:10757000DC02C2F1200300FA03FC20FA02F001FA57
:1075800003FE40EA0E0021FA02F11444BDE600BFFA
:1075900070B54FF0FF0C4CF4E06C1CEA11541DBFA9
:1075A0001CEA135594EA0C0F95EA0C0F00F0DEF874
:1075B0002C4481EA030621EA4C5123EA4C5350EA59
:1075C000013518BF52EA033541F4801143F48013AA
:1075D00038D0A0FB02CE4FF00005E1FB02E506F03B
:1075E0000042E0FB03E54FF00006E1FB03569CF090
:1075F000000F18BF4EF0010EA4F1FF04B6F5007F96
:1076000064F5407404D25FEA4E0E6D4146EB060607
:1076100042EAC62141EA55514FEAC52040EA5E5090
:107620004FEACE2EB4F1FD0C88BFBCF5E06F1ED83A
:10763000BEF1004F08BF5FEA500E50F1000041EB71
:10764000045170BD06F0004646EA010140EA02001E
:1076500081EA0301B4EB5C04C2BFD4EB0C0541EA40
:10766000045170BD41F480114FF0000E013C00F355
:10767000AB8014F1360FDEBF002001F0004170BD79
:10768000C4F10004203C35DA0C341BDC04F1140492
:10769000C4F1200500FA05F320FA04F001FA05F21E
:1076A00040EA020001F0004221F0004110EBD370EB
:1076B00021FA04F642EB06015EEA430E08BF20EA17
:1076C000D37070BDC4F10C04C4F1200500FA04F3BA
:1076D00020FA05F001FA04F240EA020001F000414C
:1076E00010EBD37041F100015EEA430E08BF20EABF
:1076F000D37070BDC4F1200500FA05F24EEA020E07
:1077000020FA04F301FA05F243EA020321FA04F035
:1077100001F0004121FA04F220EA020000EBD370EC
:107720005EEA430E08BF20EAD37070BD94F0000FEC
:107730000FD101F00046400041EB010111F4801F20
:1077400008BF013CF7D041EA060195F0000F18BFD1
:10775000704703F00046520043EB030313F4801F0D
:1077600008BF013DF7D043EA0603704794EA0C0FC7
:107770000CEA135518BF95EA0C0F0CD050EA4106DD
:1077800018BF52EA4306D1D181EA030101F000415A
:107790004FF0000070BD50EA410606BF1046194682
:1077A00052EA430619D094EA0C0F02D150EA01368E
:1077B00013D195EA0C0F05D152EA03361CBF1046CF
:1077C00019460AD181EA030101F0004141F0FE416E
:1077D00041F470014FF0000070BD41F0FE4141F4F2
:1077E000780170BD70B54FF0FF0C4CF4E06C1CEAF2
:1077F00011541DBF1CEA135594EA0C0F95EA0C0FA7
:1078000000F0A7F8A4EB050481EA030E52EA033561
:107810004FEA013100F088804FEA03334FF0805582
:1078200045EA131343EA12634FEA022245EA1115AF
:1078300045EA10654FEA00260EF000419D4208BF60
:10784000964244F1FD0404F5407402D25B084FEA0D
:107850003202B61A65EB03055B084FEA32024FF4B9
:1078600080104FF4002CB6EB020E75EB030E22BF16
:10787000B61A754640EA0C005B084FEA3202B6EBD6
:10788000020E75EB030E22BFB61A754640EA5C0085
:107890005B084FEA3202B6EB020E75EB030E22BF15
:1078A000B61A754640EA9C005B084FEA3202B6EB16
:1078B000020E75EB030E22BFB61A754640EADC00D5
:1078C00055EA060E18D04FEA051545EA16754FEA37
:1078D00006164FEAC30343EA52734FEAC2025FEA55
:1078E0001C1CC0D111F4801F0BD141EA00014FF0E4
:1078F00000004FF0004CB6E711F4801F04BF0143B5
:107900000020B4F1FD0C88BFBCF5E06F3FF6AFAED0
:10791000B5EB030C04BFB6EB020C5FEA500C50F160
:10792000000041EB045170BD0EF0004E4EEA1131E3
:1079300014EB5C04C2BFD4EB0C0541EA045170BDEA
:1079400041F480114FF0000E013C90E645EA060E2E
:107950008DE60CEA135594EA0C0F08BF95EA0C0F5C
:107960003FF43BAF94EA0C0F0AD150EA01347FF4A4
:1079700034AF95EA0C0F7FF425AF104619462CE77B
:1079800095EA0C0F06D152EA03353FF4FDAE1046DE
:10799000194622E750EA410618BF52EA43067FF42F
:1079A000C5AE50EA41047FF40DAF52EA43057FF4BF
:1079B000EBAE12E74FEA4102B2F1E04324BFB3F568
:1079C000001CDCF1FE5C0DD901F0004C4FEAC00256
:1079D0004CEA5070B2F1004F40EB830008BF20F03A
:1079E0000100704711F0804F21D113F13872BCBFF4
:1079F00001F00040704741F480114FEA5252C2F149
:107A00001802C2F1200C10FA0CF320FA02F018BF91
:107A100040F001004FEAC1234FEAD32303FA0CFCE4
:107A200040EA0C0023FA02F34FEA4303CCE77FEA73
:107A3000625307D150EA01331EBF4FF0FE4040F4BD
:107A40004000704701F0004040F0FE4040F400006C
:107A5000704700BF002301461A46184600F05EB882
:107A60000A44914200F1FF3300D1704710B511F87C
:107A7000014B03F8014F9142F9D110BD0244034676
:107A8000934200D1704703F8011BF9E738B5104B5A
:107A90001D68AB6B0446B3B91820FDF78BFF024697
:107AA000A86320B90B4B0C484221FDF7ABFF0B49F3
:107AB0000B4BC0E900130B4B83600B238381002128
:107AC0000120C2E90401AB6B00221C615A6138BD80
:107AD00030E503203D860B0054860B000E33CDAB02
:107AE00034126DE6ECDE050010F8012B11F8013BB5
:107AF000012A28BF9A42F7D0D01A7047034611F8DE
:107B0000012B03F8012B002AF9D17047034613F823
:107B1000012B002AFBD1181A013870472DE9F843D0
:107B2000DFF8B8800646D8F800001F460D4691469B
:107B300000F056F8254B1C6834B9254C1C60254BC9
:107B400013B11B68C4F8883063681F2B07DDD8F8B1
:107B5000000000F047F84FF0FF30BDE8F8834EB367
:107B6000D4F8880088B91C4B23B9D8F8000000F07D
:107B700038F8F0E74FF48470FDF71CFF0028F4D0CC
:107B80000023C0E94033C4F88800636840F82390BC
:107B900001229A4000EB8301D0F800311343C0F872
:107BA0000031022EC1F8807002BFD0F804311343B7
:107BB000C0F804316368D8F800005A1C02336260D0
:107BC00044F8235000F00EF80020C6E7E8E7032051
:107BD0005CE7032000000000B5590B0094E503208A
:107BE000704770477047000021400B005D400B005C
:107BF00085400B0089400B000000000043616C6C65
:107C0000206F6E2070757265207669727475616C74
:107C1000004E6F204368616E6765202D2043616EC2
:107C200063656C6C696E6720434D440A007B226F6C
:107C30006E223A747275652C22736174223A002C9C
:107C400022627269223A002C22687565223A007B12
:107C5000226F6E223A66616C73657D0053656E64B7
:107C6000696E6720436F6D6D616E6420746F20488C
:107C7000756500505554202F6170692F002F6C6975
:107C8000676874732F002F737461746520485454AF
:107C9000502F312E31006B6565702D616C697665F2
:107CA00000486F73743A2000436F6E74656E742DD4
:107CB0004C656E6774683A2000436F6E74656E742D
:107CC0002D547970653A20746578742F706C6169F1
:107CD0006E3B636861727365743D5554462D380080
:107CE00046726F6D204875650072656420203D20E6
:107CF00000626C7565203D20000A4E756D5265640A
:107D0000203D202569204E756D426C7565203D2013
:107D10002569000A636F6C31203D20252E326620D4
:107D2000636F6C32203D20252E326620636F6C33EA
:107D3000203D20252E3266000A506965636553692F
:107D40006465203D20252E326620506965636553A9
:107D5000696465203D20252E326620506965636583
:107D600053696465203D20252E3266000000000026
:107D70001E0000003C0000005A00000078000000D7
:107D800096000000B40000004D516C5A7A69524FC1
:107D900030576169354D734D486C6C3878415541A9
:107DA000517177383551727238744D3337463354C8
:107DB000000000000000000065F30000CEE60000B7
:107DC000D2D10000D7BC000040B00000DBA700000B
:107DD0003139322E3136382E312E35000000000078
:107DE00000000000DD4C0B006D4D0B0011540B002A
:107DF000A95F0B00E14C0B0029510B00694B0B00F4
:107E0000F9490B00E7510B0085520B00BB520B00E8
:107E1000D7520B0000000000003E5B4F5B3E3E6B04
:107E20004F6B3E1C3E7C3E1C183C7E3C181C577D14
:107E3000571C1C5E7F5E1C00183C1800FFE7C3E760
:107E4000FF0018241800FFE7DBE7FF30483A060E72
:107E50002629792926407F050507407F05253F5AB9
:107E60003CE73C5A7F3E1C1C08081C1C3E7F142229
:107E70007F22145F5F005F5F06097F017F006689D4
:107E8000956A606060606094A2FFA29408047E041A
:107E90000810207E201008082A1C08081C2A080840
:107EA0001E101010100C1E0C1E0C30383E38300600
:107EB0000E3E0E06000000000000005F00000007FC
:107EC000000700147F147F14242A7F2A122313082A
:107ED000646236495620500008070300001C224106
:107EE000000041221C002A1C7F1C2A08083E0808AA
:107EF000008070300008080808080000606000205A
:107F0000100804023E5149453E00427F400072493C
:107F10004949462141494D331814127F10274545E0
:107F200045393C4A494931412111090736494949F6
:107F300036464949291E0000140000004034000064
:107F400000081422411414141414004122140802CD
:107F5000015909063E415D594E7C1211127C7F4940
:107F60004949363E414141227F4141413E7F494995
:107F700049417F090909013E414151737F080808C1
:107F80007F00417F41002040413F017F0814224192
:107F90007F404040407F021C027F7F0408107F3EEC
:107FA0004141413E7F090909063E4151215E7F0959
:107FB000192946264949493203017F01033F4040C0
:107FC000403F1F2040201F3F4038403F63140814AB
:107FD0006303047804036159494D43007F414141E3
:107FE0000204081020004141417F040201020440C4
:107FF00040404040000307080020545478407F2848
:108000004444383844444428384444287F3854543D
:10801000541800087E090218A4A49C787F08040460
:108020007800447D40002040403D007F10284400FF
:1080300000417F40007C047804787C080404783890
:1080400044444438FC1824241818242418FC7C08C0
:10805000040408485454542404043F44243C40403D
:10806000207C1C2040201C3C4030403C44281028F0
:10807000444C9090907C4464544C44000836410039
:108080000000770000004136080002010204023CB3
:108090002623263C1EA1A161123A4040207A385482
:1080A00054555921555579412154547841215554FD
:1080B000784020545579400C1E527212395555554E
:1080C00059395454545939555454580000457C4139
:1080D0000002457D420001457C40F0292429F0F052
:1080E000282528F07C545545002054547C547C0AA3
:1080F000097F4932494949323248484832324A4870
:1081000048303A4141217A3A42402078009DA0A06F
:108110007D39444444393D4040403D3C24FF2424C3
:10812000487E4943662B2FFC2F2BFF0929F620C0E0
:10813000887E090320545479410000447D41304831
:10814000484A32384040227A007A0A0A727D0D1974
:10815000317D2629292F28262929292630484D40D6
:1081600020380808080808080808382F10C8ACBAD2
:108170002F102834FA00007B000008142A14222251
:10818000142A1408AA005500AAAA55AA55AA000044
:1081900000FF00101010FF00141414FF001010FF57
:1081A00000FF1010F010F0141414FC001414F70069
:1081B000FF0000FF00FF1414F404FC141417101F38
:1081C00010101F101F1414141F00101010F00000C6
:1081D00000001F101010101F10101010F0100000E1
:1081E00000FF101010101010101010FF10000000F1
:1081F000FF140000FF00FF00001F10170000FC0428
:10820000F414141710171414F404F40000FF00F70A
:1082100014141414141414F700F71414141714106D
:10822000101F101F141414F4141010F010F000009C
:108230001F101F0000001F14000000FC140000F0BD
:1082400010F01010FF10FF141414FF141010101F62
:1082500000000000F010FFFFFFFFFFF0F0F0F0F073
:10826000FFFFFF0000000000FFFF0F0F0F0F0F3890
:10827000444438447C2A2A3E147E02020606027ECA
:10828000027E0263554941633844443C04407E20E9
:108290001E2006027E020299A5E7A5991C2A492AFA
:1082A0001C4C7201724C304A4D4D30304878483089
:1082B000BC625A463D3E494949007E0101017E2A81
:1082C0002A2A2A2A44445F444440514A44404044B4
:1082D0004A51400000FF0103E080FF000008086BE6
:1082E0006B083612362436060F090F0600001818E0
:1082F0000000001010003040FF0101001F01011EAE
:1083000000191D1712003C3C3C3C0000000000001E
:10831000000000000000000000000000000000005D
:1083200011540B00A95F0B00A5400B0029510B0055
:108330004F520B006B520B00E7510B0085520B00A4
:10834000BB520B00D7520B000000000000000000E1
:10835000835A0B00795A0B006F5A0B00655A0B00B9
:10836000595A0B004D5A0B008D6C0B00956C0B008D
:10837000415A0B00395A0B002F5A0B00255A0B009B
:10838000C56C0B00000810182028303800000000D1
:10839000000000006170700025592D256D2D2564A9
:1083A0005425483A254D3A2553257A006173637464
:1083B000696D65000000000000000000BD620B0058
:1083C000AD620B00AF620B00000000000000000077
:1083D000CF630B0037640B000D640B00A95F0B002B
:1083E000FF630B00D1630B00E1630B0031640B00F2
:1083F000F1630B00C9630B000000000000000000E7
:10840000D9640B0045650B001D650B00A95F0B00CF
:10841000ED640B0009650B00FB640B0017650B0096
:10842000DB640B00DF640B000000000000000000B4
:108430007D650B00C7650B009F650B007F650B001A
:10844000A7650B00AF650B00B7650B00BF650B00A0
:10845000776972696E670072656376206572726F04
:1084600072203D2025640000000000000000000094
:10847000BD660B00E1660B00CB6B0B00EF660B00DB
:10848000C1660B00000000000000000011410B005D
:1084900045410B0039660B0053660B00616A0B0007
:1084A0007D660B00D7680B00B1660B0069690B0095
:1084B000A9670B0005690B00156B0B00A5680B0085
:1084C000B3660B0065660B00F5660B0089670B0051
:1084D00000000000000000002F6C0B00256C0B005A
:1084E0001B6C0B00D16B0B000F6C0B00036C0B00B3
:1084F0008D6C0B00956C0B00F76B0B00EF6B0B009A
:10850000E56B0B00DB6B0B00C56C0B000000000083
:10851000000000004D6C0B00576C0B00616C0B00F1
:108520006B6C0B00756C0B00816C0B008D6C0B0081
:10853000956C0B009D6C0B00A96C0B00B16C0B00D3
:10854000BB6C0B00C56C0B0000537431395F53706A
:108550005F6D616B655F7368617265645F746167AD
:1085600000000000A4850B0049850B0004860B0069
:1085700078850B0028860B004E31305F5F6378787A
:10858000616269763131375F5F636C6173735F7409
:108590007970655F696E666F45000000000000003D
:1085A0006C850B0041700B0055700B00E9710B00DE
:1085B000E9710B00BF700B0001700B00A7700B007E
:1085C00069700B0033700B0004860B00D4850B0020
:1085D0006C850B004E31305F5F637878616269763D
:1085E0003132305F5F73695F636C6173735F74799D
:1085F00070655F696E666F45000000000000000056
:10860000C8850B00E9700B00FD700B00E9710B00D1
:10861000E9710B00BF700B0001700B00BD710B0006
:1086200049710B0011710B00A4850B0030860B0003
:10863000537439747970655F696E666F0052454591
:108640004E54206D616C6C6F632073756363656558
:10865000646564002F6D6E742F776F726B73706139
:1086600063652F776F726B73706163652F47434348
:108670002D31302D706970656C696E652F6A656E7D
:108680006B696E732D4743432D31302D70697065D2
:108690006C696E652D34385F3230323031313234AE
:1086A0005F313630363138303634312F7372632FC4
:1086B0006E65776C69622F6E65776C69622F6C6985
:1086C00062632F7374646C69622F72616E642E63CF
:1086D0000000000055490B008D5A0B00155D0B0082
:1086E000995F0B0025610B0035610B0069610B0080
:1086F000396C0B009D6D0B000000000000000000B5
:10870000040000001400000003000000474E550064
:10871000B03EA00F59E5EFACED34ACA98CDACA1825
:0487200012DCD3D1C3
:048724000000000051
:10872800C8AF0000E45700008CB9000088130000AF
:1087380050C3000010270000000103070F1F3F7FF0
:108748000080C0E0F0F8FCFE00000000000000001F
:108758000000000000000000000000000000000011
:108768000000000000000000000000000000000001
:1087780000000000000000000000000000000000F1
:108788000000000000000080808000000000000061
:108798000000000000000000008080C0C000000051
:1087A80000000000000000000000000000000000C1
:1087B80000000000000000000000000000000000B1
:1087C80000000000000000000000000000000000A1
:1087D80000000000000000000000000080C0E0F081
:1087E800F8FCF8E0000000000000000000000000B5
:1087F80000000000008080808080008080000000F1
:1088080000808080808000FFFFFF000000008080E3
:10881800808000008080000080FFFF8080008080D2
:108828000080808080008080000000000080800040
:10883800008C8E84000080F8F8F8800000000000AA
:108848000000000000000000F0F0F0F0F0F0F0F0A0
:10885800F0F0F0F0E0E0C08000E0FCFEFFFFFF7FFA
:10886800FFFFFFFFFF000000000000000000000005
:10887800000000FEFFC70101010183FFFF00007C2B
:10888800FEC70101010183FFFFFF0038FEC7830116
:10889800010183C7FFFF000001FFFF010100FFFF87
:1088A8000701010100007FFF80000000FFFF7F003B
:1088B80000FFFFFF000001FFFFFF010000000000B4
:1088C8000000000000000000030F3F7F7FFFFFFF54
:1088D800FFFFFFFFE7C7C78F8F9FBFFFFFC3C0F032
:1088E800FFFFFFFFFFFCFCFCFCFCFCFCFCF8F8F0C5
:1088F800F0E0C000010303030303010303000000C9
:108908000001030303030101030100000001030345
:108918000303010103030000000303000000030335
:10892800000000000000000103030303030100002E
:108938000001030100000003030100000000000023
:10894800000000000000000000000080C0E0F0F916
:10895800FFFFFFFFFF3F1F0F87C7F7FFFF1F1F3DE9
:10896800FCF8F8F8F87C7DFFFFFFFFFFFFFFFF7FB3
:108978003F0F07003030000000000000000000003A
:10898800000000000000000000000000FEFEFC00E7
:1089980000000000000000000000000000000000CF
:1089A8000000000000E0C00000000000000000001F
:1089B800000030300000000000000000000000004F
:1089C800000000000000000000C0FEFFFFFFFFFFE6
:1089D800FFFFFFFF7F7F3F1F0F071F7FFFFFF8F895
:1089E800FFFFFFFFFFFEF8E00000000100000000AD
:1089F80000000000FEFE000000FCFEFC0C06060E57
:108A0800FCF80000F0F81C0E0606060CFFFFFF003D
:108A180000FEFE00000000FCFEFC00183C7E66E63E
:108A2800CE84000006FFFF0606FCFEFC0C060606C8
:108A38000000FEFE0000C0F8FC4E4646464E7C781C
:108A480040183C76E6CECC80000000000000000014
:108A580000000000000000000000000001070F1FD8
:108A68001F3F3F3F3F1F0F030000000000000000B2
:108A7800000000000F0F0000000F0F0F00000000A3
:108A88000F0F000003070E0C18180C060F0F0F002D
:108A980000010F0E0C180C0F070100040E0C180C27
:108AA8000F070000000F0F00000F0F0F000000005D
:108AB80000000F0F00000007070C0C181C0C06061E
:108AC80000040E0C180C0F07000000000000000046
:108AD800000000000000000000000000000000008E
:108AE800000000000000000000000000000000007E
:108AF800000000000000000000000000000000006E
:108B0800000000000000000000000000000000005D
:108B1800000000000000000000000000000000004D
:108B2800000000000000000000000000000000003D
:108B3800000000000000000000000000000000002D
:108B48000000000000000000AC830B0034E50320A7
:108B5800000000000000000000000000000000000D
:108B680000000000000000000000000000000000FD
:108B780000000000000000000000000000000000ED
:108B880000000000000000000000000000000000DD
:108B980000000000000000000000000000000000CD
:108BA80000000000000000000000000000000000BD
:048BB800ECE70320C3
:108BBC00FFFFFFFF00000102030405060708090A76
:108BCC000B0C0D0E0F101112131415161718191A71
:088BDC001B1C1D1E1F202800B8
:048BE4007856341279
:04000003B0004020E9
:00000001FF
